:040000006F10404EEF
:1000040000000000000000006F0080086F0000582E
:1000140000000000000000000000000000000000DC
:1000240000000000000000000000000000000000CC
:100034006F004006000000006F00E00500000000B3
:100044006F0080056F0080076F00000C6F002005B3
:100054006F0000056F00E0046F00C00400000000A2
:100064006F0060046F0040046F0020046F00000400
:100074006F00400E6F00C003000000006F006003BB
:100084006F0040036F0020036F0000036F00E00265
:1000940001A001A001A001A001A001A001A001A054
:1000A40001A001A001A001A001A001A001A001A044
:1000B40001A001A001A001A001A001A0B717004068
:1000C40083D7C709411106C622C413972701635A6F
:1000D4000702138781981C431384019885071CC366
:1000E4001C4023AEF194970000E0E780004708C06D
:1000F400B2402244B71700407D57239EE7084101D0
:10010400828013870195C1BFB717004083D7E709E1
:10011400411106C622C413970701635A07021387C5
:1001240001961C431384C19785071CC31C4023AC50
:10013400F194970000E0E780404208C0B2402244B6
:10014400B71700407D57239FE7084101828013873A
:100154004198C1BFB7170040130700032388E70283
:10016400854723AAF1988280B717004013077005CA
:100174002380E704130780FA2380E7042396A70269
:10018400238007043717004083472705898BEDDF59
:10019400835707053717004083472705898BEDFFF1
:1001A4003717004083472705898BEDDF0355070583
:1001B40042054181828041118146014681451145B4
:1001C40006C6ED29B727004011472383E780B7F718
:1001D40000E0938707D0984B6D9B98CB984B5D9B21
:1001E40098CB7300501001000100B240410182809D
:1001F4004111814601468145114506C6C121B727F3
:10020400004011472383E780B717004003C7E70284
:1002140083C6E70483D78703116693F6F60FC207F4
:10022400C1831377F70F93E6360063E5C700719B2C
:1002340013671700B7170040930570052380B704B0
:10024400130680FA2380C704238207022387E70268
:100254002387D70403C7B7041377F70F136707027D
:10026400A385E70437F700E023800704130707D0CA
:10027400144B93E6460014CB144BDD9A14CB730055
:100284005010010001002380B7042380C70403C772
:10029400B7041377F70DA385E70423800704B2405E
:1002A40041018280411122C4814601462A8481454C
:1002B400114506C62121B727004011472383E78053
:1002C400B717004003C7E70283C6E70483D7870351
:1002D400116693F6F60FC207C1831377F70F93E6FF
:1002E400360063E5C700719B13671700B71700401A
:1002F400930570052380B704130680FA2380C7048E
:10030400238207022387E7022387D70437F700E015
:1003140023800704130707D0144B6575110593E672
:10032400460014CB2380B7042380C70483C6F70098
:10033400498C420493F6F60F93E60604A387D7008C
:1003440083C6B704418093F6F60F93E60602A385AD
:10035400D70423908702144BDD9A14CB73005010FA
:10036400010001002380B7042380C70403C7B70436
:10037400130560041377F70DA385E70423800704AE
:100384002244B240410191A4011126CA814601468A
:10039400AA848145114506CE22CC4AC84EC6392EC0
:1003A400B727004011472383E780B716004083C76F
:1003B400E60203C7E60483D6860311661377F70FB4
:1003C400C206C18293F7F70F1367370063E5C600CF
:1003D400F19B93E71700371400409309700523003D
:1003E4003405130980FA2300240523020402230799
:1003F400F4022307E4042300040413055002B92083
:10040400B7F700E0938707D0984B2565C98C13672D
:10041400470098CB23003405230024050347F40048
:100424001377F70F13670704A307E400231094025C
:10043400984B5D9B98CB7300501001000100F24073
:100444006244D2444249B24905618280B7170040F0
:10045400930670052380D704130780FA2380E704EA
:1004640003C6B7041376F60DA385C70423800704D7
:10047400137605023DC603C6A700118A1DE2238038
:10048400D7042380E70403C7A7001377F70F136784
:1004940047002385E7009307004B01000100FD1787
:1004A400EDFFB7170040930670052380D7041307A8
:1004B40080FA2380E7047D892394A70001000100CA
:1004C40001000100238007042380D7042380E7046C
:1004D4009306100537270040A303D7802380070421
:1004E4008280137605046DDE03C6A700418A1DE2EF
:1004F4002380D7042380E70403C7A7001377F70FEB
:10050400136707012385E7009307007D01000100BD
:10051400FD17EDFFB7170040930670052380D7043D
:10052400130780FA7D892380E70413650504239467
:10053400A7000100010001000100238007042380BB
:10054400D7042380E704930630053727004069B7B2
:100554004111814601468145114506C68522B717DA
:100564000040130770052380E704130780FA2380F3
:10057400E70403C767041377F70F13671700238390
:10058400E70423800704B24041018280411181467F
:1005940001468145114506C61522B71700401307C9
:1005A40070052380E704130780FA2380E7047D574E
:1005B4002396E70203C767041377F70F136717003F
:1005C4002383E7042380070401A0BD473305F50214
:1005D40001007D1575FD8280411122C426C206C624
:1005E400AA84014463179400B24022449244410116
:1005F400828005041305803E4204C13F4180DDB77B
:100604002303048015472303E48001002302A4800C
:10061400828083076480E3CE07FE23030480828004
:1006240083076480E3CE07FE03454480828083070A
:100634006480E3CE07FE2302A4808280411126C495
:100644004AC24EC006C61377F50BAD47AA892E8958
:1006540095446306F70019456537653F8D444E851B
:100664004537FD59FD1463983401B240A244124940
:10067400824941018280135509011375F50F453FE5
:100684002209CDB7011126CC06CEB7040800513794
:100694001545BD37713769372AC6A53F324593776B
:1006A400150089EB136515001375F50FF240E2444C
:1006B40005618280FD14E9FC0145CDBF397126DC5A
:1006C4004ADA4ED852D656D45AD25ED006DE62CE1C
:1006D40066CCB7E700E07D5783AA070022C603AAC9
:1006E400470023A0E71823A2E718B7170040130711
:1006F40070052380E704130780FA2380E70483C787
:100704004704930B75FFB684E20793FBFB0F854602
:10071400AA892E8B328937240040E187015763FA76
:1007240076016308D5008946130700026313D500D8
:100734000157D98F93F7F70FB71C00402382FC04AD
:1007440011472303E4801305F00F5D3D094CD135B7
:1007540063697C11B70707003E9B3787070079550B
:10076400637EEB02B3079B00636AF702A9476399B0
:10077400F90689E48144713D26850DA0DA85094591
:10078400753D05090345F9FFFD14050B4D3581C47D
:100794009377FB0FFDF7FD3569FD7D55B7170040D5
:1007A400130770052380E704130780FA2380E70406
:1007B40003C74704418B2382E704F250B7E700E004
:1007C40023A0571123A24711E25432445259C2596B
:1007D400325AA25A125B825B724CE24C21618280D3
:1007E400A5476395F90685691309F00FB3069900C7
:1007F400B3742B01B6941349F9FFB3749900856B54
:1008040033796901416B9387F9FFB3F7270199E3C2
:1008140063FC340193D94900C147E3E637FF99BF2C
:100824000569C1697D19D9B71305800D638869010C
:10083400130500026384790113051008CA85FD3B82
:10084400913521DD4E99B3843441D9B7DA852D45EC
:10085400F533CA94E30099F20509D933A30FA9FE2D
:10086400D5BF9387F9FF93F7F70F636CFC0803C7B1
:100874005C04B70708001377070219E3B78707007A
:100884007955E37DFBF033079B00E3E9E7F0894703
:100894006390F9048980D549E38E04ECDA8509452F
:1008A400713B11090327C9FF91472320E480030703
:1008B4006480E34E07FE23033481FD17EDFBFD1432
:1008C400110B81C49377FB0FE9FF6D3B71F5F1B513
:1008D4008547E387F9F4DA852D458D339389F4FF51
:1008E400E38A04E8353B93F7390091EB83260480CF
:1008F4000327090093074900E39FE6E63E89CE8477
:10090400F1BFB5476396F9001305900BD5399DB532
:10091400B1471305B00AE38BF9FE9947639EF902C8
:10092400DA852D45213B81448D4BA149D539639608
:100934007401832704802320F9008504E39834FF9D
:100944008327048013172B01635507002312F90032
:1009540015B52322F90039BD9D476399F9028145F4
:100964001305B004E139BD44232009002322090002
:10097400FD597D3193F77400CA9703C70700FD142E
:10098400398D2380A700E39634FFEDB3A14763922A
:10099400F904CD398144630D0B008D479304C003E2
:1009A4006308FB009304000563048B019304400473
:1009B4001375C507E30095DC194599319939054547
:1009C40081312685AD3109459D316D39E31405DA50
:1009D400E9B391476399F900130560061531153998
:1009E4001305900925B7E38709D8F15469B319CDE4
:1009F400B7170040130770052380E704130780FA34
:100A04002380E7042396A70223800704828019C168
:100A1400814799E982803387F500834607003307CD
:100A2400F50085072300D700E397C7FEE5B719C192
:100A3400FD5781E98280910503A7C5FF1105232E87
:100A4400E5FE7D16E319F6FEF5B7797122D4173465
:100A54000000130424BE1C4006D626D24AD04ECE33
:100A640091C782979737000023A607BC5C4089CBC7
:100A740003D5819EAD3F5C40829703D5A19E853FFF
:100A84001C40639C07189737000083C737CE858BBB
:100A940095C797370000A38B07CC1737000003478F
:100AA40017CD914763FCE700752B9737000083C788
:100AB40017CCF9178A07A2979C43829797370000AF
:100AC40083C787CF918B89C7971001E0E7800085A2
:100AD4001C4491C382979387419E98431736000024
:100AE400034656B33E89973400009384A4B29737E3
:100AF400000083C727B293961700BA9683D60600E0
:100B0400638306109737000083C7C7B063FBC7062B
:100B140086073E97835507002310070003D5819E5F
:100B24002EC6F1359387819F9C43173500000345FA
:100B340065AE13172500BA979C43B2458297AA89DC
:100B440003D5A19E6D359737000083C7A7AC1397D3
:100B5400170083270900BA9703D70700B3E9E90010
:100B64002390370183C70400850793F7F70F1737DE
:100B740000002301F7AA173700000347B7A963E66B
:100B8400E70097370000238707A81C40D9E793871D
:100B9400019F98433E8451C39737000083C777BDB4
:100BA40091CB9737000083C797BC89E7970001E092
:100BB400E780A03B1C4082972A8425C19C48AA97C1
:100BC400173700002320F7A69387419F9C4381CFCA
:100BD40003D5819E293D2285970000E0E780409B54
:100BE40003D5A19E2935973700009387E79EDC53F0
:100BF4008DC72254B25092540259F249456117F3F9
:100C0400FFDF6700E370850793F7F70F973600005F
:100C14002382F6A0E3EDC7ECF5B5B250225492540A
:100C24000259F249456182809167B7C600409387B3
:100C3400373023A6F6200F10000097370000938763
:100C4400679D884F938781AD9C4331671307373085
:100C5400F053B7071000FD17918F99833A0523A627
:100C6400E6205D8D82804111B7170040985F3AC637
:100C7400945F3247E39CE6FE324541018280411194
:100C840006C6D5379736000083C64696858AB1C610
:100C9400930730333307F502B337F5023983CA07B4
:100CA400D98F173700001307E796584B01456303A4
:100CB400F7023385E740636BF70037653D0889C663
:100CC40037856F0813050590198D3E951737000079
:100CD400232CF794B24041018280E5473307F502A3
:100CE400B337F5022583DE0765BF0327C50F8346A7
:100CF400B50097370000938727A79C4F58439386E6
:100D0400160295829043FD1693F6F60F10C3D04356
:100D140050C3904710C7D04750C7904B10CBD04B0F
:100D240050CB904F10CFD04F50CF91C6130707022E
:100D340093870702C1BF82808347E50193F7E70FDA
:100D440091CB014582800145B2402244924402493C
:100D5400410182808347F501EDF78346050103478E
:100D6400850089CA034665029737000083C7178840
:100D74006367F60093770701E9D7814789CA8347F8
:100D840005158346F514418BA207D58F01CB034784
:100D94004515834635152207558FBA97DDD3173786
:100DA40000000347A78441119316870106C622C495
:100DB40026C24AC0E18663D506049387C71313D4B9
:100DC4005700973700009387A7A5BC4797340000C6
:100DD40083C464827D5903A70708637327013A8992
:100DE4009C43F5FB9387C19F9C438297E36DA9F4D1
:100DF4003305A94026943334850013451400A9B75C
:100E0400058B9387C71209CB8A071384F7039307CB
:100E1400D0073354F40275B786071384F701930798
:100E2400D003C5BF5D7122DE138481AC3AD2184071
:100E34003ED04ACA1C5F86C696C499839AC29EC095
:100E440026DC2ADA2ED832D636D442CE46CC72C824
:100E540076C67AC47EC2858B138941ACC1C31C5F3C
:100E6400973400009384449093F7F7F91CDF973785
:100E7400000083C7678F93F707048DC39387C19FCF
:100E84009C4382979737000023A8A78E83C704004A
:100E940093F7F70B173700002308F78C85471737AC
:100EA4000000A305F78C83C7440093F7070481EF80
:100EB400938781AD9C43D844B8D3930700FC17377C
:100EC40000002305F78A8387640063D9070083271A
:100ED40009009C4317370000230BF78818401C5F58
:100EE4008583858BC9CBF5571CDF01000100010008
:100EF40001000100010001000100010001000100E6
:100F040001000100010001000100010001000100D5
:100F140001000100010001000100010001000100C5
:100F240001000100010001000100010001000100B5
:100F340001000100010001000100010001000100A5
:100F44000100010001000100010001000100010095
:100F54000100010001000100010001000100010085
:100F640001000100010001000100938781AD9C4351
:100F740013075004B8CB18401C5F9183858B89CF2D
:100F8400BD571CDF938781AD9C4323A80704854785
:100F940017270000230CF77C83270900D843058317
:100FA400058B19C7D843759BD8C3D843799BD8C33D
:100FB4007254B640A64216438643E2545255C25573
:100FC4003256A256125782577248E2485249424E4C
:100FD400B24E224F924F61617300203017270000F8
:100FE4001307877883474700858B89EF834727005A
:100FF400858B89EB83473700858BEDD797270000D6
:10100400238607768280938741AD9C4399CB944B8A
:10101400D04B9842518F98C294439C479842D98FA1
:101024009CC2938781AD9C4337C700401306C0031D
:10103400A8CB93062003972500009385E5728327A8
:101044008720C18393F7F7036369F600832787201A
:10105400C18393F7F70363E6F60083C74500858BE6
:10106400F9DF8280172700001307077083474700C2
:10107400858B89EB83470700858B91CB97270000ED
:101084002386076E97270000A382076E828083471A
:101094001700858BE1DFDDB7938741AD9C4399CB86
:1010A400944BD04B9842518F98C294439C4798429A
:1010B400D98F9CC2938781AD9C4337C7004041467A
:1010C400A8CBE546972500009385056A83278720EA
:1010D400C18393F7F703637DF60083278720C183D9
:1010E40093F7F70363E6F60083C74500858BF9DFC2
:1010F4008280138781AC1843AA87185F1583058BF8
:1011040025EF0345150015051377C51F19C6B386CA
:10111400E70083C626002300D60095C59726000065
:1011240083C6E66493F606040945A1CAB386E700BC
:1011340083C63600054693F5F6066390C504E206B9
:10114400E18663CC06023385E70083471500034735
:101154000500A20793F70770D98F139707014183FE
:101164009376074099C6136707802398E1AC01453D
:1011740082802398F1ACE5BF05458280011136C811
:10118400938681AD2ECC8C423AC63EC498452ACE75
:1011940032CA9317070142C2C183137817203685D8
:1011A4003E86972600009386265C63040804137722
:1011B400072061CF03C72600136717001728000014
:1011C4002305E85A13070019B8D1130700F8972527
:1011D4000000238DE558138781AC0C4337080010B9
:1011E400D855719B13672700D8D5984133670701F9
:1011F40098C11377261005C31376061045CA03C792
:1012040006001367170017260000230FE65417275C
:101214000000231F075483C6460093C7F7FFC20785
:10122400E206E186C183184163D106029396170151
:1012340063D7060830538D4663E9C60085461726F2
:1012440000002305D6523453FDFE972600009386F2
:10125400A6388386460163DD060093960701C1869E
:1012640063D506067053894663E4C6007453FDFED5
:1012740014477245E245F58F1CC75246C2463247B1
:10128400A247124805617300203003C71600136794
:10129400170097250000A389E54C172700002307B2
:1012A400074C172700002315074CA1B703C73600C6
:1012B4001367170017260000A309E64A89BF85466D
:1012C400172600002304D64A49B75447139606014B
:1012D40063510602B7061000FD1674D3972600006A
:1012E40093864633944E8506172600002320D63471
:1012F40041B7A166D58FADBF1727000013078748F4
:101304008346B7019727000083C7174BB69793F717
:10131400F70FFD4663EAF6044C4B97260000A383BF
:10132400F6469727000083C7F74505473317F700AC
:1013340097260000A382F6486D8F1DEF97260000C4
:1013440083C6D647B3F6D70213050002814733D6C6
:10135400F500058A13F8F70F09CE6399E60097277D
:101364000000A3810743828081177DB705071377A7
:10137400F70F8507E39DA7FC8280938701AE98430E
:10138400B75702009387079F8326070913965600D1
:101394006358060083260709139666006344060013
:1013A400FD17FDF3828051C9AA870145C9C98D077C
:1013B400C207C183F19BC207C18313074003636B58
:1013C400F702138701B70843138781B61443639662
:1013D400A6021727000013072720185B014525C321
:1013E4004111C20706C60545DD8D0297B24001458D
:1013F400410182801387C1B6F9B70357650005EF31
:10140400035745006369F702B306F740214663704A
:10141400D6021041938687001D8FAA96611790C249
:101424002392E6002393060014C12312F50023132C
:10143400B50021058280084159BF01458280828020
:1014440001CD938701B703A80700938781B68C4326
:101454000147C28763E3B70082809443636FF50654
:1014640063EDA60613868700E368C5FE03D567000F
:10147400216605066317C50003C6C1A805062386B1
:10148400C1A823930700638407031386C1B61042DF
:10149400630FF6000356670019EA83D7470014C3A5
:1014A40083564700B697A1072312F700BA879843DB
:1014B400E304B7FA9386C1B69442E30FD7F8835690
:1014C4006700D9FA83D64700035647001843A1069C
:1014D400B2962392D70098C382803E87B6879DBF79
:1014E400974100209381415017710020130141B1AD
:1014F400130540009725002093858530173600207A
:101504001306067E63FAC5008322050023A0550056
:1015140011059105E3EAC5FE17C501001305057819
:10152400973500209385C57B1386419363FAC500E4
:101534008322050023A0550011059105E3EAC5FEA9
:101544001385419397650020938505B86377B500AB
:10155400232005001105E36DB5FE9302800873A0F6
:101564000230972200209382A22993E21200739002
:101574005230971200009382628E7390123473007B
:1015840020303D432A876373C3029377F700BDEF8E
:10159400ADE5937606FF3D8ABA960CC34CC30CC7DF
:1015A4004CC74107E36BD7FE11E28280B306C34008
:1015B4008A069702000096966780A6002307B70064
:1015C400A306B7002306B700A305B7002305B70099
:1015D400A304B7002304B700A303B7002303B70091
:1015E400A302B7002302B700A301B7002301B70089
:1015F400A300B7002300B700828093F5F50F9396FC
:101604008500D58D93960501D58D61B793962700F6
:101614009702000096968682E78086FA9680C11724
:101624001D8F3E96E374C3F8A5B7411106C622C4C4
:1016340003C48500418815E01DE3A147328523904A
:10164400F60021469385419397300020E78020BC23
:10165400B24022852244410182802144D5BF2D44D9
:10166400C5BF41654111938541B97D1506C6EF801B
:101674002046B240973600209386866941468D45C0
:10168400173500201305C56541016F80803941116C
:1016940022C413844193AA852146228506C623A623
:1016A400019897300020E78080B683470400814585
:1016B4000145FD8B2300F400A92022862244B24078
:1016C400A146814529454101172300206700037F76
:1016D400411106C622C403C485001374040205E044
:1016E400A1476399F60003477600C5473285631323
:1016F400F700713FB2402285224441018280214497
:10170400D5BF1387C1948347070093F7F7072300D6
:10171400F70083C74193A18B3717004089CB8327F8
:10172400870A93E707202324F70A01458280832749
:10173400C70A93E707202326F70AC5BF411106C647
:1017440083C7C194B9CBE207E18763CA070037179F
:1017540000408327870A93C707202324F70A1387A7
:1017640081941C4389669386067185071CC31307FD
:101774005020B387E70203C771933307D70263731B
:10178400F7002D24130650208D4503C54194EF2006
:10179400606DB24001454101828081450145953724
:1017A40023A40194FDB71387C1948347070013064C
:1017B40050208D4593E707042300F70003C54194A7
:1017C40023A401946F20006A011106CE1387C194EB
:1017D400834707002AC6170500001305C5F293E7DF
:1017E40007F82300F700EF20D01E3246F2408D4563
:1017F40005616F202067411117150000130505CA04
:1018040006C6EF20101D238CA1980965130505D683
:10181400653F8D4513050020EF10705737170040C2
:101824008327870A17050000130585F193E707202E
:101834002324F70AEF20F019B2402382A194410136
:1018440082800111A1461386419381452D4526CA04
:1018540023A2019606CE22CC4AC84EC652C4938413
:10186400419397200020E780606503C77400C54753
:101874006309F70203C70400A1462686419B23801F
:10188400E4001D47A380E40081450D4729452381D9
:10189400F400A381E400A383F40097200020E780F0
:1018A400E061854537054000EF10B0578145196563
:1018B40037140040EF10B04D03574409196637EA56
:1018C40000E042074183518F42074183231AE40811
:1018D4008326C40A1967A169D98E2326D40A8326CC
:1018E400840A138509088145D98E2324D40A231E2A
:1018F400E4088357040993890908C207C183D18F77
:10190400C207C1832318F408B70702002320FA1082
:10191400EF10305103576409E177938607084207B3
:101924004183558F42074183231BE4088327C40C5A
:1019340091454145B3E737012326F40C8327840CF2
:10194400B3E937012324340D231FD4088357240912
:10195400C207C183D58FC207C1832319F408B7070F
:1019640004002320FA1023A2019823A0019623A89F
:10197400019423A40198EF10904183C70400918B34
:1019840099CF8327C40A93E707012326F40A624404
:10199400F240D2444249B249224A0561A9BD832793
:1019A400840A93E707012324F40AD5B783C7719304
:1019B400BDCBB717004093870708D857411106C617
:1019C40013670720D8D737E700E03443414630C3D4
:1019D400B7050200130607180CC234C30100010046
:1019E400D8570546C14513670701D8D70545EF10F9
:1019F400F058B71600403707400083A7460CF98F0C
:101A0400EDDF370540008945EF10F04AB240B7E7F3
:101A140000E03707040023A0E71001454101172324
:101A24000020670063168280B717004083A7470C25
:101A340037074000F98F89EF03C74193058B9387DC
:101A4400419601CB03C70700136727002380E700F3
:101A5400828003C7070013671700CDBF83A70196D1
:101A640083A641989D8E23A2019823A0019683A763
:101A7400819803A701951D8F23A8019423A401989D
:101A84009387019793F6F60F13858197BE8503C656
:101A9400070085073696A38FC7FEE39AA7FE9387B0
:101AA40081961377F70F138501973E8683C6070047
:101AB4008507BA96A38FD7FEE39AA7FE814781468E
:101AC40021473385F500034505008507AA96E39A67
:101AD400E7FE138581978347050001472148BE959A
:101AE400238005008145B308E60083C80800050784
:101AF400C695E31A07FF3E962300060099861386CF
:101B040041968507A300B6002301D60093F7F70F8B
:101B14006385E7002300F5008280238C0196828090
:101B2400411106C622C426C213844196F53D93840E
:101B340041952D370347040083C704006319F70454
:101B44001C4037070001130707F0F98FA9E3138737
:101B5400C1981C439386419385071CC303C7260081
:101B6400B307F70203C73600896693860671330705
:101B7400D7026373F7001D3D83470400B24022443B
:101B84002380F40023A2019692444101828093862B
:101B94004196114685450145EF00106023A6019842
:101BA400E1BF828023A401947D15954763EAA70EC3
:101BB40017C70100130787910A053A951C410111C3
:101BC40006CEBA9782872C0013054030EF70217738
:101BD4002C000545EF50A02A17C5010013054585C3
:101BE400EFA08174F2400561828017C501001305DE
:101BF4002585EFA06173F240056175B61387C19422
:101C0400834707000D661306062093C707042300C5
:101C1400F70083D7A50003C561819145239AF1801C
:101C2400EF20402481450145EF00100717C501004E
:101C340013050582F24005616FA0016F17C501000D
:101C44001305C581C5BF83C72500114717C501000A
:101C540013054582638EE70219476394E70283C53F
:101C6400650017C501001305A582EFA0A15A854799
:101C740030008545130550302304F100EF70E179FD
:101C840095B71547E395E7FE17C5010013050582CF
:101C9400EFA08169E9BF17C501001305A58259BFEB
:101CA40082803688BA863E876316080083C606009B
:101CB4006F10C00F85476314F8006F10A011894797
:101CC400631FF80041111306401F894503C5618154
:101CD40006C6EF202019B24001454101828001452A
:101CE400828041119397050122C406C6C1872E84C0
:101CF40063DF070003C56181EF10D04519C1EF1000
:101D0400D03E2165218DB24022444101828093F767
:101D1400150013C51500E5FB93F7450099CF83C75C
:101D240061811307401F81462146A14503D54181A6
:101D3400EF70213B13454400F9B713F5250061D535
:101D4400C53303C661931D06894503C56181EF2030
:101D540060111345240045BF011117050000130548
:101D640085F806CE22CC26CAEF20A0469384618152
:101D740005442380A40070008545130550302306D4
:101D84008100EF70816917360020130626469D45B1
:101D940013056030EF70616817360020130606F9EA
:101DA400F54513057030EF70416717B6010013064F
:101DB4006673D5450145EF5050008D47700091453D
:101DC400130570402305F10023048100A30581005D
:101DD40002C6A3040100EF60A13530008545130558
:101DE4000040EF60E134130691008545130510406F
:101DF400EF6001341306A100854513052040EF6010
:101E040021331306B100854513055040EF6041327C
:101E14009305C0120D45EF3030359305C0121145BE
:101E2400EF30903499477000854505452306F1004D
:101E34004D2BEF00D06D97350020938525EE13854B
:101E4400C180EF003034624403C50400F240D24440
:101E5400854505616F10B07041111305800406C6F5
:101E640097200020E78080DE371700408327870A09
:101E74008D451305002093E707202324F70AEF106C
:101E84000071EF109021452AC92CEF70C17EEF003C
:101E9400B027D9359305F00F0145EF10500B0145DC
:101EA400EF106010EFF0FF9997200020E780E039F1
:101EB400E5BF411106C6EF10A011BD4763F4A700AA
:101EC400EF100011EF106036BD4763F4A700EF1068
:101ED400C035B24083D5E19D03D5C19D41016F203A
:101EE400801F411193962500AA852D4506C697208B
:101EF4000020E780A0FCB2400145410182804111ED
:101F040022C426C24AC02A842E89B284AA85930692
:101F140000200146254506C697200020E78000FAE8
:101F2400931629002686A285294597200020E7805C
:101F3400E0F8B240224492440249014541018280C2
:101F4400011122CC06CE3714004026CA4AC84EC618
:101F540052C483447405034AB40583498405034980
:101F64009405EF00D07F8347A40593F4F40F137A0C
:101F7400FA0F93F7F70F93E71700230DF40493F97F
:101F8400F90F1379F90FB717004003C7A705058B9D
:101F94006DFF03D5C705A38D4705238C3705A38C97
:101FA4002705A38B9704F24062444205D244424978
:101FB400B249224A4181056182804111939705010A
:101FC40022C406C626C2C1872E8463DE0700EF1032
:101FD400701819C1EF1070112165218DB24022448F
:101FE40092444101828093F7150013C51500FDF753
:101FF4008964B3F7950095C3EF2011195D3D37F659
:102004000200130606E0896503C50199EF10906587
:10201400258C131504014181D1B7916433F59500E2
:1020240055DD17B501001305654DEFA0E12F13062B
:1020340000649165D1BF1D71494697B50100938530
:10204400254C17B501001305A57886CEA2CCEF1058
:10205400704A01E917B501001305C54BEFA0C12C67
:1020640001A037F700E0F9575CC7FD571CCBB7E771
:1020740000E005649386071080C29306701014C3B1
:10208400B843C146B4C39386071880C2B8C30100DD
:1020940001001306C00381454808EF10903F9737AD
:1020A40000209387A74E3ECA896793870780231C25
:1020B400F100ED47A301F1029307A0102312F102EE
:1020C400D1472303F102A167938707E03ECE970728
:1020D4000000938747E1BEC497070000938767E237
:1020E400BEC689472304F102B5472308F1029717B6
:1020F4000000938767743EDAB7F50700970700007E
:10210400938747E43EDE8146970700009387A7DA6A
:102114007000E1051945BEC097200020E78000DA71
:1021240019466C001305A102EFA00101D24789C72B
:102134008357810163F3870001A04808EF20E00C76
:10214400AA8501C917B501001305053EEFA0810C4E
:1021540001A0F64066442561828041111705000004
:102164001305E5E506C622C4EF20A00613840199F1
:102174002300A4002928034504002244B24037F672
:102184000200130606E0896541016F10B04D41114C
:1021940006C6B7170040130770052380E70413072A
:1021A40080FA2380E70403C7F7021377A70FA387F6
:1021B400E70203C7F7021377F70F13672700A38714
:1021C400E702C5391305407E81470147814605462C
:1021D4008545EF10A026B240014541016F20C02A79
:1021E400011106CE22CC83A7019A91C38297EF00F6
:1021F40090592A84EF0030592A94EF00D0582A9439
:10220400EF0070582A94EF001058B3078500154565
:10221400B3C7A70203D781811305400663F4E7021D
:1022240083D6E181014563FFF6003385D7409307E8
:1022340040063305F502158F420741833355E50205
:102244001375F50F83A7419A81C72AC68297324531
:10225400F24062440561828003A84500411122C412
:1022640006C626C283471800834808000D68A207E3
:10227400B3E7170113082890294463960703854799
:10228400B284EF50503D2A8419ED03A7C19901CFC0
:1022940083C7140003C50400A207C98F93B71700AE
:1022A400138517000297B2402285224492444101CB
:1022B40082802D452DE7D841411122C426C206C68D
:1022C40083471700B68483460700A2070D67D58F9E
:1022D400930697A132846394D702193793870182B6
:1022E4002380A70005472390E40083C70700230049
:1022F400F4000145B2402244924441018280130714
:1023040087902945E398E7FECC4589472390F4005C
:102314000946228597200020E78060EFD9BF82809C
:1023240083474500858BADC7011122CC2A84035510
:10233400250097550020938565A506CEEF50702E95
:10234400058939C103552400014781460546ED45F9
:10235400EF50206B2AC60DC99737002083D7A7A159
:102364002314F10085472315F10083C7018223005C
:10237400F5000355240001462C00EF60900509C5C3
:10238400ED452800EF50A07FF24062440561828051
:10239400828041118145056506C6EF10401F8945BD
:1023A4000145EF009039B71700400947416597553B
:1023B40000209385A59D7D15238CE704EF70407163
:1023C400B240973600209386669D41469545173561
:1023D40000201305A59741016F70A06423AEA19856
:1023E4008280411122C406C6854709446311F5025F
:1023F400834706000144A38CF19803C70182630854
:10240400F700170500001305E5F1EF903010B24016
:10241400228522444101828089476305F50263E8ED
:10242400A70019E983C701822380F50082808D47C4
:102434006301F5020945828083C791992380F500E1
:10244400014582809737002083D7E7902390F500D9
:10245400C5BF83D7C1812392F500973700209387A6
:10246400E78E03D7A70283D7A7032390E500239120
:10247400F50085472383F500E1B7411106C68D3386
:102484002380A182170500001305C5E9EF90100809
:10249400B240014541018280411106C6F93F170649
:1024A40000001306A6FF8D4503C58199EF10901B0C
:1024B400B240014541018280C167F917630EF502FC
:1024C400411122C406C685472A84639CF5002285EF
:1024D4002244B240975500209385458B41016F708B
:1024E400205F89476396F5008545EF90A07C65D110
:1024F400B24022444101828082803285D041411120
:1025040006C683451600034806000D66A205B3E51A
:10251400050113980501135808419308A6A263C83E
:102524000803130626A26358060375761306C65DD0
:10253400B295C205C18119466363B60217B801009A
:10254400130888008A05C2959041429602861306B4
:1025540006A5630DC81023900600A94525A01D46B5
:102564009D456361E6022146198E63F3C7003E86EA
:102574002390C6009385819ABA9597200020E7801E
:1025840000C98145B2402E85410182802D469D457A
:10259400E36AE6FE3146198E63F3C7003E86239054
:1025A400C60097B501009385A500F9B731469D454E
:1025B400E36AE6FC3546198E63F3C7003E86239032
:1025C400C60097B501009385A5FF7DB741469D459B
:1025D400E36AE6FA4546198E63F3C7003E86239004
:1025E400C60097B501009385E5F879B741469D4546
:1025F400E36AE6F84546198E63F3C7003E862390E6
:10260400C60097B50100938525F8BDB741469D45A1
:10261400E36AE6F64546198E63F3C7003E862390C7
:10262400C60097B501009385A5FAB9B741469D4503
:10263400E36AE6F44546198E63F3C7003E862390A9
:10264400C60097B50100938565F53DB735469D45B0
:10265400E36AE6F23946198E63F3C7003E86239097
:10266400C60097B501009385E5EF39B719469D4536
:10267400E36AE6F03386E54063F3C7003E862390C1
:10268400C60093858182CDBD973600209386C6848B
:102694004146CD4517250020130505716F7060383C
:1026A40082802A8783C7819B03A5419C83C631848A
:1026B40099E301458280035605006316E60003464C
:1026C4006500E309D6FEFD1793F7F70F2105CDB793
:1026D4001166130686A9894503C5919B6F108078FE
:1026E400B2862E86AA8517B501001305A5EF6F9053
:1026F40071320111930500030D4506CEEF30C0265B
:10270400930500051145EF3020269305C0030545C8
:10271400EF30802585471306F100854513055030B9
:10272400A307F100EF60714FF2400561828041110F
:102734009397050122C406C6C1872E8463DF070070
:1027440003C5919BEF10002119C1EF10001A2165F8
:10275400218DB24022444101828093F7150091CF2C
:1027640017260020130606789385418303C5919BA1
:10277400EF60D11D13451400E9BF13F5250071D98D
:1027840013C52500F9B785476398F50019E2238935
:10279400B19A2384C19C828009476399E50019E6B4
:1027A4002389F19A03D5019B6F00406F8280011148
:1027B40022CC06CE83A7C19B2E8499C79C4789C788
:1027C4006244F240056182876C0013057040EF504B
:1027D400416F324622858145EF606107F2406244D1
:1027E40005618280797122D44AD052CC06D626D291
:1027F4004ECE56CA91472A842E89138A419B63146C
:10280400F50483D7A5001306E10085451305503070
:102814002398F19A230701002389019AEF60F13F7D
:1028240083A7C19B91C7DC4781C7CA85228582974C
:1028340023208A00B250225492540259F249624A27
:10284400D24A4561828003270A00E31BF7FC938484
:10285400019B03D504008545853103D504008545D6
:10286400612D83DA0400C167F917639BFA0285447A
:102874009305E100130550412389019AA3819184B2
:1028840023070100EF50E1638347E100A1E303C79D
:10289400819C9147E316F7F8A93D2384019C49B72D
:1028A40083A9419C83C4819BF9D003D5290011C914
:1028B4009305E100EF50703A09C54C455685EF7019
:1028C4002021FD1493F4F40FA109F9BF83A7019CFF
:1028D40083C74700898BC5DF9305000A0D45EF3098
:1028E400A0089305000A1145EF300008814505450D
:1028F400EF3080071306E1008545130550302307A8
:102904009100EF60913161B70111170500001305C3
:1029140045E206CE22CCEF10D00B1384919B130614
:10292400F100854785452300A40013054041A30712
:10293400F100EF50E17F7D55EF4010567D55EF706B
:1029440000169933EFE0FFD1EFF0BFA4292B170550
:102954000000130525D8EFF07FA817050000130524
:1029640065D4152B034504008545EF10403F03450E
:1029740004006244F2401166130686A98945056184
:102984006F10404E23AEB19A23A0A19C828023A253
:10299400B19C238CA19A8280797106D622D426D246
:1029A4004AD04ECE52CC56CA83A7419B114763935B
:1029B400E70C83C7219B414495CFB284B68903A415
:1029C400419C83C7819B03C7318485C783464400E8
:1029D400639CA602834654006398B602834664004F
:1029E4006394E6020355240093056100EF50F0263A
:1029F4000DE15544B2502285225492540259F249B1
:102A0400624AD24A45618280FD1793F7F70F210489
:102A14006DBF1389019B4C4503550900EF5060407D
:102A2400058961D903550900139A0401135A0A014F
:102A3400014781465286ED45835A0400EF40707C7D
:102A44002AC64D4445D92686CE8523145101231523
:102A5400410197100020E780807B0355090001465F
:102A64002C00EF6000172A8451D5ED452800EF5063
:102A7400001149B709474144E38EE7F62C001305DA
:102A8400504123040100EF50C143834781008DCBA3
:102A9400930500020D45EF20306D930500031145A9
:102AA400EF20906C95450545EF20106C854730006C
:102AB4008545130550302304F100EF6011161DBF46
:102AC4000D39414405BF41114AC03689D44126C25B
:102AD40006C622C403C41600B28403C60600220438
:102AE4000D68518C01CF1308B8A42D456308040761
:102AF400B240224492440249410182809306D8A400
:102B04006300D402930628A2630CD400F57893885A
:102B1400E85CA298C20893D80801854663EC1603C2
:102B240003D5A500BD3E1DC183A7C19B22862244B7
:102B340003A8070083455500B24003454500A68716
:102B44004A879244024985464101028823100900BC
:102B5400014579BF1306B8A46319C40203D861847C
:102B64001D45E37707F93308E84063D307013E883E
:102B7400CC4513160801231009014182BA95268514
:102B840097100020E780A068E1B79307A8A4631812
:102B9400F40091472310F9001146CC45CDB79307B3
:102BA40088906317F40089472310F9000946F5B7A4
:102BB4009307E8A4631AF400DC452310D90083C703
:102BC40007002380F40069B713087890E31204F92E
:102BD400D9BF011122CC06CE26CA4AC82317D10078
:102BE4002D4429EBDC412E89B28403C4170083C62B
:102BF40007008D672204558C9386D7A46306D400FE
:102C0400938627A3631FD4020355A900EFF07FA97D
:102C140019E1014405A083A7C19B03A807008345CC
:102C24005500034545002286A6871307E100814627
:102C340002982A84F24022856244D24442490561C2
:102C440082809386C7A46313D4028357E1000547A7
:102C54003544E391E7FE0345060013040008E3EB63
:102C6400A7FC83A7C19BDC43829765B79386279013
:102C74006315D4068356E1008547EF50C01D2A84AE
:102C840055F98356A90003A7419C83C7819BD1D3DF
:102C940003562700631CD60283A7C19B03A8070021
:102CA40083C71400034547008345570003C7040046
:102CB400A2078946D98F0547639FE7000D66A6875B
:102CC4001307E100130626900298ADB7FD1793F79A
:102CD400F70F21076DBF8D46D5B79387E7A4E31A95
:102CE400F4F28357E10005473544E395E7F40345DF
:102CF400060013040008E3EFA7F2DC452380A700D5
:102D040083A7C19B3335A000DC430905B1BF4165EE
:102D1400411197450020938565087D1506C622C498
:102D240026C24AC0972400209384841CEF60505A22
:102D3400972600209386C62D4146C9452685EF6017
:102D4400504ECC4C2A890945EFF00FED1744002072
:102D54001304C40583D701852312F40083D7A40C7C
:102D640003D7C1842316E4002310F40083D7A40DF1
:102D740003D7A41097450020938545042311F4003C
:102D84000D4585472303F4002314E4002307F400CE
:102D940023150400EFF04FE8A2850D45CD3EB24067
:102DA400224492444A850249410182808D67938777
:102DB400D7A40145631FF6008D472945639BF500A1
:102DC400854735456397F60083470700014523850A
:102DD400F19C82808D679387D7A4631EF6008D478C
:102DE400639BF50083C7A19C2300F70085472390CC
:102DF400F6000145828023900600E5BF01458280EC
:102E040025E303A84500AE8883471800834E0800D5
:102E14000D68A207B3E7D701930EF8A4639AD7030A
:102E240091473548639FF60203A5C80032834111D8
:102E340011469A8506C697100020E780403D054557
:102E440083A7819D8297B2400148428541018280D7
:102E54009308289029486396170185476F40B07FEF
:102E64002D48428582804165411197450020938514
:102E740065F57D1506C6EF60B045B2409726002083
:102E84009386C61F41469945172500201305051949
:102E940041016F60103923ACA19C828001119745D8
:102EA4000020938525F222CC06CE2A84EF40707749
:102EB40005891DCD014781460546ED452285EF4034
:102EC40050342AC615C59727002083D7C71A231460
:102ED400F10085472315F1002300050001462C006D
:102EE4002285EF50104F09C5ED452800EF403049C9
:102EF400F240624405618280C167F917630EF502EE
:102F0400411122C406C685472A84639CF5002285A4
:102F14002244B240974500209385C5EA41016F6081
:102F2400303B89476396F5008545EF80B05865D1FD
:102F3400B2402244410182808280B717004003C717
:102F440077051A0592054D8D1377E70F1365350044
:102F5400A38BE7041375F50FA38CA7048280B7171E
:102F6400004003C777051377E70FA38BE704130724
:102F740000F8A38DE7043D47238CE704130770038F
:102F8400A38CE70482800547B7170040238DE7042C
:102F9400371700408347A705858BEDFF0355C70509
:102FA400520551818280B717004003C7E704930696
:102FB40070052380D7041377C70F0D89930680FA11
:102FC4002380D704498F2387E70423800704828062
:102FD400B717004083D787005D715AD8139507014E
:102FE40086C6A2C4A6C2CAC04EDE52DC56DA5ED67B
:102FF40062D466D26AD06ECE93F7070C130700082A
:10300400014B638CE7161307000441816395E714B1
:10301400B7240D8F7D8993840480B3D4A40291676F
:10302400BE94EF807133BD80972700209387472596
:103034009043D443EF80016AEF809174AA85138C86
:10304400C19D03590C00939C040193DC0C0163158E
:103054000900056913090980B717004013077005B3
:103064002380E704130780FA2380E704371A00401B
:103074000547939D0401896B2389E704D14A014ED6
:103084000147130D0A0413087005130680FA8948D2
:1030940093DD0D01938B0B71294323000D01230054
:1030A400CD0023162A0323000D0083472A05898BAC
:1030B400EDDF83570A0583472A05898BEDFF834794
:1030C4002A05898BEDDF83570A0523102C01C207DB
:1030D400C183338597419319050193D909416384C9
:1030E4000914B386E90263D6060C050E420E135E7C
:1030F4000E0163E0C80D6351070A3307E04042073D
:103104004187C204C1806350370B096513050571FB
:103114003305A702B7170040930670052380D70430
:10312400930680FA2380D704239667032380070439
:103134003345950242054181B640264496440649EA
:10314400F259625AD25A425BB25B225C925C025DD3
:10315400F24D6161828095EBB77489097D8993840E
:103164000480B3C4A4029167BE94EF80F11EBD84B1
:10317400972700209387471165BD85649725002014
:1031840083A50511938434315DBD930500009544F6
:103194007DB54E87368911B7B387FC4093990701F3
:1031A40093D90941B9BF0965130505713385A9028E
:1031B40041B73384B74163E4FC003384FD403304F6
:1031C40074033344B4036345830013150401A5B7A2
:1031D4004E852EC6EF80D14DB245EF80D11EEF80D3
:1031E4001147131E0501135E0E41B306C941C20601
:1031F400C182B245130680FA130870058948294331
:10320400631AD90093061900634430019306F9FF49
:10321400C206C182FD1A93FAFA0F4A8BE39B0AF69F
:103224002310DC005DB7014501BFB717004083D709
:10323400870039715ECE1395070106DE22DC26DA9B
:103244004AD84ED652D456D25AD062CC66CA6AC82C
:103254006EC693F7070C13070008814B6380E714CD
:103264001307000441816399E710B7240D8F7D890A
:1032740093840480B3D4A4029167BE94EF80D10DEB
:10328400BD80972700209387A7FF9043D443EF8006
:103294006144EF80F14E2A8B938DE19D03D90D009B
:1032A400139A0401135A0A016315090005691309E5
:1032B4000980B7170040130770052380E70413073C
:1032C40080FA2380E704939A0401054789692389D6
:1032D400E704514D814C014C93DA0A019389097139
:1032E4004A8597000020E7802068AA873305454176
:1032F4006287131C0501135C0C4123902D01630D9F
:103304000C12B305EC0263D6050C850CC20C93DCDD
:103314000C01894663EF960B6350070A3307E040BC
:1033240042074187C204C180635F870909651305A9
:1033340005713305A702B717004093067005238073
:10334400D704930680FA2380D70423967703238037
:1033540007043345950242054181F2506254D25428
:103364004259B259225A925A025BF24B624CD24CE5
:10337400424DB24D2161828095EBB77489097D89F4
:1033840093840480B3C4A4029167BE94EF80C17C8B
:10339400BD8497270020938727EFC5BD8564172B2D
:1033A4000020032BEBEE93843431FDB5130B0000A6
:1033B4009544DDB53A892DB7B307FA40139C07014C
:1033C400135C0C4185B70965130505713305AC021F
:1033D40049B7338457416364FA003384FA403304B1
:1033E4003403A9473344540363C587001315040108
:1033F400A5B76285EF80D12BDA85EF80C17CEF80A1
:103404001125931C050193DC0C41330799414207B4
:103414004183631AE9001307190063448001130709
:10342400F9FF420741837D1D137DFD0FCA8BE31312
:103434000DF82390ED005DBF014505B74111130E52
:10344400F5FF0143930E407E130F0019930F4006BE
:1034540013081E0042081358080163E30E0D1308F5
:103464000019130E40063378050393783500854E12
:103474000D4FA14FFD4293B81800337EC50363EA94
:10348400BE0C1308F6FF79461A984208135808012F
:103494003307C70213D61700BE0732976146B3F647
:1034A400C60213068070B386C6023697A166F58FEE
:1034B40042075D8FB717004083C6F70293F60608EC
:1034C400A307D1000346F10083C6F7021376F60F73
:1034D40093F60608E312D6FE8346F10093F6F60F40
:1034E400E1DE930670052380D704930680FA2380D7
:1034F400D70423AA070383C6170393E606F893F6B3
:10350400F60FA388D702D8DB03C717031377F70F87
:1035140013670704A388E70223800704410182801C
:10352400B368EE031308E016638E0800B368FE0365
:103534001308D0166388080093783E0013B8180067
:103544001308D8161A9813130801135303017D1E88
:1035540001B76393E503054563060800014563036A
:103564000E00468571051A95FD1513130501C20554
:1035740013530301C18121B713F5150063F4BF0090
:103584007905D5B73385A24042054181E9BF91470A
:1035940063EAB70217A701001307070A8A05BA9559
:1035A4009C41BA978287B717004093870708D85B76
:1035B4001345F5FF698FD8DB985B698F98DB9853C7
:1035C400798D88D38280B717004093870708D45B2E
:1035D4001347F5FFF98ED4DB945B558D88DB945348
:1035E400758F98D38280B717004093870708D85BFC
:1035F400498FD8DB985B1345F5FFC1B7B717004077
:1036040093870708D45B1347F5FF758FD8DB98536E
:10361400598D45BFB717004093870708D85B498F7A
:10362400F5B7914763EAB70217A70100130707022A
:103634008A05BA959C41BA978287B7170040938749
:103644000708F84B1345F5FF698FF8CBB84B698F22
:10365400B8CBB843798DA8C38280B717004093874D
:103664000708F44B1347F5FFF98EF4CBB44B558D93
:10367400A8CBB443758FB8C38280B7170040938733
:103684000708F84B498FF8CBB84B1345F5FFC1B782
:10369400B717004093870708F44B1347F5FF758F5E
:1036A400F8CBB843598D45BFB71700409387070837
:1036B400F84B498FF5B79357E50093F70730C98F57
:1036C400C2070947C1836384E5066364B70213C66E
:1036D400F7FF9DEDB716004003D766094207418303
:1036E400718F239BE60803A7C60C598D23A6A60C4D
:1036F40021A00D476385E504B7160040239FF60813
:1037040003D7260942074183D98F2399F60882807B
:10371400B716004003D7660942074183718F239B84
:10372400E60803A7860C598D23A4A60CF1B7B71697
:10373400004003D76609420741835D8F5DB7B71622
:10374400004003D76609420741835D8FC9BFB7179D
:103754000040130770052380E704130780FA2380D1
:10376400E704D84701E9D98DCCC7B71700402380B7
:103774000704828093C5F5FFF98DFDB70DE9B717EE
:103784000040130770052380E704130780FA2380A1
:10379400E70403C7E70093C5F5FF1377F70FF98D27
:1037A4002387B700B71700402380070482808D4722
:1037B4009306000C63E7C7009387C1923E96834645
:1037C4000600B7170040130770052380E7041307AA
:1037D40080FA2380E70403C7E7001377F7032387FE
:1037E400E70003C7E7001377F70FD98DD58D4DBFD9
:1037F400B717004083D787001395070193F7070491
:10380400418191EB9377F5013755E8011305058064
:103814003345F50282809377050C13070004639700
:10382400E7009377F50137459C1CCDB72165130557
:1038340005D08280B7F700E0C8439C478280328578
:103844008147B7360040214663C3A700828003C77F
:10385400B6401377F70FE30CC7FE3387F500034731
:10386400070085072384E640C5B7411122C406C674
:103874002A84BD3F2947B307E502B2408D83B3D7FD
:10388400870222449507B3D7E70237370040C207BF
:10389400C1832316F74041018280716541111305EC
:1038A400052006C6D937B7370040130770F82381BF
:1038B400E7400D47A381E74013070004A380E740D6
:1038C40005472387E740B2404101828023AC05FECF
:1038D4001C4191E7010001000CC18280BA8703A753
:1038E40087FF6DFF23ACB7FE82801DC18346E5FFD1
:1038F4001307F00F9147639EE600411106C6971027
:103904000020E780E033B24081473E854101828058
:1039140095473E85828001E9014582800145B24098
:10392400224441018280411122C42A842105420596
:103934009305D004418106C697100020E780A02695
:1039440071DDFD5723200500231285002303F500B4
:103954002105F1B71387019E1C43411122C426C2DD
:103964004AC006C601440149BA8489E7A1658D2588
:103974000DC401A803C7E7FF6318A7021DC8A1650A
:10398400F92E9840832784FF6317E40223A0F19E55
:10399400FD57232C04FE230FF4FE2285B24022445B
:1039A400924402494101828011E03E8983A787FF46
:1039B4006DBF3E84E5BF232CF9FED9BFA9C94111CF
:1039C40022C406C62A849737002083C777442E85ED
:1039D4006368F400193F0D45B240224441018280DE
:1039E40083A785FF99E703C7E5FF9307F00F6305F6
:1039F400F700E53D1545CDB7238F85FE1385019E60
:103A0400F13522852244B240A165410189AE1545B4
:103A1400828023A0019E82809387419F9C4399E3E7
:103A24003E85828003D727006316B70003C70700CB
:103A3400E308A7FEDC47E5B74111939705014AC0A7
:103A440006C622C426C2C1872E8963DE0700193741
:103A540011C1613D21653345A900B240224492441D
:103A6400024941018280AA860145E5D901443D47C6
:103A7400B3578940858B95CB9387C19E8443BD47BB
:103A840091E28147A2978E070545BE9433158500C0
:103A9400131405019C40C8404180829723A0040070
:103AA40023A20400334524014DBF0504E312E4FCC2
:103AB4000144CDBF973700209387C7319C534111F0
:103AC40022C406C61384418595C7829723AAA1847C
:103AD4000840B74703009387D73F3305F502B7A7DC
:103AE4002600938737ECB24022443E9523AAA18452
:103AF40041018280973700209387873118409C4B7F
:103B0400BA9723AAF184E9B79387419E90439736E5
:103B1400002083C6F62F814713F7F70F6361D70A96
:103B24001737002003477744914763E1E70A973743
:103B3400002083C72748918BD1EB0111680006CE82
:103B440022CC26CAEFB070597D576308E50EB24700
:103B540017340020034434296374F40C973700208D
:103B64009387072BC4479737002083C7E7276386CB
:103B7400E406858BA9CFD147B384F4026372940A17
:103B840097100020E780208EB24763F3F400A687E5
:103B94001734002003443425818F3384A7009737DA
:103BA4000020938727238387470163CE0702B70743
:103BB400C0A8636AF402B70740573E942DA0850756
:103BC4001397170032970357E7FF39D7828093077B
:103BD4009002B384F402858055B7E207E18763D687
:103BE40007043304854003D5A19E97000020E78095
:103BF400006019E03704C0A8973700209387871D19
:103C0400DC532285829709ED973700209387873507
:103C14009C4F99C7EF007112EF00D16AEF00510673
:103C2400F2406244D24405618280E37C85FAB7079E
:103C3400C0A8338487402A947DB7973700209387A0
:103C4400271DDC47E38EA7FC1737002013078718CE
:103C540083464701BA84858A9DC6514433848702CA
:103C64009737002083C73718E3FC87FA97000020B2
:103C7400E780607F9737002083C7F7161D8C2A944E
:103C8400838744011DB7130490023384870205809F
:103C9400C1BF2A9609E582800505A30FB5FEE31D81
:103CA400C5FED5BF81473307F5000307070019E3B5
:103CB4003E8582808507C5BF01112E8626CAAA8447
:103CC400131506019305F004418122CC06CE32C6B9
:103CD40097100020E78020ED2A8419C53246A68576
:103CE40097000020E780A0522285F2406244D2442B
:103CF4000561828081476314F6000545828033079D
:103D0400F5008507B386F5000347070083C6F6FF71
:103D1400E383E6FE014582809307F6FFBE952A966B
:103D24006313C5008280FD1583C715000505A30F25
:103D3400F5FEFDB7814711E9014582803307F5009F
:103D440003470700E31AB7FE8507E319F6FE0545A6
:103D54008280973700209387A70B884B8280973700
:103D6400002083C7F70A637FF5001387419E9317EA
:103D7400150008433E9583570500DD8D2310B500DB
:103D8400014582800D458280FD57011117370020BF
:103D94002326F7089387419F22CC804326CA4AC82A
:103DA4004EC652C406CE56C22A8981449739002091
:103DB40093894902173A0020130A8A051844814757
:103DC4006374E900B307274103A749021CC409CB64
:103DD4000327CA0063F6E700173700202320F704FF
:103DE400A1E3835524009DE55C44A1E423AAF19E4C
:103DF400832AC400228597100020E78060E456845B
:103E040055FCF2406244D2444249B249224A924AA1
:103E1400056182800345040099375C4081CB1CC452
:103E240083572400F1D3A2844044D9BF1C44CDDF7E
:103E3400C5BFDCC475BF9737002083C777FD6371A6
:103E4400F5021387419E93171500084393C5F5FFA8
:103E54003E9583570500FD8D2310B50001458280F2
:103E64000D4582809737002083C797FA6364F50075
:103E740001458280411122C426C24AC006C62A8452
:103E84002E89B284EFF05FB901C504C505452DA0A4
:103E9400936504F0C205C181414597100020E78075
:103EA40080D00DE1973700209387C7F29C5B81C7D0
:103EB400A285114582970145B240224492440249A9
:103EC400410182809387419F9C438DE323AAA19E55
:103ED40085472326050004C52311250123008500F9
:103EE400A300F5002322050055B7BA87D84775FF0C
:103EF400C8C7F9BF45C539715AD0138BC19E22DC9E
:103F040026DA4AD84ED652D45ECE66CA6AC86EC67F
:103F140006DE56D262CC3689328AAE89AA8401443E
:103F24005A8DB94D854BF94C03270B00131C3400F3
:103F3400937AF40F62971C43A9EF13B5FA00134563
:103F44001500B3978B0063F65D01930714FFB397D5
:103F5400FB0093950701C181528629371DC9832728
:103F64000D000145E29784C323A2370163040900CD
:103F740023005901F2506254D2544259B259225A80
:103F8400925A025BF24B624CD24C424DB24D2161CB
:103F940082800504E31A94F92145E9BF094582802A
:103FA400411122C426C24AC006C6AA842E8932847C
:103FB400553DCA852685EFF03FA609C940C1014594
:103FC400B240224492440249410182802145CDBF3E
:103FD400411122C426C24AC006C6AA842E89EFF023
:103FE400BFA32A8419C123110500CA852685A135DA
:103FF400014511E01945B24022449244024941016D
:1040040082807547636BA7041387C19E14434111D3
:1040140026C293143500A696944222C406C6AA87E3
:104024003A84094595C613B5F70039471345150079
:104034006373F700C5178545B395F500C205C181C3
:10404400413F1C400145A69723A0070023A2070077
:10405400B240224492444101828009458280411148
:1040640006C6EFF07F9B09C50845B2404101828036
:104074000145E5BFF54763EDA7049387C19E9C43C3
:1040840013173500BA979843894721C7011126CAE7
:1040940006CE9334F50022CCB94793C4140063F3DD
:1040A400A700451505443314A400420441802EC6DC
:1040B4002685A2856D378947324609C5A28526859E
:1040C40055338147F2406244D2443E850561828083
:1040D40089473E8582802394A19E2395B19E828048
:1040E400411106C623A8A19E0295B240973700202D
:1040F40023AAA7D2014541018280994763E9B70009
:104104008A05973700209387A7D2BE9588C18280FD
:10411400411106C622C426C2EF50E15C71468145B6
:10412400173500201305C5D0EFF0BFB617340020B3
:10413400130404CE1306000222858145EFF07FB5F7
:1041440023AA019E23A8019E9737002083C747CA4C
:1041540013D527008D8B3E958D473305F50299477E
:10416400930510109384819F35051375F50F230172
:10417400A4003305F5021305050F97100020E7800E
:1041840080A223A6A19E834724001305050F88C09F
:104194008A073E9523A2A19EEFF0BF87A1268347FD
:1041A40014009840170600001306468993962700CA
:1041B400BA9690C293862700850793F7F70FA3005A
:1041C400D400B24022448A07BA9790C39244410172
:1041D40082809737002083C7B7C31737002003476F
:1041E40047C363F1E7021387819F1843938617003F
:1041F40017360020A30ED6C093962700369708C31F
:104204003E8582809307F00FE5BF1C416387071446
:1042140041777D8FB706002089476311D714035770
:104224004500630D0712411122C419462A849305DF
:10423400F00F590506C6EFF0FFAF05478D47630938
:10424400E5101306C003814517350020130585B812
:10425400EFF03FA41306C003A28517350020130511
:1042640065B797000020E78080FA173700200357CE
:1042740027B7973700209387E7B519E7130700207E
:1042840097360020239EE6B417370020034767B50E
:1042940011E70547973600202385E6B41737002039
:1042A400034737B411E76D4797360020A38BE6B276
:1042B40017370020034707B311E715479736002047
:1042C4002382E6B2173700200347D7B111E7054729
:1042D40097360020A388E6B0173700200347D7B0ED
:1042E40019E703C7070197360020A38FE6AE1737F7
:1042F4000020034747AF11E7514797360020238436
:10430400E6AE173700200347C7AE19E7130780024C
:1043140097360020238FE6AC173700200347B7AC4D
:1043240019E71307D00297360020A38EE6AA0347A5
:10433400D40111E7094797360020A38BE6AA9C57BE
:1043440091C78297973700202397A7ACD133814731
:10435400B24022443E854101828089473E85828065
:10436400011122CC06CE2A842EC6EFF0AFF4B2455A
:10437400F240818D33A5A502229562441375F50F91
:1043840005618280011122CC06CE2A842EC6EFF06C
:104394006FF2B245F240818D33A5A50222956244A5
:1043A4004205418105618280011122CC06CE2A8416
:1043B4002EC6EFF02FF0B245F240818D33B5A50241
:1043C400229562440561828097370020938787A0F5
:1043D400985725C3411122C426C206C6BE8402973B
:1043E40017370020035727A32A8441C7BA8763736A
:1043F400A700AA87C207C183BA866373E400A286B2
:10440400C206C182958F51476355F706DC5491C3A8
:104414008297854717370020230AF7B4EF00C15667
:10442400973700202399879EB24022449244410149
:1044340082809737002083C767B39DE797370020B2
:10444400938747B283C79700850793F7F70F17370A
:104454000020A30DF7B0A18B9DC785471737002017
:104464002316F7B06F00015897370020A38007B0D8
:10447400D5BF9737002083C767AFDDD72244B2404A
:1044840092444101C5B7828097370020938787946F
:10449400D857011122CC06CE3E8401C72AC6029702
:1044A400324509CD23AEA19E17050020130525FD35
:1044B4000539F24062440145056182808307440165
:1044C40063DD07009737002023A007969707002095
:1044D400938787F523AEF19EC1BF9707002093878A
:1044E40087F8CDBF011122CC173400201304848E29
:1044F400084406CE26CA19E50545F2406244D24472
:10450400056182805C58EDDB185C7DD770008545C1
:1045140082971844B247E301F7FE8357C400173566
:1045240000200345058C9305E0043305F502973418
:1045340000209384E48D4205418197000020E780A8
:104544008066173700202323A78E5DD59737002078
:1045540083D70789173600200346A6883306F60258
:104564009305F00FEFF0EFF2D04C0844973700209A
:1045740083D7078708C29735002083C58586B3850E
:10458400F5021C5C89818297C84C97000020E78063
:10459400206B01459737002023AA0788B9BF411132
:1045A40022C4173400201304E4821C4426C206C625
:1045B400973400209384C485ADCB1C5CBDC7DC4C10
:1045C4008DE78357C4001735002003458581930583
:1045D400E0043305F5024205418197000020E7809D
:1045E400805C9737002023A3A784C84C1DCD972750
:1045F400002083D7E77E172600200346867E3306F5
:10460400F6029305F00FEFF0CFE8D04C084497275B
:10461400002083D7E77C08C29725002083C5657CEA
:10462400B385F5021C5C89818297C84C09C997003F
:104634000020E780E0609727002023A9077EB2408E
:1046440022449244014541018280011126CA9724E3
:1046540000209384E47B22CCC04C4EC652C456C284
:1046640006CE4AC8AA8AAE89328A31EC17290020BC
:10467400130949768327890099E3A94471A08357D4
:10468400C900172500200345C5759305E0043305CB
:10469400F5024205418197000020E780C0502A843A
:1046A40041C583274903C9C39725002083C5657382
:1046B400172700200357C772B385E5022A8603250E
:1046C40089008981829791451307A0058981939771
:1046D4002500A29783C607006395E60483C61700E6
:1046E400639E560385058A054E86A29552859700DA
:1046F4000020E780C0B1DC4C8144638787002285B9
:1047040097000020E780C053F24062442685424966
:10471400D244B249224A924A0561828083D5270055
:1047240075B7DC4CE38B87F4228597000020E78083
:104734002051A1B7972700209387C769984729CBB1
:104744009C5FB9C785466315D504411122C417245B
:1047540000201304E46B504C06C61DC697260020A7
:1047640083D606689725002083C5A567B385D5023F
:104774003A8589818297484C97000020E780404C15
:104784009727002023A4076AB24022444101828073
:104794008280972700209387A767D84F011122CCE6
:1047A40026CA4AC852C406CE4EC62A89AE8432846A
:1047B4003E8A35E7972900209389C96183D7C900C8
:1047C400172500200345E5619305E0043305F50250
:1047D4004205418197000020E780E03C97270020B4
:1047E40023A6A7642A8611E92945F2406244D244EB
:1047F4004249B249224A0561828003A5890005C164
:1048040083A7490389CF9725002083C5855D172792
:1048140000200357E75CB385E5028981829703256D
:10482400CA0191461308A005FD5593D72600C20777
:10483400C183139727002A9703460700631B0603C7
:10484400834817000356270063932803B306D64012
:1048540063CD960085078A073E952686A285970034
:104864000020E780C09A014549B7A300B700B2868B
:104874006DBF172600200356A6569725002083C532
:104884004556B385C502338696001106E3EEC5F49A
:1048940013863400719A1106B29623000701A3000F
:1048A40027012311D7007DB7972700209387475608
:1048B400D44F8DCE91471306A0059305F00F89833D
:1048C4008A07B69703D7270003C5070009830A0799
:1048D4003697631DC500034517006316B5000357DB
:1048E40027002391E70083D72700D1BF01458280A9
:1048F400011106CE2EC6EF70202B01C9B245F2403D
:104904000355250005616FA0E04BF2404945056160
:104914008280A38401A2238401A223A801A023AA44
:1049240001A023AC01A023AE01A023A601A023A4CF
:1049340001A097270020938767513707B40098C3D5
:104944003747A000D8C3370710009306070A94C757
:10495400B7065000C106D4C7930607054107D8CB54
:104964003707D007410798CF37070F0098D337C7C9
:104974000700130707B8D8D3416794CB9306070100
:10498400130717F8D8D7417723AE070094D798DBDD
:104994008280011126CAAA84214522CC06CE2E8407
:1049A40032C636C43AC2EFE01FF71DC9A246124709
:1049B4003246930700FD2300F5009947A3009500B4
:1049C4002301F5002303D500A303E5002312C5004A
:1049D400AA8522856244F240D24405616FE01FFE3D
:1049E400F2406244D2440561828023A8A1A082805F
:1049F40023AAA1A0828023ACA1A0828023AEA1A07F
:104A04008280011122CC4AC806CE26CA2A890144D2
:104A1400B30489006368B400F2406244D24442495A
:104A2400056182802EC6EFF0EF8893170501C183DC
:104A3400A183B2452380F4009307140093F7F70F82
:104A4400850463F9B700CA9709042380A700137487
:104A5400F40F7DBF3E847DBFC16717250020035539
:104A64008542FD176302F502411103C641AB9385EC
:104A740001A206C6EF60107DB240FD571727002043
:104A84002313F74041018280828009C925151375DB
:104A9400F50F1335850E134515008280014582807C
:104AA40023800500F94763E2C708797122D426D22E
:104AB4004ECE56CA5AC806D64AD052CC5EC63684A2
:104AC400B289AE8A2A8B814463FF3405B30794000C
:104AD40003CA0700138914001379F90F63050A0444
:104AE400B3072A0163C1F904B307240183CB070088
:104AF4005E85613F0DC99307FAFF2380FA00639036
:104B04006B03130519002295B25022549254025992
:104B1400F249624AD24A424BB24B45618280D294F6
:104B240093F4F40F55B70145C5B70145828041118F
:104B340026C2AE8422C49727002023ADC73497270A
:104B4400002023A7B7349727002023A1A7342A8461
:104B540041469305F00F26854AC006C60549EFF085
:104B64006F9D631E25039727002093876731884B29
:104B7400C145413D41469305F00F2285EFF08F9BDF
:104B84008544631695022244972700209387472F74
:104B9400B24092440249C847C14541019DB54146CE
:104BA40081452685EFF00F99E31625FD6DBF41463B
:104BB40081452285EFF00F98E30795FCB24022442B
:104BC4009244024941018280411122C426C22E84AA
:104BD400AA84130600028145172500201305452ADF
:104BE40006C6EFF00F8B97270020A38C9728A38B82
:104BF40081AAEFA0A01E854719C181474945B2404B
:104C0400224417270020230DF72692444101828075
:104C1400814781CD19C98547631BF50083C75500BA
:104C240093E707FCA382F50085473E858280894788
:104C34006317F50083C7550093F7F703E5B70D47EE
:104C44008547E314E5FE03C755001377F70313679D
:104C54000704A382E500D1BF81478DC105C103C705
:104C640055009306000C85471377070C6308D7009B
:104C7400930600048D476303D70089473E858280ED
:104C8400411122C4005D06C626C21DC8AA8408506C
:104C940009C597000020E780A0FA485009C597008D
:104CA4000020E780E0F9085409C597000020E78058
:104CB40020F9228597000020E78080F823AC0402C5
:104CC400B240224492444101828009ED972700209A
:104CD40083C7271B172500201305051C81CB1385CB
:104CE40001A08280172500201305051B828017254B
:104CF40000200345051982809727002093874718D1
:104D0400C84782809727002093878717884B828023
:104D1400972700209387C716DC4B88438280972708
:104D240000209387E715D84B1C4385071CC3172520
:104D34000020034515159307F00F6305F5009165F1
:104D44006FF0EF818280011122CC06CE2E8432C610
:104D5400EF60D0749147B245631FF5009387C1A1FA
:104D64009C438DC303A30700630E030022856244A2
:104D7400F24005610283938741A19C4381C703A349
:104D84004700DDB7F24062440545056182800111A8
:104D940022CC2A840355450006CE26CA4AC84EC6EC
:104DA400EF60105835C52A89834405008349C5003E
:104DB400C13D4A85EF70104803554400EF60906987
:104DC40083C781A2B1CB6399970483C591A2268539
:104DD400EFF01FB219E1238401A203554400EF60F0
:104DE400F06B9147631FF500035744009727002099
:104DF40083D767096317F700FD571727002023148B
:104E0400F708F2406244D2444249B24905618280C3
:104E140081499304F00F6DB79307F00FE38FF4FA11
:104E24008346640003564400034524004E87A68548
:104E3400EFF03FB65DB779715EC6AA8B2E8552CC72
:104E440056CA5AC806D622D426D24AD04ECEAE8AE4
:104E5400328B368AEF60D04C6DC1045D2A89F1CC67
:104E64009C50614599C3130540039C5481C7510567
:104E74004205418163050A00710542054181DC5008
:104E840081C7590542054181EFE0FFA82A8455C531
:104E940061468145EFE0FFDF9729002083C909FEC1
:104EA4006394090083490900930700FD2300F4007B
:104EB400A947A30074012301F400230364018C5067
:104EC400231254011305840191C908C47146930A3D
:104ED400440397F0FF1FE780803356858C5491C9B3
:104EE40048C45146930A450197F0FF1FE7802032DA
:104EF4005685630C0A0008C87146D285930AC50119
:104F040097F0FF1FE780A0305685CC5099C548C85C
:104F1400594697F0FF1FE780802FA2854E85EFE06A
:104F2400FFA92254B2509254F249624AD24A424BE7
:104F3400B24B4A8502594561A1B3B25022549254EE
:104F44000259F249624AD24A424BB24B45618280CD
:104F540001114EC6AA892E854AC806CE22CC26CA7D
:104F64002E89EF60F03B31C59724002083C404F1FF
:104F740099E0834405001945EFE0FF992A8415C997
:104F840081451946EFE0FFD0930700FD2300F400AC
:104F9400B947A30034012301F40023122401A2859C
:104FA4006244F2404249B2492685D24405616FE029
:104FB400FFA0F2406244D2444249B2490561828072
:104FC40039715ECEAA8B2E8526DA4ED652D456D2AD
:104FD4005AD006DE22DC4AD8AE84328BB68A3A8AAC
:104FE400BE8942C6EF60D03331C92A894145EFE01A
:104FF4009F922A8421C541468145EFE09FC9172528
:1050040000200345A5E719E103450900930700FDC6
:105014002300F400BD472301F400B247A300740148
:105024002312940023046401A304540123054401BE
:10503400A30534015CC4A285EFE05F98F25062548A
:10504400D2544259B259225A925A025BF24B21610C
:105054008280797126D2AA8439454AD04ECE06D6AA
:1050640022D42EC6B2893689EFE0FF8A21C1B24527
:105074009307000D2310F500B1472A842312B500CD
:105084002301F500CE851905194697F0FF1FE78027
:10509400001823062401A2852254B2500259F24971
:1050A40013F5F40F925445616FE05F91B2502254AE
:1050B40092540259F2494561828017270020034720
:1050C40057DC9307F00F630DF706411126C2AA843B
:1050D400394522C406C64AC0EFE0FF832A8439C991
:1050E400930700FD2300F500A300950023010500AC
:1050F40097250020938545DA0D05194697F0FF1F83
:10510400E780E01017290020130989D78357890005
:10511400A285172500200345D5D62315F40083471F
:1051240019002306F4002244B2409244024941018A
:105134006FE0DF88B24022449244024941018280F8
:105144008280011156C2AA8A314526CA4AC84EC66F
:1051540052C406CE22CCAE84328AB6893A89EFE0B4
:105164008FFB29C92A842685EF60901B1DCD03453A
:105174000500930700FD2300F4009D47A30054019C
:105184002301F40023129400231344012314340153
:1051940023152401A2856244F240D2444249B24913
:1051A400224A924A05616FE07F811725002003455A
:1051B40055CDC1B7F2406244D2444249B249224A71
:1051C400924A05618280397162CC2A8C594526DA6B
:1051D4004AD84ED652D456D25AD05ECE06DE22DCFF
:1051E400AE8432C636C4BA8B3E8BC28A468A835991
:1051F400010403494104EFE00FF235C53246930739
:1052040000FDA2462300F5009547A301C500A300B5
:1052140085012301F5002A8419461105A9C2B68522
:1052240097F0FF1FE780A0FE23066401230A2401F0
:10523400231574012317540123184401231934013D
:10524400A2856254F2504259B259225A925A025BD0
:10525400F24B624C2685D25421616FE02FF68145D2
:10526400EFE03FA3D1B7F2506254D2544259B2593D
:10527400225A925A025BF24B624C21618280972738
:10528400002083C707C08DCB4111AA851946138519
:1052940001A006C697F0FF1FE78060F7938501A081
:1052A400172500200345E5BDEFF09F96B240138516
:1052B40001A041016F90103301458280411106C65F
:1052C40022C426C2172700200347B7BB9307F00F59
:1052D4006308F704AA842945EFE0EFE32A8429C18F
:1052E400930700FD2300F500A1472301F500A30067
:1052F4009500972700209387A7B883C72700938535
:1053040001A01105A30FF5FE194697F0FF1FE780D2
:1053140000F0A285172500200345B5B6EFE00FEA9B
:1053240017270020034707B685476315F7029387BD
:1053340081A19C4381C79C4791C382972244B24078
:1053440092445D6603C541AB130606709145410165
:105354006FE01FC5B24022449244410182807971BA
:1053640022D406D626D24AD04ECE52CC094445C9C0
:105374002A89035505002E8A5144EF60607AAA8475
:1053840059CD83C771ABFD1793F7F70F0547494410
:105394006377F7080347C500A1476314F700631058
:1053A4000A089C5C4544A5EF9165938545711305F6
:1053B400C00297F0FF1FE780007F88DCAA894D4474
:1053C40039CD1306C0028145EFE0BF8C8357090035
:1053D4009386490036852391F90071469305490067
:1053E40036C697F0FF1FE78080E289472380F900E3
:1053F40003C5C400B24603560900611583C541AB19
:1054040013351500EF80907D2A8463060A00D28547
:105414002685EF70500D01C42685EFF07F86228526
:10542400B250225492540259F249624A4561828030
:1054340083C771ABFD1793F7F70F05476378F70838
:10544400894751C6011122CC26CA4AC84EC652C445
:1054540006CEAA89368AB2842E89EF60606C2A84CB
:10546400D14729C9485509C597F0FF1FE780407DFA
:10547400F1452685EFE05F8448D4CD4705CD8346CA
:10548400C40021478147639FE600630D0A00034778
:10549400A5010356050193062501AA854E85EF60F3
:1054A400707CAA8703474400630F090013676700F1
:1054B4002302E400F2406244D2444249B249224AFF
:1054C4003E850561828013674700DDB7C9473E8585
:1054D4008280E14763EBA700972700209387079713
:1054E40006053E9503550500828041657D15828041
:1054F400011122CC2A842E8526CA06CEAE84EF6002
:1055040020620DCDB7470F009387F723094563E267
:10551400870281450A854146EFE0AFF7A68523104F
:1055240081000A85418023018100A3010100EF80ED
:10553400504DF2406244D244056182804945D5BF52
:10554400A38AA1AA82806F803062797152CC2A8AA0
:10555400328522D426D24AD04ECE56CA5AC85EC606
:1055640006D662C4AE8BB28A368BBA843E89C289AF
:105574004684EF60E05A15C92A8C63140A02137733
:105584004B008347450015CF93E727012302FC0016
:105594008DEC631C0902639A090205E8ED9B230262
:1055A400FC00832B8C03639F0B06B250225492544D
:1055B4000259F249624AD24A424BB24B224C4561EB
:1055C4008280F59B93E70701D1B793E74700230255
:1055D400FC0001CC1C484146A2852324FC0213058F
:1055E4008C0197F0FF1FE78080C263910B02D5D82E
:1055F4000325CC0209C597F0FF1FE7806064F145DD
:105604002685EFE06FEB2326AC0261BFE30B09F8BC
:105614000325CC0209C597F0FF1FE7806062F145BE
:105624004A85C5B79DC483A70B0299EB9165938501
:105634003571714597F0FF1FE780E05623A0AB0258
:1056440003A50B0219C57146A68597F0FF1FE780D5
:1056540000BC6388090283A74B0299EB916593858B
:105664002571594597F0FF1FE780E05323A2AB0251
:1056740003A54B0219C55946CE8597F0FF1FE78055
:1056840000B91DC483A78B0299EB916593851571AD
:10569400514597F0FF1FE780005123A4AB0203A5F7
:1056A4008B0219C55146A28597F0FF1FE78020B6EB
:1056B4002254B2509254F249B24B224CCA865A86B2
:1056C4000259424BD6855285D24A624A45616FF0EF
:1056D4008FF6011126CA52C406CE22CC4AC84EC641
:1056E4002A8AAE84EF60C04325C5AA893945EFE014
:1056F4008FA22A8431CD1719002003492978631415
:10570400090003C909009307000D2310F400AD47F5
:105714002301F4009385690013053400194697F0BA
:10572400FF1FE780C0AE93F71400858085882306A9
:10573400F400A306940023154401A2856244F240B8
:10574400D244B249224A4A85424905616FE00FA713
:10575400F2406244D2444249B249224A05618280FD
:10576400938781A0884301CD411106C697F0FF1F9E
:10577400E780004DB24023A401A0410182808280D1
:10578400011106CE22CC26CA4AC82EC6EF60403983
:1057940039CDB245171900200349496EAA840CD5A6
:1057A40063140900034905004145EFE0CF962A84BC
:1057B4001DCD9307000D2310F500A5472301F50027
:1057C40083C75400938564001105A30FF5FE1946A1
:1057D40097F0FF1FE780A0A39C54A285F2405CC40D
:1057E4006244D2444A85424905616FE02F9DF240EC
:1057F4006244D244424905618280797122D406D63A
:105804002A842EC6EF60C0310DCD8346C5001147F2
:10581400AA8749456393E6029C5FB24599C383C551
:1058240067010808EF702055978600009386A6DA72
:10583400100889452285EF60B047B2502254456173
:1058440082805145DDBF83C771ABFD1793F7F70F16
:105854000547637AF704894721CA411122C426C245
:105864004AC006C6B2842E89EF60802B2A84D147B1
:1058740005C5630809008347450093E72700230211
:10588400F5004146A6851305840197F0FF1FE780C4
:1058940000989C481CD48147B24022449244024957
:1058A4003E8541018280C9473E858280797122D438
:1058B40006D62A842EC6EF60A02601CDB2452285E5
:1058C400230EB1006C08EF70803EB2502254456143
:1058D40082805145DDBF6F602032C1671387E7FFC7
:1058E4006394E502938741A19C4391EB49458280EF
:1058F4004945B2402244924402494101828003A3B3
:105904000700E30503FE0283411122C426C24AC0F4
:1059140006C6FD172A892E84B2846395F5029387FF
:1059240041A19C4391CB9C4381CB829711E5238475
:1059340021A3A38491A275BFA6854A85EFE05FFBEE
:105944004DF9F5B72E85EF60A01D5DD183470500A5
:105954000D45E39027FB22852244B2400249A685E7
:10596400924441016F900046E14763E8A704416710
:105974007D1789476384E504411122C426C206C603
:10598400C547AE842A84631AF5001305C003338522
:10599400A50242054181EF90604A131514001714C3
:1059A40000201304A44A2295B240224423109500F7
:1059B400814792443E854101828089473E858280A9
:1059C400011106CE2AC6EFE0DFF4EF00107FEF00EE
:1059D400A072EF30D10B3245971700209387474AC6
:1059E400130700F02391E700238207007D57938774
:1059F40041ABA380E7002380A700F24095450561F1
:105A04006F4050345D7193970501CAC086C6A2C425
:105A1400A6C24EDE52DC56DA5AD85ED662D466D2BC
:105A24006AD0C1872E8963D0074C03C541ABEFD040
:105A34007FF28964416A856A797B2A84938BD400D6
:105A44007D1AA50A691B15E021653345A900B640F6
:105A5400264496440649F259625AD25A425BB25BD2
:105A6400225C925C025D61618280834704001307BB
:105A7400200A639DE70003552400171C0020034CF3
:105A84005C402286D285EFF00FAC3DAA13071009C3
:105A940003CC51AB6397E716834714001547639E05
:105AA400E7002285EFF0AFAE2285EFD01FE403C5F7
:105AB40041ABEFD03FEA2A8479B739476399E716B7
:105AC40003554400631B55050C4483C90500639DBD
:105AD4000900850591C91946171500201305C53B12
