:040000006F10004D30
:1000040000000000000000006F0080086F004057EF
:1000140000000000000000000000000000000000DC
:1000240000000000000000000000000000000000CC
:100034006F004006000000006F00E00500000000B3
:100044006F0080056F0040086F00E00C6F00200512
:100054006F0000056F00E0046F0040060000000020
:100064006F0060046F0040046F0020046F00000400
:100074006F00E00F6F00C003000000006F0060031A
:100084006F0040036F0020036F0000036F00E00265
:1000940001A001A001A001A001A001A001A001A054
:1000A40001A001A001A001A001A001A001A001A044
:1000B40001A001A001A001A001A001A097E0FFDF21
:1000C400E780A0E473002030B717004083D7C70946
:1000D40013972701635A07029387818F9C438507EF
:1000E40023ACF18E9387018F9C4323A6F18C971048
:1000F40000E0E780C0AB23A8A18EB71700407D576E
:10010400239EE708730020309387018C9C43850766
:1001140023A0F18CC1BFB717004083D7E709C207FA
:10012400C18763DA07029387018D9C43850723A85F
:10013400F18C9387C18E9C4323A4F18C971000E02B
:10014400E780E0A623A6A18EB71700407D57239F22
:10015400E708730020309387418F9C43850723AAC7
:10016400F18EC1BF411106C6EF00F00CF5BFB71701
:100174000040130700032388E702854723A2F19078
:1001840073002030B7170040130770052380E7047D
:10019400130780FA2380E7042396A7022380070429
:1001A4003717004083472705898BEDDF8357070501
:1001B4003717004083472705898BEDFF3717004029
:1001C40083472705898BEDDF03550705828041119D
:1001D400814601468145114506C6F921B7270040ED
:1001E40011472383E780B7F700E003A707D16D9B8E
:1001F40023A8E7D003A707D15D9B23A8E7D073000A
:10020400501001000100B240410182804111814639
:1002140001468145114506C64129B72700401147CB
:100224002383E780B717004003C7E70283C6E704C8
:1002340083D7870311661377F70F93E6360063E5D8
:10024400C700719B13671700B7170040930570052B
:100254002380B704130680FA2380C704238207028D
:100264002387E7022387D70403C7B704136707026A
:10027400A385E7042380070437F700E0832607D12A
:1002840093E646002328D7D0832607D1DD9A232876
:10029400D7D073005010010001002380B7042380DD
:1002A400C70403C7B7041377F70DA385E7042380B6
:1002B4000704B24041018280411122C48146814534
:1002C4002A840146114506C6C526B72700401147B2
:1002D4002383E780B717004003C7E70283C5E70419
:1002E40083D7870391661377F70F93E5350063E5AA
:1002F400D700719B13671700B717004013067005EA
:100304002380C704930680FA2380D704238207023C
:100314002387E7022387B7042380070437F700E025
:10032400832507D193E545002328B7D02380C7044C
:100334002380D70483C5F70093E50504A387B7009A
:1003440083C5B70493E50502A385B704E575910554
:100354004D8C4204418023908702832507D1DD9987
:100364002328B7D073005010010001002380C70474
:100374002380D70403C7B704130560041377F70D6C
:10038400A385E704238007042244B240410125A445
:10039400011126CA81460146AA848145114506CE2B
:1003A40022CC4AC84EC60926B727004011472383EA
:1003B400E780B716004083C7E60203C7E60483D686
:1003C4008603116693F7F70F1367370063E5C600DA
:1003D400F19B93E71700371400409309700523003D
:1003E4003405130980FA2300240523020402230799
:1003F400F4022307E4042300040413055002B92083
:10040400B7F700E003A707D11367470023A8E7D095
:1004140023003405230024050347F400136707046D
:10042400A307E4002567D98C2310940203A707D1FE
:100434005D9B23A8E7D07300501001000100F24037
:100444006244D2444249B24905618280B7170040F0
:10045400930670052380D704130780FA2380E704EA
:1004640003C6B7041376F60DA385C70423800704D7
:10047400137605022DC603C6A700118A0DE2238058
:10048400D7042380E70403C7A70013674700238525
:10049400E7009307004B01000100FD17EDFFB717BC
:1004A4000040930670052380D704130780FA238045
:1004B400E7047D892394A7000100010001000100E5
:1004C400238007042380D7042380E70493061005C0
:1004D40037270040A303D780238007048280137644
:1004E40005046DDE03C6A700418A0DE22380D7040C
:1004F4002380E70403C7A700136707012385E700E8
:100504009307007D01000100FD17EDFFB7170040C0
:10051400930670052380D704130780FA7D8923800E
:10052400E704136505042394A700010001000100FA
:100534000100238007042380D7042380E704930663
:1005440030053727004079B741118146014681457E
:10055400114506C6912AB71700401307700523807A
:10056400E704130780FA2380E70403C767041367CB
:1005740017002383E70423800704B24041018280EB
:1005840081460146814511450522B71700401307EE
:1005940070052380E704130780FA2380E7047D575E
:1005A4002396E70203C76704136717002383E7044E
:1005B4002380070401A0BD473305F50201007D1522
:1005C40075FD8280411122C426C206C6AA84014454
:1005D40063179400B240224492444101828005048E
:1005E4001305803E4204C13F4180DDB723030480EC
:1005F40015472303E48001002302A480828083073B
:100604006480E3CE07FE2303048082808307648032
:10061400E3CE07FE03454480828083076480E3CEF3
:1006240007FE2302A4808280411126C44AC24EC020
:1006340006C61377F50BAD47AA892E899544630640
:10064400F70019456537653F8D444E854537FD599B
:10065400FD1463983401B240A24412498249410115
:100664008280135509011375F50F453F2209CDB753
:10067400011126CC06CEB704080051371545BD3705
:10068400713769372AC6A53F32459377150089EB40
:10069400136515001375F50FF240E244056182807D
:1006A400FD14E9FC0145CDBF397126DC4ADA4ED888
:1006B40052D656D45AD25ED006DE62CE66CCB7E7A6
:1006C40000E07D5783AA070022C603AA470023A09F
:1006D400E71823A2E718B717004013077005238013
:1006E400E704130780FA2380E70483C74704930BC6
:1006F40075FFB684E20793FBFB0F8546AA892E8B10
:10070400328937240040E187015763FA7601630890
:10071400D5008946130700026313D5000157D98F0A
:1007240093F7F70FB71C00402382FC0411472303FF
:10073400E4801305F00F5D3D094CD13563697C11EC
:10074400B70707003E9B378707007955637EEB02A6
:10075400B3079B00636AF702A9476399F90689E422
:100764008144713D26850DA0DA850945753D05094D
:100774000345F9FFFD14050B4D3581C49377FB0F39
:10078400FDF7FD3569FD7D55B7170040130770056A
:100794002380E704130780FA2380E70403C7470490
:1007A400418B2382E704F250B7E700E023A05711FE
:1007B40023A24711E25432445259C259325AA25A1E
:1007C400125B825B724CE24C21618280A547639587
:1007D400F90685691309F00FB3069900B3742B0168
:1007E400B6941349F9FFB3749900856B33796901A1
:1007F400416B9387F9FFB3F7270199E363FC340155
:1008040093D94900C147E3E637FF99BF0569C16938
:100814007D19D9B71305800D63886901130500029A
:100824006384790113051008CA85FD3B913521DDE8
:100834004E99B3843441D9B7DA852D45F533CA943A
:10084400E30099F20509D933A30FA9FED5BF938715
:10085400F9FF93F7F70F636CFC0803C75C04B70751
:1008640008001377070219E3B78707007955E37D7A
:10087400FBF033079B00E3E9E7F089476390F90451
:100884008980D549E38E04ECDA850945713B110969
:100894000327C9FF91472320E48003076480E34EC4
:1008A40007FE23033481FD17EDFBFD14110B81C4F6
:1008B4009377FB0FE9FF6D3B71F5F1B58547E3874E
:1008C400F9F4DA852D458D339389F4FFE38A04E83E
:1008D400353B93F7390091EB832604800327090005
:1008E40093074900E39FE6E63E89CE84F1BFB5470E
:1008F4006396F9001305900BD5399DB5B1471305DF
:10090400B00AE38BF9FE9947639EF902DA852D4517
:10091400213B81448D4BA149D539639674018327CA
:1009240004802320F9008504E39834FF832704809E
:1009340013172B01635507002312F90015B5232261
:10094400F90039BD9D476399F90281451305B00447
:10095400E139BD442320090023220900FD597D31DA
:1009640093F77400CA9703C70700FD14398D2380D9
:10097400A700E39634FFEDB3A1476392F904CD39A0
:100984008144630D0B008D479304C0036308FB008F
:100994009304000563048B01930440041375C50795
:1009A400E30095DC1945993199390545813126854E
:1009B400AD3109459D316D39E31405DAE9B3914749
:1009C4006399F9001305600615311539130590096B
:1009D40025B7E38709D8F15469B319CDB717004097
:1009E400130770052380E704130780FA2380E704C4
:1009F4002396A70223800704828019C1814799E9BD
:100A040082803387F500834607003307F5008507A6
:100A14002300D700E397C7FEE5B719C1FD5781E965
:100A24008280910503A7C5FF1105232EE5FE7D16DF
:100A3400E319F6FEF5B7797122D4173400001304D4
:100A440024DA1C4006D626D24AD04ECE91C78297CD
:100A54009737000023A607D85C4089CB03D581963D
:100A6400AD3F5C40829703D5A196853F1C40639CB3
:100A740007189737000083C737EA858B95C79737E0
:100A84000000A38B07E817370000034717E99147D5
:100A940063FCE700752B9737000083C717E8F91745
:100AA4008A07A2979C4382979737000083C787EBF6
:100AB400918B89C7971001E0E780A0EB1C4491C398
:100AC400829793874196984317360000034656CF82
:100AD4003E89973400009384A4CE9737000083C7DF
:100AE40027CE93961700BA9683D606006383061022
:100AF4009737000083C7C7CC63FBC70686073E97BA
:100B0400835507002310070003D581962EC6F135BF
:100B1400938781979C4317350000034565CA1317D3
:100B24002500BA979C43B2458297AA8903D5A1961A
:100B34006D359737000083C7A7C81397170083271D
:100B44000900BA9703D70700B3E9E90023903701F6
:100B540083C70400850793F7F70F173700002301B5
:100B6400F7C6173700000347B7C563E6E7009737B2
:100B74000000238707C41C40D9E793870197984353
:100B84003E8451C39737000083C777D991CB9737F9
:100B9400000083C797D889E7971001E0E78040A257
:100BA4001C4082972A8425C19C48AA9717370000C5
:100BB4002320F7C2938741979C4381CF03D5819625
:100BC400293D2285970000E0E780C00103D5A19666
:100BD4002935973700009387E7BADC538DC7225431
:100BE400B25092540259F2494561170300E067007C
:100BF40063D7850793F7F70F973600002382F6BC77
:100C0400E3EDC7ECF5B5B250225492540259F249BF
:100C1400456182809167B7C600409387373023A629
:100C2400F6200F10000097370000938767B9884FAC
:100C3400938781A59C43316713073730F053B70777
:100C44001000FD17918F99833A0523A6E6205D8D48
:100C540082804111B7170040985F3AC6945F3247CB
:100C6400E39CE6FE324541018280411106C6D53738
:100C74009736000083C646B2858AB1C693073033DF
:100C84003307F502B337F5023983CA07D98F17370B
:100C940000001307E7B2584B01456303F70233859D
:100CA400E740636BF70037653D0889C637856F08F1
:100CB40013050590198D3E9517370000232CF7B0C6
:100CC400B24041018280E5473307F502B337F502AC
:100CD4002583DE0765BF0327C50F8346B500973715
:100CE4000000938727C39C4F58439386160295822E
:100CF4009043FD1693F6F60F10C3D04350C39047AC
:100D040010C7D04750C7904B10CBD04B50CB904F0F
:100D140010CFD04F50CF91C6130707029387070215
:100D2400C1BF82808347E50193F7E70F91CB01456B
:100D340082800145B24022449244024941018280AA
:100D44008347F501EDF7834605010347850089CA0A
:100D5400034665029737000083C717A46367F6004C
:100D640093770701E9D7814789CA834705158346E5
:100D7400F514418BA207D58F01CB03474515834654
:100D840035152207558FBA97DDD31737000003476F
:100D9400A7A041119316870106C622C426C24AC0E1
:100DA400E18663D506049387C71313D45700973796
:100DB40000009387A7C1BC479734000083C4649E96
:100DC4007D5903A70708637327013A899C43F5FB00
:100DD4009387C1979C438297E36DA9F43305A94097
:100DE40026943334850013451400A9B7058B9387E3
:100DF400C71209CB8A071384F7039307D007335428
:100E0400F40275B786071384F7019307D003C5BFAF
:100E14005D7122DE138481A43AD218403ED04ACABE
:100E24001C5F86C696C499839AC29EC026DC2ADAC1
:100E34002ED832D636D442CE46CC72C876C67AC4C0
:100E44007EC2858B138941A4C1C31C5F9734000003
:100E5400938444AC93F7F7F91CDF9737000083C7FA
:100E640067AB93F707048DC39387C1979C4382971D
:100E74009737000023A8A7AA83C7040093F7F70BAA
:100E8400173700002308F7A8854717370000A30584
:100E9400F7A883C7440093F7070481EF938781A5DC
:100EA4009C43D844B8D3930700FC173700002305AC
:100EB400F7A68387640063D90700832709009C434E
:100EC40017370000230BF7A418401C5F8583858B1C
:100ED400C9CBF5571CDF010001000100010001002E
:100EE40001000100010001000100010001000100F6
:100EF40001000100010001000100010001000100E6
:100F040001000100010001000100010001000100D5
:100F140001000100010001000100010001000100C5
:100F240001000100010001000100010001000100B5
:100F340001000100010001000100010001000100A5
:100F44000100010001000100010001000100010095
:100F5400010001000100938781A59C4313075004FD
:100F6400B8CB18401C5F9183858B89CFBD571CDF9C
:100F7400938781A59C4323A807048547173700005E
:100F8400230CF79883270900D8430583058B19C7D9
:100F9400D843759BD8C3D843799BD8C37254B64001
:100FA400A64216438643E2545255C2553256A256BF
:100FB400125782577248E2485249424EB24E224F6B
:100FC400924F616173002030173700001307879434
:100FD40083474700858B89EF83472700858B89EBFF
:100FE40083473700858BEDD7973700002386079218
:100FF4008280938741A59C4399CB944BD04B9842D4
:10100400518F98C294439C479842D98F9CC293872E
:1010140081A59C4337C700401306C003A8CB9306A1
:101024002003973500009385E58E83278720C183AD
:1010340093F7F7036369F60083278720C18393F747
:10104400F70363E6F60083C74500858BF9DF8280EA
:10105400173700001307078C83474700858B89EBFC
:1010640083470700858B91CB973700002386078A37
:1010740097370000A382078A828083471700858BF5
:10108400E1DFDDB7938741A59C4399CB944BD04BCB
:101094009842518F98C294439C479842D98F9CC2DE
:1010A400938781A59C4337C700404146A8CBE546BA
:1010B400973500009385058683278720C18393F79E
:1010C400F703637DF60083278720C18393F7F70333
:1010D40063E6F60083C74500858BF9DF82801387BA
:1010E40081A41843AA87185F1583058B25EF034550
:1010F400150015051377C51F19C6B386E70083C607
:1011040026002300D60095C59736000083C6E680E6
:1011140093F606040945A1CAB386E70083C63600E0
:10112400054693F5F6066390C504E206E18663CCB2
:1011340006023385E7008347150003470500A2072D
:1011440093F70770D98F139707014183937607406C
:1011540099C6136707802398E1A4014582802398E8
:10116400F1A4E5BF05458280011136C8938681A5A7
:101174002ECC8C423AC63EC498452ACE32CA931726
:10118400070142C2C1831378172036853E8697260D
:10119400000093862678630408041377072061CF40
:1011A40003C7260013671700172800002305E876F5
:1011B40013070019B8D1130700F897250000238DF1
:1011C400E574138781A40C4337080010D855719B2C
:1011D40013672700D8D598413367070198C113775F
:1011E400261005C31376061045CA03C70600136705
:1011F400170017260000230FE67017270000231F8F
:10120400077083C6460093C7F7FFC207E206E1866C
:10121400C183184163D106029396170163D7060868
:1012240030538D4663E9C600854617260000230522
:10123400D66E3453FDFE972600009386A65483860B
:10124400460163DD060093960701C18663D5060651
:101254007053894663E4C6007453FDFE1447724517
:10126400E245F58F1CC75246C2463247A247124890
:1012740005617300203003C7160013671700972514
:101284000000A389E56817270000230707681727CC
:10129400000023150768A1B703C7360013671700BA
:1012A40017260000A309E66689BF854617260000B5
:1012B4002304D66649B754471396060163510602C0
:1012C400B7061000FD1674D3972600009386464F88
:1012D400944E8506172600002320D65041B7A166F8
:1012E400D58FADBF17270000130787648346B70166
:1012F4009727000083C71767B69793F7F70FFD4644
:1013040063EAF6044C4B97260000A383F662972702
:10131400000083C7F76105473317F70097260000DD
:10132400A382F6646D8F1DEF9726000083C6D663F3
:10133400B3F6D70213050002814733D6F500058AB8
:1013440013F8F70F09CE6399E60097270000A381ED
:10135400075F828081177DB705071377F70F85072D
:10136400E39DA7FC8280938701A69843B7570200A8
:101374009387079F83260709139656006358060030
:10138400832607091396660063440600FD17FDF3E0
:10139400828051C9AA870145C9C98D07C207C18383
:1013A400F19BC207C18313074003636BF7021387E2
:1013B40001AF0843138781AE14436396A60217272F
:1013C40000001307273C185B014525C34111C207E0
:1013D40006C60545DD8D0297B24001454101828074
:1013E4001387C1AEF9B70357650005EF03574500EE
:1013F4006369F702B306F74021466370D6021041D1
:10140400938687001D8FAA96611790C22392E600E7
:101414002393060014C12312F5002313B5002105FC
:101424008280084159BF01458280828001CD938723
:1014340001AF03A80700938781AE8C430147C2879D
:1014440063E3B70082809443636FF50663EDA606F9
:1014540013868700E368C5FE03D567002166050689
:101464006317C50003C6C1A005062386C1A0239344
:101474000700638407031386C1AE1042630FF600AE
:101484000356670019EA83D7470014C383564700FD
:10149400B697A1072312F700BA879843E304B7FA73
:1014A4009386C1AE9442E30FD7F883566700D9FA06
:1014B40083D64700035647001843A106B2962392E9
:0C14C400D70098C382803E87B6879DBF8A
:1014D000974100209381815017710020130181B240
:1014E00013054000972500209385C531173600204D
:1014F0001306067E63FAC5008322050023A055006B
:1015000011059105E3EAC5FE17D501001305050392
:10151000973500209385C57B1386818963FAC500C2
:101520008322050023A0550011059105E3EAC5FEBD
:101530001385818997650020938545D46377B5002D
:10154000232005001105E36DB5FE9302800873A00A
:101550000230972200209382E22A93E212007390D5
:10156000523097120000938282E673901234730017
:1015700020303D432A876373C3029377F700BDEFA2
:10158000ADE5937606FF3D8ABA960CC34CC30CC7F3
:101590004CC74107E36BD7FE11E28280B306C3401C
:1015A0008A069702000096966780A6002307B70078
:1015B000A306B7002306B700A305B7002305B700AD
:1015C000A304B7002304B700A303B7002303B700A5
:1015D000A302B7002302B700A301B7002301B7009D
:1015E000A300B7002300B700828093F5F50F939610
:1015F0008500D58D93960501D58D61B7939627000B
:101600009702000096968682E78086FA9680C11738
:101610001D8F3E96E374C3F8A5B783C791892E86C4
:1016200089CBA38C018893870195AA8588436FB0E5
:10163000011B8280938701B123A8F194938701BD98
:1016400023AAF194938701C5411123ACF1949387A8
:1016500001CD06C623AEF194EF20607FB240B7E71C
:1016600000E03707400023A0E71041018280814756
:101670001386419513F7F70F6364A7006F201005D9
:1016800018423E9783460700850793C6F6FF23005E
:10169000D704CDB781471386819513F7F70F63649D
:1016A000A7006F20100418423E9783460700850765
:1016B00093C6F6FF2300D704CDB781471386C195A3
:1016C00013F7F70F6364A7006F20100318423E97CB
:1016D00083460700850793C6F6FF2300D704CDB7DE
:1016E00081471386019513F7F70F6364A7006F20F6
:1016F000100218423E9783460704850793C6F6FFFB
:101700002300D708CDB7B787004003C7670013771A
:10171000F70F9376270063830648011106CE22CC8B
:1017200026CA4AC84EC603C777009306000313773C
:101730000703630BD70203C7770091461377F703BC
:101740006300D72263E4E60A8546630BD71A630178
:10175000071889466300D71C8D466300D71EB787DC
:10176000004009472383E70037870040834777001D
:10177000E207E18763D0072E930720FC2301F702DD
:1017800093860195884203477500834765002207C9
:101790005D8F239EE18883471500238DF1880349DF
:1017A000050013760906630D061CDD1705476368FF
:1017B000F72862091359894181466352090283D788
:1017C000C189930600043E8763F4F6001307000402
:1017D00042074183998F9376F70F239EF188B7874D
:1017E00000402380D702130700FCB1AC930620020F
:1017F000630CD71263E3E602930600026306D70484
:1018000093061002E31DD7F403C767021377C70FCF
:10181000136727002383E70299B793063002630812
:10182000D71293064002E31CD7F203C727031347DE
:1018300007042389E70203C727031377C70F13673A
:1018400027002389E70221BF03C7A18995466303C7
:10185000D7069946631BD7069387C18903D407002F
:1018600013070004BE846374870013040004938785
:1018700001951389018A8843420483250900418028
:101880002286EFA0D17583D704009379F40F818F5E
:10189000239EF188832709003E9423A0818AB7877D
:1018A00000402380370303C727021347070423811F
:1018B000E70275B503C7370083C6C18913770708E8
:1018C000558FA381E7000947DDB723800702E5BFF5
:1018D00083C7870003C7A189A547E312F7E8938769
:1018E00001959C4317C501001305C53683C7070042
:1018F00089E717C5010013056537EFB0410B85B5C2
:1019000003C7770013770704E30B07E403C58700D9
:10191000B93BB1B503C7770013770704E30107E4C8
:1019200003C58700853B25BD03C7A7021377C70FF3
:10193000136727002385E7021DB503C777001377D8
:101940000704E30E07E003C58700853B09BD03C715
:10195000E7021377C70F136727002387E70201B554
:1019600003C7770013770704E30B07DE03C72703DA
:10197000134707082389E70203C587009533C5B3DA
:101980002946636EF60A17C601001306E61B8A078E
:10199000B2979C43B29782878347350083462500E0
:1019A0000946A207D58F93D68700638CC60A636960
:1019B000D6008547638AF6021304F00F81472DA8ED
:1019C0008D456389B60C93072002E397F6FE8347A3
:1019D0004500D5E397C701009387C71923A0F18A73
:1019E00001449307E00309A897C701009387872361
:1019F00023A0F18A0144C947C207C18363F4E70009
:101A0000239EF1889387C18903D6070093070004BA
:101A100063F4C700130600049389018A9314060136
:101A200083A50900C1802686EFA0715B03A609008B
:101A3000269623A0C18A9307F00FE31CF4D6B7873C
:101A400000401307F0FC2381E702B78700400947F5
:101A50002383E700F2406244D2444249B24905611F
:101A6000828097C701009387271823A0F18A014439
:101A70009307B00351B785466391D70697C6010017
:101A80009386461323A0D18A0144A38CF18893073F
:101A900040039DB793F7F70F8546638ED7008DC738
:101AA000E39CC7F097C701009387071A23A0F18A28
:101AB0000144B14791B797C701009387E71723A067
:101AC000F18A0144B9470DBF97D701009387479A20
:101AD00023A0F18A0144914705B701449307F00F11
:101AE00021BF83472500239EF188E1B183C7818907
:101AF0002300F50003D7C1898547E3FCE7CA854782
:101B0000DDB783472500238CF18865B11377F90190
:101B10008947E316F7F2834745006381E704636C66
:101B2000F7000547E39DE7F03787004083476702EA
:101B300093F7370799A0130710086388E702130784
:101B40002008E39EE7EE378700408347A70293F71C
:101B5000C70B93E727002305F702A1B93787004099
:101B60008347A70293F73707FDB7378700408347BE
:101B7000670293F7C70B93E727002303F70215B912
:101B80002300050085BF230005009C42A3800700B9
:101B900003D7C1898947E3FEE7C0B1B79376170041
:101BA0008DC2A381070009472381E70249472383A8
:101BB000E7022385E7022387E70205472383E7003F
:101BC000828093764700FDDA03C757001147FDB7BF
:101BD00083C785002145C18B85E72D4515E3A147C6
:101BE000411132852390F60021469385418A06C62D
:101BF00097200020E780A060B2400145410182802B
:101C0000828041654111938501D57D1506C6EF801F
:101C1000C051B240973600209386860E41468D45CE
:101C2000173500201305C50A41016F802045411179
:101C300022C41384418A2146AA85228506C623AE82
:101C4000018E97200020E780805B83470400814558
:101C50000145FD8B2300F400A92022862244B240D6
:101C6000A14681452945410117230020670003242F
:101C7000411122C406C683C78500214493F7070299
:101C800081EFA14701446399F60003477600C547F9
:101C90006314F7003285613F2285B240224441013E
:101CA000828083C7C18B93F7F707238EF18A83C79E
:101CB000418AA18B3717004089CB8327870A93E796
:101CC00007202324F70A014582808327C70A93E768
:101CD00007202326F70AC5BF411106C683C7C18B5B
:101CE000A1CFE207E18763CA0700371700408327C7
:101CF000870A93C707202324F70A9387818B9C4385
:101D0000896693860671850723ACF18A13075020F4
:101D1000B387E70203C7718A3307D7026373F700FB
:101D20002924130650208D4503C5418BEF200079EF
:101D3000B240014541018280814501459D3723AC78
:101D4000018AFDB71387C18B834707001306502014
:101D50008D4593E707042300F70003C5418B23ACAF
:101D6000018A6F20A075011106CE1387C18B8347AE
:101D700007002AC6170500001305E5F293E707F8E8
:101D80002300F700EF20702A3246F2408D450561AE
:101D90006F20C0724111171500001305C5C706C694
:101DA000EF20B0282384A1900965130505D6653F6F
:101DB0008D4513050020EF10F0543717004083279E
:101DC000870A17050000130565F193E70720232410
:101DD000F70AEF209025B240238AA18A4101828030
:101DE0000111A1461386418A81452D454AC823AA7F
:101DF000018C06CE22CC26CA4EC697200020E78052
:101E0000E00A03C7B18AC5471389418A6309F7020B
:101E1000034709004A868145419B2382E18A1D4789
:101E2000A382E18A2383F18A0D47A383E18AA14635
:101E30002945A385F18A97200020E7802007854562
:101E400037054000EF107056814519653714004082
:101E5000EF10504B035744091966B7E900E0518F62
:101E6000231AE4088326C40A1967A164D98E23269D
:101E7000D40A8326840A138504088145D98E232435
:101E8000D40A231EE4088357040993840408D18FDD
:101E90002318F408B707020023A0F910EF10F05040
:101EA00003576409E177938707085D8F42074183F1
:101EB000231BE4080327C40C91454145458F232685
:101EC000E40C0327840CD98C2324940C231FF408DE
:101ED00003572409D98FC207C1832319F408B70710
:101EE000040023A0F91023AA018E23A8018C23A0AB
:101EF000018C23AC018EEF10F04083470900918BD9
:101F000091CF8327C40A93E707012326F40A62448A
:101F1000F240D2444249B2490561ADBD8327840AEB
:101F200093E707012324F40ADDB783C7718AA5CF9D
:101F3000B717004003A7C70A411106C61367072059
:101F400023A6E70A37E700E03443414630C33706AB
:101F500002002320C71834C30100010003A7C70AE9
:101F60000546C1451367070123A6E70A0545EF109B
:101F7000B059371700408327470C93969700E3DC4E
:101F800006FE370540008945EF10904CB240B7E798
:101F900000E03707040023A0E710014541011723A3
:101FA0000020670023BF8280B717004083A7470C3B
:101FB00013979700634E070083C7418A858B138769
:101FC000418D81CB8347070093E72700238AF18C5B
:101FD00082808347070093E71700CDBF9387418F27
:101FE00094439387018D9C431385818E9D8E23AAF4
:101FF000018E23A8018C9387018C98439387818F4E
:102000009C4393F6F60F1D8F23A0018C23AC018E09
:102010009387018EBE8503C6070085073696A38F7A
:10202000C7FEE39AA7FE9387818D1377F70F138579
:10203000018E3E8683C607008507BA96A38FD7FE1A
:10204000E39AA7FE8146814721473385F500034582
:1020500005008507AA96E39AE7FE83C7818EBE95A1
:10206000238005000147814521453308E6000348E8
:1020700008000507C295E31AA7FE3E9699868507D4
:102080002300060093F7F70FA38AB18C238BD18C22
:102090006385E7002384F18E82802384018E828011
:1020A000411106C622C40937153F03C7418D83C7B6
:1020B000418C1384418D6317F7041C4037070001DE
:1020C000130707F0F98F9DEF9387C18F9C438966B3
:1020D00093860671850723AEF18E03C7618AB30725
:1020E000F70203C7718A3307D7026373F700353DE0
:1020F00083470400B24022442382F18C23AA018C3E
:10210000410182809386418D114685450145EF004E
:10211000106191451385418DEFF02FD023AE018ED4
:10212000C1BF828023AC018A7D15954763E4A70E69
:1021300017C70100130707B70A053A951C4101119B
:1021400006CEBA9782872C0013054030EF70D10479
:102150002C000545EF50403817C50100130585B721
:10216000EFA0F10401A817C501001305A5B7EFA062
:102170001104C93EF2400561828083C7C18B93C7B9
:102180000704238EF18A83D7A5000D661306062067
:10219000914503C56181239AF180EF20203281456A
:1021A0000145EF00100717C501001305A5B44DBF89
:1021B00017C501001305C5B465B783C725001147CE
:1021C00017C50100130545B5638EE70219476394EF
:1021D000E70283C5650017C501001305A5B5EFA08B
:1021E000616B854730008545130550302304F100AD
:1021F000EF70510841B71547E395E7FE17C5010099
:10220000130505B5EFA0A17AE9BF17C501001305B5
:10221000A5B5B9B782803A883E8789E6834608002B
:102220006F10E01185476395F600C2866F10A0130A
:102230008947639FF60041111306401F894503C576
:10224000618106C6EF208027B240014541018280AE
:102250000145828041119397050122C406C6C187BA
:102260002E8463DF070003C56181EF10305419C16C
:10227000EF10304D2165218DB24022444101828012
:1022800093F7150013C51500E5FB93F7450099CFAB
:1022900083C761811307401F81462146A14503D5AD
:1022A0004181EF70A14913454400F9B793F7250028
:1022B0000145F9D3F53303C6618A1D06894503C577
:1022C0006181EF20A01F134524007DB70111170580
:1022D0000000130565F806CE22CC26CAEF20E05494
:1022E0009384618105442380A40070008545130513
:1022F000503023068100EF70E177138641809D45C1
:1023000013056030EF70017717360020130606A121
:10231000F54513057030EF70E17517C6010013061F
:10232000E699D5450145EF50F00E8D477000914577
:10233000130570402305F10023048100A3058100EB
:1023400002C6A3040100EF60414430008545130537
:102350000040EF608143130691008545130510404E
:10236000EF60A1421306A100854513052040EF60F0
:10237000C1411306B100854513055040EF60E140AF
:102380009305C0120D45EF30D0439305C01211459F
:10239000EF30304399477000854505452306F1002D
:1023A000652BEF00706F9735002093852596138578
:1023B000C180EF00903503C504008545EF10B07F64
:1023C000F2406244D24405618280411113058004C9
:1023D00006C697200020E780A08737170040832794
:1023E000870A8D451305002093E707202324F70A69
:1023F000EF104071EF1090227522E12CEF70510D1B
:10240000EF00D028E1359305F00F0145EF10F00CF7
:102410000145EF10A012EFF0EFA1EFF07F9C9710B5
:102420000020E7806054411106C6EF10C013BD477D
:1024300063F4A700EF102013EF104038BD4763F49A
:10244000A700EF10A037B24083D5E19403D5C19423
:1024500041016F20C02D411193962500AA852D457D
:1024600006C697200020E78060A4B24001454101E4
:102470008280411122C426C24AC02A842E89B28495
:10248000AA85930600200146254506C69720002010
:10249000E780C0A1931629002686A28529459720AA
:1024A0000020E780A0A0B2402244924402490145A6
:1024B00041018280011122CC06CE3714004026CA89
:1024C0004AC84EC652C483447405034AB4058349BE
:1024D000840503499405EF10E0018347A40593F4B4
:1024E000F40F137AFA0F93E71700230DF40493F90E
:1024F000F90F1379F90FB717004003C7A705058B2C
:102500006DFF03D5C705A38D4705238C3705A38C25
:102510002705A38B9704F2406244D2444249B24952
:10252000224A0561828041119397050122C406C6A3
:10253000C1872E8463DD0700EF10502719C1EF100B
:1025400050202165218DB24022444101828093F7C1
:10255000150013C51500E5FB9397250163D007020D
:10256000EF203128C93537F60200130606E08965E9
:1025700003C50190EF1090740965E9B793971501B1
:102580000145E3D207FC17C501001305E582EFA062
:10259000014213060064916503C50190EF101072AB
:1025A00011654DB71D71494697B501009385457C6E
:1025B00017C50100130585A886CEEF10305901E933
:1025C00017B501001305057CEFA0613E01A037F7A8
:1025D00000E0F9575CC7FD571CCB8566B7E700E004
:1025E00023A0D7101306701010C3B8434146B0C3E0
:1025F00023A0D718B8C3010001001306C00381450A
:102600004808EF10904E97370020938727133ECA53
:10261000896793870780231CF100ED47A301F1022E
:102620009307A0102312F102930750022303F10233
:10263000A167938707E03ECE970700009387E7E105
:10264000BEC497070000938707E3BEC689472304EB
:10265000F102B5472308F102971700009387277608
:102660003EDAB7F50700970700009387E7E43EDE00
:10267000814697070000938747DB7000E105194505
:10268000BEC097200020E7806082580881479946A5
:1026900070003E960346060085070507A30AC7009B
:1026A000E398D7FED24791C70357810185676373CB
:1026B000F70001A04808EF20C01AAA8501C917B584
:1026C00001001305656DEFA0E11C01A0F640256136
:1026D0008280411117050000130525E506C622C4B6
:1026E000EF20A014138401902300A400292803459F
:1026F00004002244B24037F60200130606E0896562
:1027000041016F10B05B411106C6B71700401307B7
:1027100070052380E704130780FA2380E70403C7CA
:10272000F7021377A70FA387E70203C7F702136720
:102730002700A387E702C5391305407E814701477B
:10274000814605468545EF10A028B240014541016C
:102750006F200039938701919C43011106CE22CC52
:1027600091C38297EF00905B2A84EF00305B2A943C
:10277000EF00D05A2A94EF00705A2A94EF00105AB2
:1027800022959547B347F50203D78181130540068B
:1027900063F4E70283D6E181014563FFF6003385E8
:1027A000D740930740063305F502158F4207418352
:1027B0003355E5021375F50F938741919C4381C70B
:1027C0002AC682973245F24062440561828003A89E
:1027D0004500411126C206C622C48347180003489B
:1027E0000800A944A207B3E70701C2070D68C18723
:1027F000130828906396070385473284EF50504BA7
:10280000AA8419ED9387C1909C4399CB034514008A
:10281000034704002205598D1335150005058297DD
:10282000B240224426859244410182802D452DE309
:10283000D841411122C426C206C683471700034768
:102840000700B684A207D98F0D67930697A132843B
:102850006390D70201372380A18285472390F4003B
:102860002300A4000145B2402244924441018280E9
:10287000130787902945E398E7FECC4589472390C5
:10288000F4000946228597200020E7804097D9BFB1
:10289000828083474500858BBDC7011122CC2A84E5
:1028A00003552500974500209385456906CEEF50D6
:1028B000F03C058929C5035524000147814605469A
:1028C000ED45EF50A0792AC61DC9972700209387B0
:1028D000E74683D7A70201462C002314F100854761
:1028E0002315F10083C701822300F500035524005E
:1028F000EF60D01309C5ED452800EF50F00DF24010
:10290000624405618280828041118145056506C669
:10291000EF10401F89450145EF00903BB71700407D
:102920000947416597450020938545617D15238CB6
:10293000E704EF70807FB24097260020938606451B
:1029400041469545172500201305453F41016F700D
:10295000E07223A6A1908280411122C406C6854759
:1029600009446311F502834706000144A384F190F2
:1029700003C701826308F700170500001305A5F1DE
:10298000EF90701E2285B24022444101828085472B
:102990006301F50209C909476302E5020D476306B1
:1029A000E5020945828083C701822380F500014545
:1029B00082809387919083C70700C5BF9727002027
:1029C00083D767382390F500DDB71387C18103579C
:1029D00007002392E50017270020130727368356A8
:1029E000A7020357A7032383F5002390D500239163
:1029F000E50075BF411106C6B13B2380A1821705D2
:102A00000000130545E9EF901016B2400145410161
:102A10008280411106C6F93F170600001306A6FF83
:102A20008D4503C58190EF107029B24001454101E9
:102A3000828041677917630EE502411122C406C600
:102A400085472A84639CF50022852244B24097453D
:102A500000209385A54E41016F70206D89476396D4
:102A6000F5008545EF90B00A65D1B240224441019E
:102A700082808280CC41411106C6328503C6150092
:102A800083C5050022064D8E42068D65418613885A
:102A900075A2630C060F6348C804138845A2630639
:102AA000060B634AC800938535A26309B6062390D6
:102AB0000600294679A0138855A26308060B938562
:102AC00065A2E316B6FEC1451D4663ECE506454624
:102AD000198E63F3C7003E862390C60097B50100A8
:102AE0009385C52E89A8138895A26300060F634EAF
:102AF000060B1388A5A2630A060F938505A5E318A4
:102B0000B6FA99451D4663EEE502198E63F3C700D8
:102B10003E862390C6009385818231A89D451D463F
:102B200063E1E5022146198E63F3C7003E862390D8
:102B3000C60093858191BA9597100020E780206C9C
:102B40000146B240328541018280AD451D46E3EA2F
:102B5000E5FE3146198E63F3C7003E862390C6001A
:102B600097B501009385452AF9B7B1451D46E3EABB
:102B7000E5FC3546198E63F3C7003E862390C600F8
:102B800097B50100938545297DB7C1451D46E3EA08
:102B9000E5FA4546198E63F3C7003E862390C600CA
:102BA00097B501009385C52379B7C1451D46E3EA72
:102BB000E5F84546198E63F3C7003E862390C600AC
:102BC00097B5010093854526BDB7C1451D46E3EA8B
:102BD000E5F64546198E63F3C7003E862390C6008E
:102BE00097B5010093850521B9B7B5451D46E3EAC0
:102BF000E5F43946198E63F3C7003E862390C6007C
:102C000097B501009385851B3DB7972600209386D5
:102C1000A62B4146CD45172500201305E5176F70FB
:102C2000E0458280938741939C4303C7819283C68A
:102C3000318401E781473E85828003D60700631611
:102C4000A60003C66700E308D6FE7D171377F70FCB
:102C5000A107C5B71166130686A9894503C59192D8
:102C60006F10D005B2862E86AA8517B50100130510
:102C7000E51C6F9031420111930500030D4506CE0E
:102C8000EF302034930500051145EF308033930574
:102C9000C0030545EF30E03285471306F100854556
:102CA00013055030A307F100EF60D15CF2400561DD
:102CB000828041119397050122C406C6C1872E84E4
:102CC00063DF070003C59192EF10402E19C1EF108A
:102CD00040272165218DB24022444101828093F733
:102CE000150091CF172600201306C61E9385418339
:102CF00003C59192EF60312B13451400E9BF93F7A0
:102D000025000145E9DB13C52500F1B78547639828
:102D1000F50019E22381B192238CC1928280094788
:102D20006399E50019E62381F19203D501926F00C2
:102D3000007082809387C1929C43011122CC06CE01
:102D40002E8481CB9C4791C78297F24062440561F3
:102D500082806C0013057040EF50417C3246814503
:102D60002285EF606114D5B7797126D24ECE06D692
:102D700022D44AD052CC9147AA84AE896314F50478
:102D800083D7A5001306E100854513055030239035
:102D9000F1922307010023810192EF60B14D9387E7
:102DA000C1929C4391C7DC4781C7CE852685829717
:102DB000B250225423A2919202599254F249624A8B
:102DC00045618280138741921843E31AF7FC8545D9
:102DD00003D50192B939854503D50192EF00206BE7
:102DE000C16703DA0192F917631BFA0205449305E0
:102DF000E1001305504123810192A38181842307BF
:102E00000100EF50A1718347E100B1E303C7819353
:102E10009147E316F7F88535238C019249B79387DC
:102E2000419303A9070003C4819269D00355290087
:102E300011C99305E100EF50F04709C54C45528593
:102E4000EF70A02E7D141374F40F2109F9BF93873E
:102E500001939C4383C74700898BCDDB9305000A10
:102E60000D45EF3000169305000A1145EF3060154F
:102E700081450545EF30E0141306E1008545130553
:102E8000503023078100EF60F13E49B7011117056B
:102E90000000130545E206CE22CCEF101019138472
:102EA000919285471306F10085452300A400130580
:102EB0004041A307F100EF50510D7D55EF40706385
:102EC0007D55EF7060239133EFE0BFD3EFF0DFA3C8
:102ED000252317050000130525D8EFF09FA7170538
:102EE0000000130545D48923034504008545EF10F0
:102EF000804C034504001166130686A98945EF102E
:102F0000E05BF24062440561828023A6B19223A86F
:102F1000A192828023AAB1922384A1928280938776
:102F200041929C43797106D622D426D24AD04ECE05
:102F300052CC1147639BE70483C72192414481CF60
:102F4000938741938043B284B68983C7819203C734
:102F5000318499EB55442285B2502254925402593F
:102F6000F249624A4561828083464400639AA60022
:102F7000834654006396B600834664006380E60689
:102F8000FD1793F7F70F2104E9B709474144E3849C
:102F9000E7FC2C001305504123040100EF500158B9
:102FA000834781008DCB930500020D45EF30600112
:102FB000930500031145EF30C00095450545EF30FE
:102FC0004000854730008545130550302304F1004B
:102FD000EF60512A49B745314144B5BF035524003C
:102FE00093056100EF50102D35D54C4503D5019266
:102FF000EF50C048058939DD1399040113590901BF
:10300000014781464A86ED4503D50192035A0400E3
:10301000EF50C0042AC64D441DDD2686CE852314FC
:1030200041012315210197100020E780401D014632
:103030002C0003D50192EF60601F2A84E30D05F098
:10304000ED452800EF50401939B7C841011122CC95
:1030500006CE328403461500034505002206498E3C
:1030600019CB0D681308B8A42D45630A0607F24072
:103070006244056182800D651308D5A463000603D0
:10308000130825A2630C060175781308E85C3298D2
:10309000420813580801854863EF080303D5A500CB
:1030A00036C632C4EFF01FB8B24615C19387C1923D
:1030B0009C4322468345550003A30700A287624430
:1030C000F24003454500368785460561028323901B
:1030D0000600014569BF1308B5A46317060303D6AC
:1030E00061841D45E375C7F8198E63D3C7003E861A
:1030F000CC452390C60042064182BA95228597109E
:103100000020E780C00FF1B79307A5A46318F6006D
:1031100091472390F6001146CC45CDB79307859093
:103120006317F60089472390F6000946F5B7930721
:10313000E5A4631AF600DC452390160183C7070057
:103140002300F40079B713057590E314A6F8D9BFEE
:10315000011122CC06CE26CA4AC82317D1002D441D
:1031600031EBDC412E89B28403C4170083C707000A
:1031700022045D8C8D679386D7A46306D400938662
:1031800027A36310D4040355A900EFF0BFA919E1E8
:1031900001440DA09387C1929C438345550003458C
:1031A000450003A807002286A6871307E100814691
:1031B00002982A842285F2406244D2444249056141
:1031C00082809386C7A46314D4028357E100054725
:1031D0003544E391E7FE0345060013040008E3EBE2
:1031E000A7FC9387C1929C43DC43829755B7938693
:1031F0002790631AD4028356E1008547EF50402B95
:103200002A844DF9938741938356A9009C4303C7B1
:1032100081923DDF03D627006302D6047D17137722
:10322000F70FA107FDB79387E7A4E313F4F68357DD
:10323000E10005473544E39FE7F603450600130424
:103240000008E3E9A7F6DC452380A7009387C19235
:103250009C433335A0000905DC4341BF1387C1926D
:10326000184303C5470083C5570083C714000328CC
:10327000070003C70400A2078946D98FC207C18788
:1032800005476383E7008D460D66A6871307E100B7
:1032900013062690029839BF4165411197450020D9
:1032A0009385C5CA7D1506C622C426C24AC0972486
:1032B00000209384E4C2EF60506797260020938635
:1032C00026D44146C9452685EF60505BCC4C2A89FF
:1032D0000945EFF0CFEB9387018583D707001744AB
:1032E00000201304A4C71387C1842312F40083D7DA
:1032F000A40C0357070097450020938525C723108A
:10330000F40083D7A40D2316E40003D7A4102311DF
:10331000F4000D4585472303F4002314E40023073C
:10332000F40023150400EFF08FE6A2850D45DD368D
:10333000B24022444A8592440249410182808D670D
:103340009387D7A40145631FF6008D472945639BEA
:10335000F500854735456397F6008347070001452B
:10336000238DF19282808D679387D7A4631EF60028
:103370008D47639BF50083C7A1932300F700854722
:103380002390F6000145828023900600E5BF0145A9
:10339000828025E303A84500AE88834718000348D0
:1033A0000800A207B3E707010D68930EF8A4639A1B
:1033B000D70391473548639FF60203A5C800411122
:1033C000B285114606C697100020E78040E3938738
:1033D00081949C4305458297B24001484285410152
:1033E00082809308289029486396170185476F507B
:1033F000200C2D484285828041654111974500206F
:10340000938545B77D1506C6EF603052B2409726CA
:1034100000209386A6C5414699451725002013052F
:10342000E5BE41016F60904523A4A1948280011103
:1034300097450020938505B422CC06CE2A84EF5010
:10344000E003058929C1014781460546ED452285EE
:10345000EF40D0402AC605C997270020938707BBB5
:1034600083D7A70501462C002314F10085472315B7
:10347000F100230005002285EF50505B09C5ED45A2
:103480002800EF407055F240624405618280416738
:103490007917630EE502411122C406C685472A84C6
:1034A000639CF50022852244B24097450020938515
:1034B00065AC41016F60704789476396F5008545AB
:1034C000EF80F06465D1B240224441018280828065
:1034D000B717004003C777051A0592054D8D13777E
:1034E000E70F13653500A38BE7041375F50FA38C65
:1034F000A7048280B717004003C777051377E70F4B
:10350000A38BE704130700F8A38DE7043D47238C42
:10351000E70413077003A38CE70482800547B717FD
:103520000040238DE704371700408347A705858BAC
:10353000EDFF0355C705520551818280B717004042
:1035400003C7E704930670052380D7041377C70FDA
:103550000D89930680FA2380D704498F2387E704D7
:10356000238007048280B717004003D587005D7170
:103570004EDE4205418186C6A2C4A6C2CAC052DC44
:1035800056DA5AD85ED662D466D26AD06ECE9377B7
:10359000050C130700088149638AE7161307000426
:1035A0006394E714B7240D8F7D8993840480B3D48A
:1035B000A4029167BE94EF801142BD8097B70100CD
:1035C0009387478D9043D443EF80A175EF902103FB
:1035D000AA8B939C040103D9C19493DC0C0163155D
:1035E0000900056913090980B71700401307700522
:1035F0002380E704130780FA2380E704B71A00400A
:103600000547939D0401096C2389E704514B01434D
:103610008145138D0A0413067005930680FA094844
:1036200093DD0D01130C0C71A9482300CD0023007C
:10363000DD0023962A0323000D0083C72A05898B0A
:10364000EDDF83D70A0583C72A05898BEDFF83C782
:103650002A05898BEDDF83D70A0523962195C207BA
:10366000C18333859741131A0501135A0A41630533
:103670000A143307BA026358070C050342031353B5
:1036800003016362680C63D3050A3305B0409315E8
:103690000501C185C204C18063D1450B09651305CD
:1036A00005713385A502B717004013077005238005
:1036B000E704130780FA2380E70423963703238067
:1036C00007043345950242054181B640264496449D
:1036D0000649F259625AD25A425BB25B225C925C52
:1036E000025DF24D6161828085EFB77489097D8941
:1036F00093840480B3C4A4029167BE94EF80B12D7B
:10370000BD8497A70100938767796DBD97A70100D6
:1037100093870778856483AB07009384343155BD64
:10372000930B0000954475B53A8901B7B387FC4007
:10373000139A0701135A0A41B1BF096513050571B0
:103740003305AA02BDBF3385B74163E4FC0033856E
:10375000FD40330585033344B50363C58800131565
:1037600004019DB7528532C636C4EF80F15CDE8518
:10377000EF80712DEF803156131305011353034170
:103780003307694042074183A24632460948A948A7
:10379000631AE90013071900634440011307F9FF96
:1037A000420741837D1B137BFB0FCA89D285E31D32
:1037B0000BF62396E19465B7014501BFB7170040AA
:1037C00003D5870039715ECE4205418106DE22DCD9
:1037D00026DA4AD84ED652D456D25AD062CC66CACD
:1037E0006AC86EC69377050C13070008814B638C7B
:1037F000E712130700046396E710B7240D8F7D8945
:1038000093840480B3D4A4029167BE94EF80B11C6A
:10381000BD8097A701009387E7679043D443EF806B
:103820004150EF80D15DAA89939A040103D9E194B4
:1038300093DA0A0163150900056913090980B717AE
:103840000040130770052380E704130780FA2380E4
:10385000E704139B04010547096A2389E704D14D56
:10386000014D814C135B0B01130A0A714A859700C5
:103870000020E7806011330C5541420C135C0C4171
:103880002397219563040C14B3079C0363DA070C98
:10389000050D420D135D0D01894763E3A70D63D448
:1038A0000C0A33059041931C050193DC0C41C204C2
:1038B000C18063D18C0B0965130505713385AC029A
:1038C000B7170040130770052380E704130780FA39
:1038D0002380E7042396770323800704334595026A
:1038E00042054181F2506254D2544259B259225A8F
:1038F000925A025BF24B624CD24C424DB24D216166
:10390000828085EFB77489097D8993840480B3C46C
:10391000A4029167BE94EF80110CBD8497A70100AB
:103920009387C757DDBD97A70100938767568564C6
:1039300083A9070093843431C5BD930900009544E1
:10394000E5B53E8925B73385AA40131C0501135CF4
:103950000C41B1BF0965130505713305AC02BDBF4C
:1039600063FEAA003305654133054503A947334487
:10397000650363C8870013150401A5B73305AB4081
:10398000E5B76285EF80513BCE85EF80D10BEF80AC
:103990009134131D0501135D0D41B307A941C20701
:1039A000C183631AF90093071900634480019307E8
:1039B000F9FFC207C1831387FDFF937DF70FCA8B01
:1039C000E28CE3900DF82397F19475B7014519BF88
:1039D00041112A83014E930E407E130F0019930F5D
:1039E000400663EB6E0A9308001913034006B37890
:1039F0001503854E0D4FA14F337365020D891335A5
:103A0000150063E5BE0C1308F6FF7946729842086C
:103A1000135808013307C70213D61700BE073297A1
:103A20006146B3F6C60213068070B386C6023697A7
:103A3000A166F58F42075D8FB717004083C6F70276
:103A400093F60608A307D1000346F10083C6F702E8
:103A500093F60608E394C6FE8346F10093F6F60F4C
:103A6000F1DE930670052380D704930680FA238045
:103A7000D70423AA070383C6170393E60608A3887F
:103A8000D702D8DB03C7170313670704A388E7022D
:103A900023800704410182807D133368E303930888
:103AA000E016630E08003368F3039308D01663082A
:103AB00008009378330093B818009388D816330819
:103AC0001E01131E0801135E0E0121BF6393E5035F
:103AD0000548638608000148630303002A887108CB
:103AE0007298FD15131E0801C205135E0E01C181F7
:103AF00009BF13F8150063F4BF007908D5B7133870
:103B00001800E5BF914763EEB70217A7010013073E
:103B100067398A05BA959C41BA978287B7170040E2
:103B200003A7470B1345F5FF698F23AAE70A03A7ED
:103B3000070B698F23A8E70A03A7070A798D23A03B
:103B4000A70A8280B717004083A6470B1347F5FFEB
:103B5000F98E23AAD70A83A6070B558D23A8A70A97
:103B600083A6070A758F23A0E70A8280B717004053
:103B700003A7470B498F23AAE70A03A7070B13459F
:103B8000F5FF45BFB717004083A6470B1347F5FF66
:103B9000758F23AAE70A03A7070A598D4DB7B717F0
:103BA000004003A7470B498FEDB7914763EEB7027B
:103BB00017A70100130747308A05BA959C41BA97A9
:103BC0008287B717004003A7470D1345F5FF698F9C
:103BD00023AAE70C03A7070D698F23A8E70C03A707
:103BE000070C798D23A0A70C8280B717004083A60D
:103BF000470D1347F5FFF98E23AAD70C83A6070DAF
:103C0000558D23A8A70C83A6070C758F23A0E70C5E
:103C10008280B717004003A7470D498F23AAE70CFE
:103C200003A7070D1345F5FF45BFB717004083A64F
:103C3000470D1347F5FF758F23AAE70C03A7070C61
:103C4000598D4DB7B717004003A7470D498FEDB702
:103C50009357E50093F70730C98FC2070547C18323
:103C60006382E5048DC10947638DE5040D476380D8
:103C7000E50637170040231FF70883562709D58F1D
:103C80002319F7088280371700400356670993C647
:103C9000F7FFF18E231BD7088326C70C558D2326EB
:103CA000A70CC1BF371700400356670993C6F7FF3B
:103CB000F18E231BD7088326870C558D2324A70C50
:103CC0004DBF3717004083566709DD8EE1B73717C0
:103CD000004083566709DD8EE9BFB7170040130720
:103CE00070052380E704130780FA2380E704D84790
:103CF00001E9D98DCCC7B717004023800704828023
:103D000093C5F5FFF98DFDB71DE5B7170040130703
:103D100070052380E704130780FA2380E70403C7B4
:103D2000E70093C5F5FFF98D2387B700B71700406B
:103D30002380070482808D471307000C63E9C700C6
:103D400097A701009387077BB29703C70700B717B0
:103D50000040930670052380D704930680FA2380E1
:103D6000D70483C6E70093F6F6032387D70083C6FC
:103D7000E700D58DD98D4DBFB717004003D587001B
:103D8000420541819377050491EB9377F50137550F
:103D9000E801130505803345F50282809377050C11
:103DA000130700046397E7009377F50137459C1CE0
:103DB000CDB72165130505D08280B7F700E0C84371
:103DC0009C478280814737370040A14663C4C700C3
:103DD000328582800345B700E38EA6FE3385F50069
:103DE0000345050085072304A700CDB7411122C470
:103DF00006C62A8451372947B307E502B2408D83AE
:103E0000B3D7870222449507B3D7E702373700407C
:103E1000C207C1832316F7404101828071654111B9
:103E20001305052006C6D937B7370040130770F8C9
:103E30002381E7400D47A381E74013070004A380D7
:103E4000E74005472387E740B24041018280B787BA
:103E50000040238007001307C0FC2386E700A386E9
:103E6000E70003D701952398E70003D74195239AEC
:103E7000E70003D78195239CE70003D7C195239ED4
:103E8000E70089462381D70249472383E702238538
:103E9000E7022387E7022389D702A38107001307DC
:103EA00090022380E700B716004003D7A6011367EE
:103EB000070C239DE6007D572383E700130710F8C6
:103EC000A380E7001D472381E7008280B787004079
:103ED0002382A70203C767021377C70F2383E70272
:103EE0008280B78700402384A70203C7A702137705
:103EF000C70F2385E7028280B78700402386A70289
:103F000003C7E7021377C70F2387E7028280B787CB
:103F100000402388A70203C727031377C70F23890D
:103F2000E702828023AC05FE1C4191E701000100FD
:103F30000CC18280BA8703A787FF6DFF23ACB7FE51
:103F400082801DC18346E5FF1307F00F9147639EF2
:103F5000E600411106C697100020E78060CDB24010
:103F600081473E854101828095473E85828001E9F7
:103F7000014582800145B2402244410182804111C5
:103F800022C42A84210542059305D004418106C636
:103F900097100020E78020C071DDFD572320050029
:103FA000231285002303F5002105F1B7138701963D
:103FB0001C43411122C426C24AC006C6014401491D
:103FC000BA8489E7A1658D250DC401A803C7E7FF61
:103FD0006318A7021DC8A165F92E9840832784FFA6
:103FE0006317E40223A0F196FD57232C04FE230F50
:103FF000F4FE2285B240224492440249410182806B
:1040000011E03E8983A787FF6DBF3E84E5BF232C67
:10401000F9FED9BFA9C9411122C406C62A8497371F
:10402000002083C7F7F92E856368F400193F0D451A
:10403000B24022444101828083A785FF99E703C7EC
:10404000E5FF9307F00F6305F700E53D1545CDB794
:10405000238F85FE13850196F13522852244B240D7
:10406000A165410189AE1545828023A00196828019
:10407000938741979C4399E33E85828003D727002D
:104080006316B70003C70700E308A7FEDC47E5B7E0
:104090004111939705014AC006C622C426C2C187B2
:1040A0002E8963DE0700193711C1613D2165334553
:1040B000A900B24022449244024941018280AA866A
:1040C0000145E5D901443D47B3578940858B95CBE0
:1040D0009387C1968443BD4791E28147A2978E079B
:1040E0000545BE9433158500131405019C40C84056
:1040F0004180829723A0040023A2040033452401B9
:104100004DBF0504E312E4FC0144CDBF9737002006
:10411000938747E79C53411122C406C61384418507
:1041200095C7829723AAA1840840B74703009387C5
:10413000D73F3305F502B7A72600938737ECB24087
:1041400022443E9523AAA184410182809737002012
:10415000938707E718409C4BBA9723AAF184E9B7E5
:104160009387419690439736002083C676E5814732
:1041700013F7F70F6361D70A173700200347F7F9E2
:10418000914763E1E70A9737002083C7A7FD918B2A
:10419000D1EB0111680006CE22CC26CAEFB09059AF
:1041A0007D576308E50EB247173400200344B4DEA0
:1041B0006374F40C97370020938787E0C4479737E0
:1041C000002083C767DD6386E406858BA9CFD147CE
:1041D000B384F4026372940A97000020E780A0275A
:1041E000B24763F3F400A687173400200344B4DA1F
:1041F000818F3384A700973700209387A7D88387C0
:10420000470163CE0702B707C0A8636AF402B70785
:1042100040573E942DA085071397170032970357F8
:10422000E7FF39D7828093079002B384F402858038
:1042300055B7E207E18763D607043304854003D509
:10424000A19697000020E78080F919E03704C0A804
:1042500097370020938707D3DC532285829709ED97
:1042600097370020938707EB9C4F99C7EF00911277
:10427000EF00F16AEF007106F2406244D24405613A
:104280008280E37C85FAB707C0A8338487402A94EC
:104290007DB7973700209387A7D2DC47E38EA7FC32
:1042A00017370020130707CE83464701BA84858A53
:1042B0009DC65144338487029737002083C7B7CD0A
:1042C000E3FC87FA97000020E780E018973700208A
:1042D00083C777CC1D8C2A94838744011DB71304B0
:1042E0009002338487020580C1BF2A9609E5828047
:1042F0000505A30FB5FEE31DC5FED5BF81473307F6
:10430000F5000307070019E33E8582808507C5BFD6
:1043100001112E8626CAAA84131506019305F004FE
:10432000418122CC06CE32C697100020E780A086BD
:104330002A8419C53246A68597000020E78020EC24
:104340002285F2406244D244056182808147631431
:10435000F600054582803307F5008507B386F50032
:104360000347070083C6F6FFE383E6FE014582802C
:104370009307F6FFBE952A966313C5008280FD154C
:1043800083C715000505A30FF5FEFDB7814711E9A9
:10439000014582803307F50003470700E31AB7FEA3
:1043A0008507E319F6FE054582809737002093873D
:1043B00027C1884B82809737002083C777C0637FEF
:1043C000F500138741969317150008433E958357D0
:1043D0000500DD8D2310B500014582800D458280EA
:1043E000FD570111173700202322F7BE938741970D
:1043F00022CC804326CA4AC84EC652C406CE56C2F4
:104400002A898144973900209389C9B7173A002037
:10441000130A0ABB184481476374E900B3072741B4
:1044200003A749021CC409CB0327CA0063F6E700AF
:1044300017370020232CF7B8A1E3835524009DE50E
:104440005C44A1E423AAF196832AC4002285970044
:104450000020E780E07D568455FCF2406244D2445F
:104460004249B249224A924A0561828003450400CA
:1044700099375C4081CB1CC483572400F1D3A284BC
:104480004044D9BF1C44CDDFC5BFDCC475BF9737DE
:10449000002083C7F7B26371F50213874196931723
:1044A0001500084393C5F5FF3E9583570500FD8D24
:1044B0002310B500014582800D458280973700208A
:1044C00083C717B06364F50001458280411122C49F
:1044D00026C24AC006C62A842E89B284EFF05FB98C
:1044E00001C504C505452DA0936504F0C205C18131
:1044F000414597000020E780006A0DE197370020D2
:10450000938747A89C5B81C7A28511458297014587
:10451000B2402244924402494101828093874197EC
:104520009C438DE323AAA19685472326050004C555
:104530002311250123008500A300F5002322050097
:1045400055B7BA87D84775FFC8C7F9BF45C5397190
:104550005AD0138BC19622DC26DA4AD84ED652D4D2
:104560005ECE66CA6AC86EC606DE56D262CC368990
:10457000328AAE89AA8401445A8DB94D854BF94CD3
:1045800003270B00131C3400937AF40F62971C432B
:10459000A9EF13B5FA0013451500B3978B0063F626
:1045A0005D01930714FFB397FB0093950701C18149
:1045B000528629371DC983270D000145E29784C320
:1045C00023A237016304090023005901F250625409
:1045D000D2544259B259225A925A025BF24B624C5F
:1045E000D24C424DB24D216182800504E31A94F908
:1045F0002145E9BF09458280411122C426C24AC033
:1046000006C6AA842E893284553DCA852685EFF0D8
:104610003FA609C940C10145B24022449244024923
:10462000410182802145CDBF411122C426C24AC02A
:1046300006C6AA842E89EFF0BFA32A8419C12311CC
:104640000500CA852685A135014511E01945B2400E
:10465000224492440249410182807547636BA7045A
:104660001387C1961443411126C293143500A696B0
:10467000944222C406C6AA873A84094595C613B552
:10468000F7003947134515006373F700C5178545D3
:10469000B395F500C205C181413F1C400145A69775
:1046A00023A0070023A20700B24022449244410104
:1046B000828009458280411106C6EFF07F9B09C5C3
:1046C0000845B240410182800145E5BFF54763EDF1
:1046D000A7049387C1969C4313173500BA97984354
:1046E000894721C7011126CA06CE9334F50022CC92
:1046F000B94793C4140063F3A70045150544331468
:10470000A400420441802EC62685A2856D378947C4
:10471000324609C5A285268555338147F240624459
:10472000D2443E850561828089473E8582802394FC
:10473000A1962395B1968280411106C623A8A19621
:104740000295B2409737002023A6A7880145410172
:104750008280994763E9B7008A05973700209387DD
:104760002788BE9588C18280411106C622C426C210
:10477000EF50015D714681451735002013054586D0
:10478000EFF0BFB617340020130484831306000231
:1047900022858145EFF07FB523AA019623A80196D3
:1047A0009727002083C7C77F13D527008D8B3E95A1
:1047B0008D473305F502994793051010938481972F
:1047C00035051375F50F2301A4003305F502130514
:1047D000050F97000020E780003C23A6A1968347A1
:1047E00024001305050F88C08A073E9523A2A196D1
:1047F000EFF0BF87A92683471400984017060000F2
:104800001306468993962700BA9690C2938627008E
:10481000850793F7F70FA300D400B24022448A071C
:10482000BA9790C39244410182809727002083C7A2
:104830003779172700200347C77863F1E70213870A
:10484000819718439386170017260020A30AD6766F
:1048500093962700369708C33E8582809307F00F12
:10486000E5BF1C416387071441777D8FB7060020A1
:1048700089476311D71403574500630D071241118F
:1048800022C419462A849305F00F590506C6EFF095
:10489000FFAF05478D476309E5101306C003814547
:1048A000172500201305056EEFF03FA41306C00383
:1048B000A285172500201305E56C97000020E780EE
:1048C0000094172700200357A76C97270020938791
:1048D000676B19E71307002097260020239AE66AE2
:1048E000172700200347E76A11E7054797260020AE
:1048F0002381E66A172700200347B76911E76D4750
:1049000097260020A387E6681727002003478768BB
:1049100011E7154797260020238EE666172700200B
:104920000347576711E7054797260020A384E666EB
:10493000172700200347576619E703C70701972683
:104940000020A38BE664172700200347C76411E704
:104950005147972600202380E6641727002003474D
:10496000476419E71307800297260020238BE6622D
:10497000172700200347376219E71307D00297264D
:104980000020A38AE6600347D40111E70947972670
:104990000020A387E6609C5791C782979727002045
:1049A0002393A762D1338147B24022443E8541011F
:1049B000828089473E858280011122CC06CE2A84DE
:1049C0002EC6EFF0AFF4B245F240818D33A5A502BB
:1049D000229562441375F50F05618280011122CC86
:1049E00006CE2A842EC6EFF06FF2B245F240818DDA
:1049F00033A5A5022295624442054181056182806A
:104A0000011122CC06CE2A842EC6EFF02FF0B2453B
:104A1000F240818D33B5A502229562440561828002
:104A20009727002093870756985725C3411122C422
:104A300026C206C6BE840297172700200357A75830
:104A40002A8441C7BA876373A700AA87C207C183B4
:104A5000BA866373E400A286C206C182958F51476D
:104A60006355F706DC5491C38297854717270020CA
:104A70002306F76AEF00E156972700202395875415
:104A8000B24022449244410182809727002083C78C
:104A9000E7689DE7972700209387C76783C797003C
:104AA000850793F7F70F17270020A309F766A18B57
:104AB0009DC78547172700202312F7666F002158EE
:104AC00097270020A38C0764D5BF9727002083C7B2
:104AD000E764DDD72244B24092444101C5B78280E9
:104AE000972700209387074AD857011122CC06CE7A
:104AF0003E8401C72AC60297324511CD23AEA19646
:104B0000170500201305A596EFF01FC3F24062447D
:104B10000145056182808307440163DD0700972713
:104B2000002023AB074A970700209387E78E23AE28
:104B3000F196F9B7970700209387E791CDBF011150
:104B400022CC172400201304E443084406CE26CACE
:104B500019E50545F2406244D244056182805C5803
:104B6000EDDB185C7DD77000854582971844B2470D
:104B7000E301F7FE8357C400172500200345654174
:104B80009305E0043305F502972400209384444301
:104B90004205418197000020E780E0FF17270020B1
:104BA000232EA7425DD59727002083D7673E17267F
:104BB00000200346063E3306F6029305F00FEFF0A1
:104BC000CFF2D04C08449727002083D7673C08C217
:104BD0009725002083C5E53BB385F5021C5C8981E0
:104BE0008297C84C97000020E780800401459727F2
:104BF000002023A5073EB9BF411122C4172400207D
:104C0000130444381C4426C206C69724002093840B
:104C1000243BADCB1C5CBDC7DC4C8DE78357C40087
:104C2000172500200345E5369305E0043305F5021A
:104C30004205418197000020E780E0F5972700209A
:104C400023AEA738C84C1DCD9727002083D7473403
:104C5000172600200346E6333306F6029305F00FCD
:104C6000EFF0AFE8D04C08449727002083D74732B5
:104C700008C29725002083C5C531B385F5021C5CA9
:104C800089818297C84C09C997000020E78040FAC3
:104C90009727002023A40734B240224492440145C0
:104CA00041018280011126CA972400209384443157
:104CB00022CCC04C4EC652C456C206CE4AC8AA8A9E
:104CC000AE89328A31EC172900201309A92B8327DA
:104CD000890099E3A94471A08357C90017250020D2
:104CE0000345252B9305E0043305F5024205418178
:104CF00097000020E78020EA2A8441C583274903E2
:104D0000C9C39725002083C5C5281727002003574E
:104D10002728B385E5022A860325890089818297A1
:104D200091451307A005898193972500A29783C613
:104D300007006395E60483C61700639E5603850546
:104D40008A054E86A295528597F0FF1FE780204B7B
:104D5000DC4C814463878700228597000020E78030
:104D600020EDF240624426854249D244B249224AAB
:104D7000924A0561828083D5270075B7DC4CE38BAE
:104D800087F4228597000020E78080EAA1B7972763
:104D900000209387271F984729CB9C5FB9C785467A
:104DA0006315D504411122C41724002013044421A3
:104DB000504C06C61DC69726002083D6661D972533
:104DC000002083C5051DB385D5023A858981829768
:104DD000484C97000020E780A0E59727002023AFEC
:104DE000071EB24022444101828082809727002022
:104DF0009387071DD84F011122CC26CA4AC852C436
:104E000006CE4EC62A89AE8432843E8A35E797297B
:104E100000209389291783D7C9001725002003454F
:104E200045179305E0043305F502420541819700DB
:104E30000020E78040D69727002023A1A71A2A86C2
:104E400011E92945F2406244D2444249B249224A1A
:104E50000561828003A5890005C183A7490389CF25
:104E60009725002083C5E512172700200357471216
:104E7000B385E502898182970325CA01914613080B
:104E8000A005FD5593D72600C207C18313972700BD
:104E90002A9703460700631B06038348170003563F
:104EA000270063932803B306D64063CD9600850799
:104EB0008A073E952686A28597F0FF1FE78020345B
:104EC000014549B7A300B700B2866DBF1726002081
:104ED0000356060C9725002083C5A50BB385C50294
:104EE000338696001106E3EEC5F413863400719AFA
:104EF0001106B29623000701A30027012311D70052
:104F00007DB7972700209387A70BD44F8DCE91476D
:104F10001306A0059305F00F89838A07B69703D778
:104F2000270003C5070009830A073697631DC500DC
:104F3000034517006316B500035727002391E700C8
:104F400083D72700D1BF01458280011106CE2EC62E
:104F5000EF70202B01C9B245F240035525000561D1
:104F60006FA0E04BF240494505618280A384019A1D
:104F70002384019A23A8019823AA019823AC0198BD
:104F800023AE019823A6019823A401989727002017
:104F90009387C7063707B40098C33747A000D8C324
:104FA000370710009306070A94C7B7065000C106DA
:104FB000D4C7930607054107D8CB3707D007410769
:104FC00098CF37070F0098D337C70700130707B8E4
:104FD000D8D3416794CB93060701130717F8D8D7A6
:104FE000417723AE070094D798DB8280011126CA4F
:104FF000AA84214522CC06CE2E8432C636C43AC2BB
:10500000EFE0FFF61DC9A24612473246930700FDA6
:105010002300F5009947A30095002301F500230321
:10502000D500A303E5002312C500AA8522856244AA
:10503000F240D24405616FE0FFFDF2406244D24489
:105040000561828023A8A198828023AAA1988280EA
:1050500023ACA198828023AEA1988280011122CC3A
:105060004AC806CE26CA2A890144B3048900636867
:10507000B400F2406244D2444249056182802EC6A7
:10508000EFF0CF8893170501C183A183B245238038
:10509000F4009307140093F7F70F850463F9B70042
:1050A000CA9709042380A7001374F40F7DBF3E84C0
:1050B0007DBFC167172500200355E5F7FD17630283
:1050C000F502411103C641A39385019A06C6EF601C
:1050D000107DB240FD5717270020231EF7F4410131
:1050E0008280828009C925151375F50F1335850E49
:1050F0001345150082800145828023800500F94711
:1051000063E2C708797122D426D24ECE56CA5AC855
:1051100006D64AD052CC5EC63684B289AE8A2A8B75
:10512000814463FF3405B307940003CA0700138961
:1051300014001379F90F63050A04B3072A0163C148
:10514000F904B307240183CB07005E85613F0DC9D5
:105150009307FAFF2380FA0063906B03130519008D
:105160002295B250225492540259F249624AD24ACC
:10517000424BB24B45618280D29493F4F40F55B701
:105180000145C5B701458280411126C2AE8422C4C3
:105190009727002023A8C7EA9727002023A2B7EA71
:1051A0009727002023ACA7E82A8441469305F00FF7
:1051B00026854AC006C60549EFF04F9D631E2503AC
:1051C000972700209387C7E6884BC145413D41465C
:1051D0009305F00F2285EFF06F9B854463169502CF
:1051E0002244972700209387A7E4B24092440249C3
:1051F000C847C14541019DB5414681452685EFF02F
:10520000EF98E31625FD6DBF414681452285EFF0FD
:10521000EF97E30795FCB2402244924402494101D2
:105220008280411122C426C22E84AA841306000261
:105230008145172500201305A5DF06C6EFF0EF8A8C
:1052400097270020A38797DEA38B81A2EFA0A01E43
:10525000854719C181474945B2402244172700209C
:105260002308F7DC924441018280814781CD19C92E
:105270008547631BF50083C7550093E707FCA382AE
:10528000F50085473E85828089476317F50083C70F
:10529000550093F7F703E5B70D478547E314E5FE9F
:1052A00003C755001377F70313670704A382E500CC
:1052B000D1BF81478DC105C103C755009306000CBE
:1052C00085471377070C6308D700930600048D47C2
:1052D0006303D70089473E858280411122C4005D67
:1052E00006C626C21DC8AA84085009C5970000201A
:1052F000E7800094485009C597000020E78040935C
:10530000085409C597000020E78080922285970005
:105310000020E780E09123AC0402B2402244924492
:105320004101828009ED9727002083C787D0172588
:105330000020130565D181CB138501988280172544
:105340000020130565D0828017250020034565CE17
:105350008280972700209387A7CDC8478280972710
:1053600000209387E7CC884B828097270020938783
:1053700027CCDC4B8843828097270020938747CB3C
:10538000D84B1C4385071CC317250020034575CA4D
:105390009307F00F6305F50091656FF0CF81828070
:1053A000011122CC06CE2E8432C6EF60D074914714
:1053B000B245631FF5009387C1999C438DC303A336
:1053C0000700630E030022856244F24005610283F8
:1053D000938741999C4381C703A34700DDB7F240FF
:1053E0006244054505618280011122CC2A8403555F
:1053F000450006CE26CA4AC84EC6EF60105835C5CD
:105400002A89834405008349C500C13D4A85EF7060
:10541000104803554400EF60906983C7819AB1CB6F
:105420006399970483C5919A2685EFF01FB219E11D
:105430002384019A03554400EF60F06B9147631F8A
:10544000F500035744009727002083D7C7BE631792
:10545000F700FD5717270020231FF7BCF2406244D6
:10546000D2444249B2490561828081499304F00FD8
:105470006DB79307F00FE38FF4FA83466400035689
:105480004400034524004E87A685EFF03FB65DB784
:1054900079715EC6AA8B2E8552CC56CA5AC806D6DA
:1054A00022D426D24AD04ECEAE8A328B368AEF60D4
:1054B000D04C6DC1045D2A89F1CC9C50614599C3E3
:1054C000130540039C5481C7510542054181630582
:1054D0000A00710542054181DC5081C7590542052A
:1054E0004181EFE0DFA82A8455C561468145EFE0A0
:1054F000DFDF9729002083C969B3639409008349DA
:105500000900930700FD2300F400A947A3007401DC
:105510002301F400230364018C502312540113056A
:10552000840191C908C47146930A440397F0FF1F90
:10553000E780E0CC56858C5491C948C45146930A03
:10554000450197F0FF1FE78080CB5685630C0A006A
:1055500008C87146D285930AC50197F0FF1FE780FE
:1055600000CA5685CC5099C548C8594697F0FF1FC8
:10557000E780E0C8A2854E85EFE0DFA92254B25053
:105580009254F249624AD24A424BB24B4A8502597E
:105590004561A1B3B250225492540259F249624A71
:1055A000D24A424BB24B4561828001114EC6AA8954
:1055B0002E854AC806CE22CC26CA2E89EF60F03B43
:1055C00031C59724002083C464A699E08344050074
:1055D0001945EFE0DF992A8415C981451946EFE0A6
:1055E000DFD0930700FD2300F400B947A300340186
:1055F0002301F40023122401A2856244F2404249AF
:10560000B2492685D24405616FE0DFA0F2406244D2
:10561000D2444249B2490561828039715ECEAA8B7B
:105620002E8526DA4ED652D456D25AD006DE22DC49
:105630004AD8AE84328BB68A3A8ABE8942C6EF60B7
:10564000D03331C92A894145EFE07F922A8421C5B0
:1056500041468145EFE07FC9172500200345059DA0
:1056600019E103450900930700FD2300F400BD473D
:105670002301F400B247A300740123129400230411
:105680006401A304540123054401A30534015CC44F
:10569000A285EFE03F98F2506254D2544259B25979
:1056A000225A925A025BF24B21618280797126D292
:1056B000AA8439454AD04ECE06D622D42EC6B28907
:1056C0003689EFE0DF8A21C1B2459307000D231030
:1056D000F500B1472A842312B5002301F500CE85D9
:1056E0001905194697F0FF1FE78060B123062401D2
:1056F000A2852254B2500259F24913F5F40F925484
:1057000045616FE03F91B250225492540259F249E0
:1057100045618280172700200347B7919307F00F58
:10572000630DF706411126C2AA84394522C406C674
:105730004AC0EFE0DF832A8439C9930700FD2300C4
:10574000F500A3009500230105009725002093850F
:10575000A58F0D05194697F0FF1FE78040AA17296E
:1057600000201309E98C83578900A28517250020A2
:105770000345358C2315F400834719002306F400F4
:105780002244B2409244024941016FE0BF88B240D6
:10579000224492440249410182808280011156C212
:1057A000AA8A314526CA4AC84EC652C406CE22CC61
:1057B000AE84328AB6893A89EFE06FFB29C92A8420
:1057C0002685EF60901B1DCD03450500930700FD66
:1057D0002300F4009D47A30054012301F400231289
:1057E0009400231344012314340123152401A285BA
:1057F0006244F240D2444249B249224A924A056187
:105800006FE05F81172500200345B582C1B7F240E4
:105810006244D2444249B249224A924A0561828096
:10582000397162CC2A8C594526DA4AD84ED652D4E0
:1058300056D25AD05ECE06DE22DCAE8432C636C4E4
:10584000BA8B3E8BC28A468A8359010403494104BC
:10585000EFE0EFF135C53246930700FDA246230085
:10586000F5009547A301C500A30085012301F500BC
:105870002A8419461105A9C2B68597F0FF1FE78053
:10588000009823066401230A2401231574012317B9
:1058900054012318440123193401A2856254F250A3
:1058A0004259B259225A925A025BF24B624C2685F7
:1058B000D25421616FE00FF68145EFE01FA3D1B70D
:1058C000F2506254D2544259B259225A925A025B4F
:1058D000F24B624C216182809717002083C7677565
:1058E0008DCB4111AA8519461385019806C697F0FC
:1058F000FF1FE780C090938501981715002003458E
:105900004573EFF09F96B2401385019841016F9067
:10591000103301458280411106C622C426C21717E2
:105920000020034717719307F00F6308F704AA8458
:105930002945EFE0CFE32A8429C1930700FD230026
:10594000F500A1472301F500A3009500971700205B
:105950009387076E83C72700938501981105A30FCE
:10596000F5FE194697F0FF1FE7806089A28517159D
:1059700000200345156CEFE0EFE9171700200347FF
:10598000676B85476315F702938781999C4381C7AD
:105990009C4791C382972244B24092445D6603C5FE
:1059A00041A313060670914541016FE0FFC4B24068
:1059B0002244924441018280797122D406D626D2B3
:1059C0004AD04ECE52CC094445C92A890355050018
:1059D0002E8A5144EF60607AAA8459CD83C771A39F
:1059E000FD1793F7F70F054749446377F708034717
:1059F000C500A1476314F70063100A089C5C454486
:105A0000A5EF9165938545711305C00297F0FF1FBF
:105A1000E780601888DCAA894D4439CD1306C0029E
:105A20008145EFE09F8C83570900938649003685B6
:105A30002391F90071469305490036C697E0FF1F90
:105A4000E780E07B89472380F90003C5C400B246A4
:105A500003560900611583C541A313351500EF8076
:105A6000907D2A8463060A00D2852685EF70500D4A
:105A700001C42685EFF07F862285B25022549254CD
:105A80000259F249624A4561828083C771A3FD17BA
:105A900093F7F70F05476378F708894751C6011157
:105AA00022CC26CA4AC84EC652C406CEAA89368A15
:105AB000B2842E89EF60606C2A84D14729C9485589
:105AC00009C597F0FF1FE780A016F1452685EFE096
:105AD0003F8448D4CD4705CD8346C4002147814744
