:040000006F10C0229B
:1000040000000000000000006F0080086F00205313
:1000140000000000000000000000000000000000DC
:1000240000000000000000000000000000000000CC
:100034006F004006000000006F00E00500000000B3
:100044006F0080056F0040086F00E00C6F00200512
:100054006F0000056F00E0046F0040060000000020
:100064006F0060046F0040046F0020046F00000400
:100074006F0060106F00C003000000006F00600399
:100084006F0040036F0020036F0000036F00E00265
:1000940001A001A001A001A001A001A001A001A054
:1000A40001A001A001A001A001A001A001A001A044
:1000B40001A001A001A001A001A001A097E0FFDF21
:1000C400E780E0B273002030B717004083D7C70938
:1000D40013972701635A0702938781869C438507F8
:1000E40023A4F186938701869C4323AEF18297F083
:1000F400FFDFE78020B823A0A186B71700407D5713
:10010400239EE70873002030938701839C4385076F
:1001140023A8F182C1BFB717004083D7E709C207FC
:10012400C18763DA0702938701849C43850723A070
:10013400F1849387C1859C4323ACF18297F0FFDF60
:10014400E78040B323AEA184B71700407D57239FB7
:10015400E70873002030938741869C43850723A2D8
:10016400F186C1BF411106C697E0FFDFE780A02FEB
:1001740029450129D5BFB717004013070003238879
:10018400E702854723A8F186730020304111814698
:1001940001468145114506C6F921B727004011479C
:1001A4002383E780B7F700E003A707D16D9B23A85B
:1001B400E7D003A707D15D9B23A8E7D073005010B5
:1001C40001000100B2404101828041118146014693
:1001D4008145114506C64129B727004011472383AD
:1001E400E780B717004003C7E70283C6E70483D755
:1001F400870311661377F70F93E6360063E5C700AC
:10020400719B13671700B71700409305700523808F
:10021400B704130680FA2380C704238207022387C6
:10022400E7022387D70403C7B70413670702A3852C
:10023400E7042380070437F700E0832607D193E619
:1002440046002328D7D0832607D1DD9A2328D7D088
:1002540073005010010001002380B7042380C704F9
:1002640003C7B7041377F70DA385E70423800704B6
:10027400B24041018280411122C4814681452A84D1
:100284000146114506C6C526B727004011472383FA
:10029400E780B717004003C7E70283C5E70483D7A5
:1002A400870391661377F70F93E5350063E5D7006D
:1002B400719B13671700B71700401306700523805E
:1002C400C704930680FA2380D70423820702238776
:1002D400E7022387B7042380070437F700E0832568
:1002E40007D193E545002328B7D02380C704238092
:1002F400D70483C5F70093E50504A387B70083C536
:10030400B70493E50502A385B704E57591054D8C03
:100314004204418023908702832507D1DD99232855
:10032400B7D073005010010001002380C70423805C
:10033400D70403C7B704130560041377F70DA38527
:10034400E704238007042244B240410125A401119B
:1003540026CA81460146AA848145114506CE22CC8F
:100364004AC84EC60926B727004011472383E780B1
:10037400B716004083C7E60203C7E60483D68603A4
:10038400116693F7F70F1367370063E5C600F19B17
:1003940093E71700371400409309700523003405D0
:1003A400130980FA23002405230204022307F4021C
:1003B4002307E4042300040413055002B920B7F70B
:1003C40000E003A707D11367470023A8E7D0230061
:1003D4003405230024050347F40013670704A30727
:1003E400E4002567D98C2310940203A707D15D9BF1
:1003F40023A8E7D07300501001000100F2406244CA
:10040400D2444249B24905618280B717004093063D
:1004140070052380D704130780FA2380E70403C6FA
:10042400B7041376F60DA385C70423800704137657
:1004340005022DC603C6A700118A0DE22380D70446
:100444002380E70403C7A700136747002385E70059
:100454009307004B01000100FD17EDFFB7170040A3
:10046400930670052380D704130780FA2380E704DA
:100474007D892394A700010001000100010023806D
:1004840007042380D7042380E70493061005372745
:100494000040A303D78023800704828013760504D9
:1004A4006DDE03C6A700418A0DE22380D7042380B2
:1004B400E70403C7A700136707012385E700930731
:1004C400007D01000100FD17EDFFB7170040930602
:1004D40070052380D704130780FA7D892380E704FD
:1004E400136505042394A700010001000100010025
:1004F400238007042380D7042380E7049306300570
:100504003727004079B7411181460146814511459D
:1005140006C6912AB7170040130770052380E70425
:10052400130780FA2380E70403C7670413671700DF
:100534002383E70423800704B2404101828081467B
:100544000146814511450522B71700401307700580
:100554002380E704130780FA2380E7047D5723965A
:10056400E70203C76704136717002383E7042380A4
:10057400070401A0BD473305F50201007D1575FD93
:100584008280411122C426C206C6AA84014463178C
:100594009400B24022449244410182800504130530
:1005A400803E4204C13F4180DDB7230304801547E8
:1005B4002303E48001002302A480828083076480F3
:1005C400E3CE07FE23030480828083076480E3CEA6
:1005D40007FE03454480828083076480E3CE07FEE0
:1005E4002302A4808280411126C44AC24EC006C69A
:1005F4001377F50BAD47AA892E8995446306F70056
:1006040019456537653F8D444E854537FD59FD14C1
:1006140063983401B240A244124982494101828064
:10062400135509011375F50F453F2209CDB7011183
:1006340026CC06CEB704080051371545BD377137AF
:1006440069372AC6A53F32459377150089EB1365B0
:1006540015001375F50FF240E24405618280FD1424
:10066400E9FC0145CDBF397126DC4ADA4ED852D6B1
:1006740056D45AD25ED006DE62CE66CCB7E700E02E
:100684007D5783AA070022C603AA470023A0E718C0
:1006940023A2E718B7170040130770052380E70467
:1006A400130780FA2380E70483C74704930B75FF7D
:1006B400B684E20793FBFB0F8546AA892E8B328909
:1006C40037240040E187015763FA76016308D500B7
:1006D4008946130700026313D5000157D98F93F796
:1006E400F70FB71C00402382FC0411472303E48066
:1006F4001305F00F5D3D094CD13563697C11B707D3
:1007040007003E9B378707007955637EEB02B307EA
:100714009B00636AF702A9476399F90689E4814457
:10072400713D26850DA0DA850945753D050903450A
:10073400F9FFFD14050B4D3581C49377FB0FFDF7CD
:10074400FD3569FD7D55B7170040130770052380FB
:10075400E704130780FA2380E70403C74704418BA7
:100764002382E704F250B7E700E023A0571123A245
:100774004711E25432445259C259325AA25A125BB6
:10078400825B724CE24C21618280A5476395F90635
:1007940085691309F00FB3069900B3742B01B6945D
:1007A4001349F9FFB3749900856B33796901416B7F
:1007B4009387F9FFB3F7270199E363FC340193D9D5
:1007C4004900C147E3E637FF99BF0569C1697D194F
:1007D400D9B71305800D638869011305000263848A
:1007E400790113051008CA85FD3B913521DD4E9929
:1007F400B3843441D9B7DA852D45F533CA94E3007F
:1008040099F20509D933A30FA9FED5BF9387F9FF40
:1008140093F7F70F636CFC0803C75C04B707080081
:100824001377070219E3B78707007955E37DFBF0D7
:1008340033079B00E3E9E7F089476390F904898073
:10084400D549E38E04ECDA850945713B1109032788
:10085400C9FF91472320E48003076480E34E07FE29
:1008640023033481FD17EDFBFD14110B81C4937731
:10087400FB0FE9FF6D3B71F5F1B58547E387F9F4AB
:10088400DA852D458D339389F4FFE38A04E8353BFB
:1008940093F7390091EB832604800327090093071B
:1008A4004900E39FE6E63E89CE84F1BFB5476396EF
:1008B400F9001305900BD5399DB5B1471305B00A5E
:1008C400E38BF9FE9947639EF902DA852D45213BB6
:1008D40081448D4BA149D5396396740183270480E3
:1008E4002320F9008504E39834FF83270480131739
:1008F4002B01635507002312F90015B52322F900D3
:1009040039BD9D476399F90281451305B004E13966
:10091400BD442320090023220900FD597D3193F7AA
:100924007400CA9703C70700FD14398D2380A700FC
:10093400E39634FFEDB3A1476392F904CD398144C2
:10094400630D0B008D479304C0036308FB009304FD
:10095400000563048B01930440041375C507E30089
:1009640095DC194599319939054581312685AD3193
:1009740009459D316D39E31405DAE9B3914763996B
:10098400F90013056006153115391305900925B7CB
:10099400E38709D8F15469B319CDB7170040130799
:1009A40070052380E704130780FA2380E704239665
:1009B400A70223800704828019C1814799E98280B4
:1009C4003387F500834607003307F50085072300C6
:1009D400D700E397C7FEE5B719C1FD5781E98280C7
:1009E400910503A7C5FF1105232EE5FE7D16E31926
:1009F400F6FEF5B7797122D4138481AA1C4006D679
:100A040026D24AD04ECE81C7829723A401AA5C4045
:100A140089CB03D5818949375C40829703D5A18965
:100A2400A53F1C406396071483C791AE858B85C38D
:100A3400A38401AE03C7B1AE914763FAE70019215D
:100A440083C7B1AEF9178A07A2979C43829783C7DD
:100A540041B3918B89C797F0FFDFE780202D1C44B9
:100A640091C3829793874189984303C691A83E898D
:100A7400938481A883C781A893961700BA9683D6D6
:100A84000600638F060C83C781A863F3C706860735
:100A94003E97835507002310070003D581892EC68E
:100AA400E53D9387418A9C4303C581A8131725001C
:100AB400BA979C43B2458297AA8903D5A189E93D97
:100AC40083C781A81397170083270900BA9703D710
:100AD4000700B3E9E9002390370183C704008507C1
:100AE40093F7F70F2384F1A803C791A863E4E70001
:100AF400238401A81C40ADEF9387C18998433E84A9
:100B040025CB83C7F1AE81CB83C7B1AE89E797F01C
:100B1400FFDFE780200F1C4082972A8431C99C485C
:100B2400AA9723ACF1A89387018A9C4381CF03D56C
:100B340081899D35228597E0FFDFE780801603D504
:100B4400A189993D9387C1A4DC539DC32254B2501B
:100B540092540259F249456117E3FFDF670083F9B4
:100B6400850793F7F70F2384F1A8E3E5C7F021BFC6
:100B7400B250225492540259F249456182809167DD
:100B8400B7C600409387373023A6F6200F10000025
:100B9400938781A8884F9387818D9C43316713077E
:100BA4003730F053B7071000FD17918F99833A053A
:100BB40023A6E6205D8D82804111B7170040985F1F
:100BC4003AC6945F3247E39CE6FE32454101828097
:100BD400411106C6D53783C601A6858AB1C29307DB
:100BE40030333307F502B337F5023983CA07D98F97
:100BF400138781A8584B01456301F7023385E74009
:100C0400636BF70037653D0889C637856F081305A0
:100C14000590198D3E9523AEF1A8B2404101828022
:100C2400E5473307F502B337F5022583DE07C1B77D
:100C34005D7122DE1384818C3AD218403ED04ACAB8
:100C44001C5F86C696C499839AC29EC026DC2ADAA3
:100C54002ED832D636D442CE46CC72C876C67AC4A2
:100C64007EC2858B1389418CB5C31C5F938441AECE
:100C740093F7F7F91CDF83C741AE93F7070489CFD5
:100C84009387818A9C43829723AAA1AE83C70400D9
:100C940093F7F70B2382F1AE8547A384F1AE83C7A4
:100CA400440093F7070491EB9387818D9C43D844C8
:100CB400B8D3930700FC2384F1AE8387640063D721
:100CC4000700832709009C432385F1AE18401C5F6D
:100CD4008583858BC9CBF5571CDF0100010001001A
:100CE40001000100010001000100010001000100F8
:100CF40001000100010001000100010001000100E8
:100D040001000100010001000100010001000100D7
:100D140001000100010001000100010001000100C7
:100D240001000100010001000100010001000100B7
:100D340001000100010001000100010001000100A7
:100D44000100010001000100010001000100010097
:100D5400010001000100010001009387818D9C4383
:100D640013075004B8CB18401C5F9183858B99CB33
:100D7400BD571CDF9387818D9C4323A807048547B7
:100D84002384F1AE83270900D8430583058B19C753
:100D9400D843759BD8C3D843799BD8C37254B64003
:100DA400A64216438643E2545255C2553256A256C1
:100DB400125782577248E2485249424EB24E224F6D
:100DC400924F616173002030138741AE834747001F
:100DD400858B99EB83472700858B99E783473700F9
:100DE400858BEDD7238401AE82809387418D9C430C
:100DF40099CB944BD04B9842518F98C294439C47C3
:100E04009842D98F9CC29387818D9C4337C70040F9
:100E14001306C003A8CB93062003938541AE832712
:100E24008720C18393F7F7036369F600832787203C
:100E3400C18393F7F70363E6F60083C74500858B08
:100E4400F9DF8280138741AE83474700858B99E79A
:100E540083470700858B91C7238401AEA38401AE29
:100E6400828083471700858BE5D3FDB79387418D37
:100E74009C4399CB944BD04B9842518F98C2944346
:100E84009C479842D98F9CC29387818D9C4337C7D6
:100E940000404146A8CBE546938541AE8327872091
:100EA400C18393F7F703637DF60083278720C1830B
:100EB40093F7F70363E6F60083C74500858BF9DFF4
:100EC40082801387818C1843AA87185F1583058B4A
:100ED40035EB0345150015051377C51F19C6B386F1
:100EE400E70083C626002300D60085C583C6A1AECD
:100EF40093F606040945A1CAB386E70083C6360003
:100F0400054693F5F6066390C504E206E18663CCD4
:100F140006023385E7008347150003470500A2074F
:100F240093F70770D98F139707014183937607408E
:100F340099C6136707802398E18C01458280239822
:100F4400F18CE5BF05458280011136C89386818DF9
:100F54002ECC8C423AC63EC498452ACE32CA931748
:100F6400070142C2C1831378172036853E869386D3
:100F740041AE630008041377072061C303C726004A
:100F8400136717002383E1AE13070019B8D11307C1
:100F940000F82384E1AE1387818C0C4337080010DA
:100FA400D855719B13672700D8D59841336707013B
:100FB40098C11377261001CF1376061051CA03C7C0
:100FC4000600136717002382E1AE239601AE83C6A1
:100FD400460093C7F7FFC207E206E186C1831841C2
:100FE40063DF06009396170163DB060630538D46D4
:100FF40063E7C60085462384D1AE3453FDFE938651
:10100400C1A48386460163DD060093960701C18669
:1010140063DB06047053894663E4C6007453FDFE23
:1010240014477245E245F58F1CC75246C246324703
:10103400A247124805617300203003C716001367E6
:101044001700A382E1AE238401AE239601AE95B7C7
:1010540003C7360013671700A383E1AEBDB7854607
:101064002384D1AE69BF544713960601635D06001D
:10107400B7061000FD1674D3938681A8944E850696
:1010840023A0D1AA71BFA166D58F59BF138701B020
:101094008346B70183C751B3B69793F7F70FFD465D
:1010A40063E0F6044C4BA380F1B083C711B005474D
:1010B4003317F700A38AF1B26D8F1DEB83C691B38A
:1010C400B3F6D70213050002814733D6F500058A2B
:1010D40013F8F70F19CA6397E600A38001B1828061
:1010E4008117C9B705071377F70F8507E39FA7FC97
:1010F400828041C9AA870145D9C58D07C207C1832A
:10110400F19BC207C183130740036369F702138786
:10111400C18E08431387418E14436394A602138738
:10112400C1A4185B014525C34111C20706C6054584
:10113400DD8D0297B2400145410182801387818E83
:10114400C9BF0357650005EF035745006369F702FC
:10115400B306F74021466370D60210419386870098
:101164001D8FAA96611790C22392E600239306006E
:1011740014C12312F5002313B50021058280084110
:1011840069BF01458280828001CD9387C18E03A807
:1011940007009387418E8C430147C28763E3B700FE
:1011A40082809443636FF50663EDA6061386870079
:1011B400E368C5FE03D56700216605066317C5000D
:1011C40003C6718B0506A38BC18A2393070063842E
:1011D40007031386818E1042630FF60003566700DF
:1011E40019EA83D7470014C383564700B697A1076B
:1011F4002312F700BA879843E304B7FA9386818EE3
:101204009442E30FD7F883566700D9FA83D6470090
:10121400035647001843A106B2962392D70098C3F9
:0812240082803E87B6879DBF62
:10122C00974100209381C10A177100201301C1DC82
:10123C0013054000972500209385055C1736002088
:10124C001306067E63FAC5008322050023A0550011
:10125C0011059105E3EAC5FE173500001305055984
:10126C00973500209385C57B1386018163FAC500F1
:10127C008322050023A0550011059105E3EAC5FE64
:10128C00138501819385C1BE6377B50023200500CA
:10129C001105E36DB5FE9302800873A0023097220E
:1012AC0000209382625593E2120073905230971291
:1012BC0000009382C2A173901234730020303D431E
:1012CC002A876373C3029377F700BDEFADE593767E
:1012DC0006FF3D8ABA960CC34CC30CC74CC74107DA
:1012EC00E36BD7FE11E28280B306C3408A069702F5
:1012FC00000096966780A6002307B700A306B700E8
:10130C002306B700A305B7002305B700A304B70055
:10131C002304B700A303B7002303B700A302B7004D
:10132C002302B700A301B7002301B700A300B70045
:10133C002300B700828093F5F50F93968500D58D29
:10134C0093960501D58D61B79396270097020000FF
:10135C0096968682E78086FA9680C1171D8F3E96F8
:10136C00E374C3F8A5B7938741889C43411122C409
:10137C002E862E84AA851385070406C6EF20406CA2
:10138C001375F40F2244B24041016F00B06493878F
:10139C00C18F411123A0F1889387C19B06C623A25C
:1013AC00F188EF00505BB240B7E700E03707400030
:1013BC0023A0E7104101828081471386418813F7EF
:1013CC00F70F6364A7006F00F06018423E978346E6
:1013DC000700850793C6F6FF2300D704CDB7B78760
:1013EC00004003C767001377F70F937627006383DA
:1013FC000646011106CE22CC26CA4AC84EC603C7E1
:10140C0077009306000313770703630BD70203C718
:10141C00770091461377F7036305D72063E4E60A58
:10142C008546630BD71A6301071889466309D71CD5
:10143C008D466306D71CB787004009472383E70016
:10144C003787004083477700E207E18763D2072C98
:10145C00930720FC2301F7029386018888420347F7
:10146C0075008347650022075D8F239AE1808347CF
:10147C0015002389F1800349050013760906630FD3
:10148C00061ADD170547636AF72662091359894165
:10149C0081466352090283D74181930600043E873B
:1014AC0063F4F6001307000442074183998F937687
:1014BC00F70F239AF180B78700402380D7021307D8
:1014CC0000FC81A4930620026302D71263E3E602B8
:1014DC00930600026306D70493061002E31DD7F4AB
:1014EC0003C767021377C70F136727002383E7022D
:1014FC0099B793063002630DD71093064002E31C94
:10150C00D7F203C72703134707042389E70203C74E
:10151C0027031377C70F136727002389E70221BF1F
:10152C0003C7218195466303D7069946631BD706EB
:10153C009387418103D4070013070004BE846374AE
:10154C0087001304000493870188138981818843E1
:10155C0042048325090041802286EF20604E83D708
:10156C0004009379F40F818F239AF180832709006B
:10157C003E9423AC8180B78700402380370303C798
:10158C002702134707042381E70275B503C7370009
:10159C0083C6418113770708558FA381E70009475C
:1015AC00DDB723800702E5BF83C7870003C721810E
:1015BC00A547E312F7E8938701889C431735000091
:1015CC001305851383C7070089E71735000013053A
:1015DC002514EF20E05F85B503C777001377070468
:1015EC00E30B07E403C58700C13BB1B503C7A702F2
:1015FC001377C70F136727002385E7022DBD03C799
:10160C00770013770704E30807E283C7870025B543
:10161C0003C7E7021377C70F136727002387E70277
:10162C0019BD03C7770013770704E30607E003C768
:10163C002703134707082389E702C1BF2946636EB6
:10164C00F60A173600001306E6FD8A07B2979C438C
:10165C00B297828783473500834625000946A20747
:10166C00D58F93D68700638CC60A6369D6008547ED
:10167C00638AF6021304F00F81472DA88D4563860B
:10168C00B60C93072002E397F6FE83474500D5E39B
:10169C00973700009387C7FB23ACF1800144930775
:1016AC00400309A8973700009387070023ACF1800B
:1016BC000144C947C207C18363F4E700239AF18050
:1016CC009387418103D607009307000463F4C70096
:1016DC0013060004938981819314060183A50900E4
:1016EC00C1802686EF20C03503A60900269623ACC0
:1016FC00C1809307F00FE31AF4D8B78700401307A3
:10170C00F0FC2381E702B787004009472383E700F9
:10171C00F2406244D2444249B24905618280973713
:10172C000000938727F623ACF18001449307B003A4
:10173C0051B78546639FD70497360000938646F1D0
:10174C0023ACD180A388F18091BF93F7F70F854626
:10175C00638FD70095C7E39FC7F097370000938737
:10176C00E7F623ACF18001449307A002A1B79737A9
:10177C0000009387A7F423ACF1800144C1471DBF3F
:10178C00973700009387C70323ACF180014491473E
:10179C0015B701449307F00F31BF83472500239AF7
:1017AC00F180E5B183C701812300F50003D74181A6
:1017BC008547E3FCE7CC8547DDB7834725002388C5
:1017CC00F180E1B11377F9018947E318F7F2834708
:1017DC0045006381E704636CF7000547E39FE7F07E
:1017EC00378700408347670293F7370799A01307A1
:1017FC0010086388E70213072008E390E7F03787A7
:10180C0000408347A70293F7C70B93E727002305F4
:10181C00F702A5B9378700408347A70293F737072C
:10182C00FDB7378700408347670293F7C70B93E7F1
:10183C0027002303F70291B92300050085BF23007D
:10184C0005009C42A380070003D741818947E3FE32
:10185C00E7C2B1B7937617008DC2A3810700094781
:10186C002381E70249472383E7022385E702238785
:10187C00E70205472383E700828093764700FDDA71
:10188C0003C757001147FDB783C7C18293F7F7070A
:10189C002386F18283C7C181A18B3717004089CB86
:1018AC008327870A93E707202324F70A01458280C0
:1018BC008327C70A93E707202326F70AC5BF4111E0
:1018CC0006C683C7C182A1CFE207E18763CA0700BE
:1018DC00371700408327870A93C707202324F70A6A
:1018EC00938781829C43896693860671850723A41E
:1018FC00F18213075020B387E70203C7F181330746
:10190C00D7026373F700F92A130650208D4503C5DF
:10191C004182EF00F041B240014541018280814596
:10192C0001459D3723A40182FDB7011106CE138713
:10193C00C182834707002AC617050000130505F569
:10194C0093E707F82300F700EF00F0463246F24029
:10195C008D4505616F00D03D411117050000130541
:10196C00C54A06C6EF003045238AA18609651305D2
:10197C0005D6653F8D4513050020E921371700403A
:10198C008327870A170500001305A5F393E70720A3
:10199C002324F70AEF003042B2402382A182410196
:1019AC0082800111A1461386C18181452D454AC80B
:1019BC0023A2018406CE22CC26CA4EC69720002034
:1019CC00E780E04903C73182C5471389C1816309A8
:1019DC00F702034709004A868145419B238EE1802B
:1019EC001D47A38EE180238FF1800D47A38FE180EB
:1019FC00A1462945A381F18297200020E78020464B
:101A0C00854537054000D5218145196537140040BF
:101A1C001529035744091966B7E900E0518F231AB9
:101A2C00E4088326C40A1967A164D98E2326D40A34
:101A3C008326840A138504088145D98E2324D40A6D
:101A4C00231EE4088357040993840408D18F2318B8
:101A5C00F408B707020023A0F910412903576409C1
:101A6C00E177938707085D8F42074183231BE408C6
:101A7C000327C40C91454145458F2326E40C0327CD
:101A8C00840CD98C2324940C231FF40803572409A9
:101A9C00D98FC207C1832319F408B707040023A008
:101AAC00F91023A2018623A0018423A8018223A478
:101ABC000186492E83470900918B91CF8327C40A55
:101ACC0093E707012326F40A6244F240D2444249C8
:101ADC00B249056151B58327840A93E70701232492
:101AEC00F40ADDB783C7F181B5CBB717004003A764
:101AFC00C70A411106C61367072023A6E70A37E772
:101B0C0000E03443414630C3370602002320C71897
:101B1C0034C30100010003A7C70A0546C14513677A
:101B2C00070123A6E70A0545CD293717004083276F
:101B3C00470C93969700E3DC06FE37054000894579
:101B4C008129B240B7E700E03707040023A0E71073
:101B5C0001454101172300206700E3FE8280B7177F
:101B6C00004083A7470C13979700634E070083C769
:101B7C00C181858B1387418481CB8347070093E711
:101B8C0027002382F18482808347070093E71700A4
:101B9C00CDBF938741869443938701849C431385DF
:101BAC0081859D8E23A2018623A0018493870183C6
:101BBC009843938781869C4393F6F60F1D8F23A839
:101BCC00018223A4018693870185BE8503C6070085
:101BDC0085073696A38FC7FEE39AA7FE9387818469
:101BEC001377F70F138501853E8683C6070085079B
:101BFC00BA96A38FD7FEE39AA7FE81468147214769
:101C0C003385F500034505008507AA96E39AE7FEA0
:101C1C0083C78185BE9523800500014781452145F9
:101C2C003308E600034808000507C295E31AA7FE2F
:101C3C003E96998685072300060093F7F70FA3823B
:101C4C00B1842383D1846385E700238CF184828063
:101C5C00238C01848280411106C622C40937153FAA
:101C6C0003C7418483C74183138441846317F704FA
:101C7C001C4037070001130707F0F98F9DEF93877E
:101C8C00C1869C43896693860671850723A6F186D7
:101C9C0003C7E181B307F70203C7F1813307D7020A
:101CAC006373F700813583470400B2402244238AD2
:101CBC00F18223A2018441018280914513854184E4
:101CCC00EFF06FEA23A60186F9BF41111305F0046A
:101CDC0006C697200020E780C0F237170040832704
:101CEC00870A8D451305002093E707202324F70A64
:101CFC00912A0D29EFF0AFE96D3197200020E78094
:101D0C00E0C5938781879C43011106CE22CC91C3F9
:101D1C008297092A2A8439222A9429222A94192260
:101D2C002A94092222959547B347F50217370020CC
:101D3C00035727DA1305400663F4E70283D6618064
:101D4C00014563FFF6003385D74093074006330502
:101D5C00F502158F420741833355E5021375F50FD4
:101D6C009387C1879C4381C72AC682973245F2402C
:101D7C0062440561828083474500858BADC70111A4
:101D8C0022CC2A84035525009385C1A306CEEF00EF
:101D9C003020058929C50355240001478146054695
:101DAC00ED45EF00F00E2AC61DC99737002093872A
:101DBC0027C783D7A70201462C002314F1008547BF
:101DCC002315F10083C781802300F50003552400FF
:101DDC00EF00102809C5ED452800EF00D019F2409E
:101DEC006244056182808280411106C6193F2384BA
:101DFC00A18017050000130545F8EF001052B24002
:101E0C00014541018280411106C6F93F17060000C9
:101E1C001306A6FF8D4503C54187192FB240014516
:101E2C00410182800547B7170040238DE70437171F
:101E3C0000408347A705858BEDFF0355C705520569
:101E4C0051818280914763EEB70217370000130768
:101E5C00A78D8A05BA959C41BA978287B71700401F
:101E6C0003A7470B1345F5FF698F23AAE70A03A7BE
:101E7C00070B698F23A8E70A03A7070A798D23A00C
:101E8C00A70A8280B717004083A6470B1347F5FFBC
:101E9C00F98E23AAD70A83A6070B558D23A8A70A68
:101EAC0083A6070A758F23A0E70A8280B717004024
:101EBC0003A7470B498F23AAE70A03A7070B134570
:101ECC00F5FF45BFB717004083A6470B1347F5FF37
:101EDC00758F23AAE70A03A7070A598D4DB7B717C1
:101EEC00004003A7470B498FEDB7914763EEB7024C
:101EFC0017370000130787848A05BA959C41BA9757
:101F0C008287B717004003A7470D1345F5FF698F6C
:101F1C0023AAE70C03A7070D698F23A8E70C03A7D7
:101F2C00070C798D23A0A70C8280B717004083A6DD
:101F3C00470D1347F5FFF98E23AAD70C83A6070D7F
:101F4C00558D23A8A70C83A6070C758F23A0E70C2F
:101F5C008280B717004003A7470D498F23AAE70CCF
:101F6C0003A7070D1345F5FF45BFB717004083A620
:101F7C00470D1347F5FF758F23AAE70C03A7070C32
:101F8C00598D4DB7B717004003A7470D498FEDB7D3
:101F9C009357E50093F70730C98FC2070547C183F4
:101FAC006382E5048DC10947638DE5040D476380A9
:101FBC00E50637170040231FF70883562709D58FEE
:101FCC002319F7088280371700400356670993C618
:101FDC00F7FFF18E231BD7088326C70C558D2326BC
:101FEC00A70CC1BF371700400356670993C6F7FF0C
:101FFC00F18E231BD7088326870C558D2324A70C21
:10200C004DBF3717004083566709DD8EE1B7371790
:10201C00004083566709DD8EE9BF1DE5B717004008
:10202C00130770052380E704130780FA2380E70465
:10203C0003C7E70093C5F5FFF98D2387B700B717E2
:10204C0000402380070482808D471307000C63E94E
:10205C00C700972700009387E777B29703C707005D
:10206C00B7170040930670052380D704930680FAB7
:10207C002380D70483C6E70093F6F6032387D700A3
:10208C0083C6E700D58DD98D4DBFB717004003D55A
:10209C008700420541819377050491EB9377F50115
:1020AC003755E801130505803345F5028280937797
:1020BC00050C130700046397E7009377F501374588
:1020CC009C1CCDB72165130505D08280814737371D
:1020DC000040A14663C4C700328582800345B70027
:1020EC00E38EA6FE3385F500034505008507230422
:1020FC00A700CDB7411122C406C62A8479372947D7
:10210C00B307E502B2408D83B3D78702224495070B
:10211C00B3D7E70237370040C207C1832316F74015
:10212C0041018280716541111305052006C6D9371E
:10213C00B7370040130770F82381E7400D47A381A0
:10214C00E74013070004A380E74005472387E740D7
:10215C00B24041018280B7870040238007001307FB
:10216C00C0FC2386E700A386E70003D701882398E9
:10217C00E70003D74188239AE70003D78188239C83
:10218C00E70003D7C188239EE70089462381D70245
:10219C0049472383E7022385E7022387E702238944
:1021AC00D702A3810700130790022380E700B7161C
:1021BC00004003D7A6011367070C239DE6007D574B
:1021CC002383E700130710F8A380E7001D47238142
:1021DC00E7008280B78700402382A70203C767020B
:1021EC001377C70F2383E702828023AC05FE1C41C3
:1021FC0091E7010001000CC18280BA8703A787FF19
:10220C006DFF23ACB7FE82801DC18346E5FF13072B
:10221C00F00F9147639EE600411106C697200020FF
:10222C00E7800076B24081473E8541018280954728
:10223C003E85828001E9014582800145B2402244FD
:10224C0041018280411122C42A8421054205930553
:10225C00D004418106C697200020E780006971DD1B
:10226C00FD5723200500231285002303F5002105CB
:10227C00F1B7B9C5411122C406C62A8483C791A8F7
:10228C002E856368F40049370D45B2402244410164
:10229C00828083A785FF99E703C7E5FF9307F00FBB
:1022AC006305F70095371545CDB7238F85FE13854C
:1022BC000189253F22852244B240A16541017DA2BE
:1022CC00154582809387018A9C4399E33E858280E1
:1022DC0003D727006316B70003C70700E308A7FE60
:1022EC00DC47E5B793874189904383C691A8814722
:1022FC0013F7F70F6363D70803C7B1AE914763E5D4
:10230C00E70883C741B3918BC1E30111680006CE86
:10231C0022CC26CAEF00503E7D57630AE50CB2472B
:10232C0003C4F1A56378F40A938781A8C44783C7D3
:10233C0001A66382E406858BA9CBD147B384F40252
:10234C00637A940897200020E7808006B24763F3F5
:10235C00F400A68703C4F1A5818F3384A70093876B
:10236C00C1A48387470163CE0702B707C0A8636A7D
:10237C00F402B70740573E942DA08507139717001A
:10238C0032970357E7FF2DD7828093079002B384CF
:10239C00F402858075B7E207E18763D20704330442
:1023AC00854003D5A18997200020E78060DE19E0E5
:1023BC003704C0A89387C1A4DC532285829719E9FE
:1023CC00938741AE9C4F99C7EF00506FEF100010F0
:1023DC00EF00B063F2406244D24405618280E37046
:1023EC0085FCB707C0A8338487402A945DBF9387C8
:1023FC0081A8DC47E380A7FE1387C1A4834647016D
:10240C00BA84858A9DC251443384870283C7F1A55F
:10241C00E3F287FC97200020E78080F983C7F1A5C1
:10242C001D8C2A94838744013DBF1304900233848E
:10243C0087020580E1BF2A9609E582800505A30F76
:10244C00B5FEE31DC5FED5BF9307F6FFBE952A96D4
:10245C006313C5008280FD1583C715000505A30F06
:10246C00F5FEFDB7938781A8884B828083C791A81E
:10247C00637FF500138741899317150008433E9538
:10248C0083570500DD8D2310B500014582800D4575
:10249C008280FD57011123AAF1A89387018A22CCCF
:1024AC00804326CA4AC84EC652C406CE56C22A8992
:1024BC0081449389C1A4138A81A818448147637409
:1024CC00E900B307274103A749021CC419C7032716
:1024DC00CA0063F4E70023AAF1A8A1E38355240002
:1024EC009DE55C44A1E423A0F18A832AC4002285E3
:1024FC0097200020E780C048568461F0F240624487
:10250C00D2444249B249224A924A0561828003452B
:10251C000400A93F5C4081CB1CC483572400F1D339
:10252C00A2844044D9BF1C44CDDFC5BFDCC475BFF9
:10253C0083C791A86364F50001458280411122C4D0
:10254C0026C24AC006C62A842E89B284A53B01C580
:10255C0004C505451DA0936504F0C205C181414524
:10256C0097200020E780603819ED9387C1A49C5B0D
:10257C0081C7A285114582970145B24022449244FD
:10258C000249410182809387018A9C438DE323A0F9
:10259C00A18A85472326050004C5231125012300A4
:1025AC008500A300F5002322050065B7BA87D8473C
:1025BC0075FFC8C7F9BF83C791A803C7A1A863FF5C
:1025CC00E7001387418A184393861700A384D1A888
:1025DC0093962700369708C33E8582809307F00FA9
:1025EC00E5BF938741AC884B8280938741ACDC4B31
:1025FC0088438280938741ACD84B1C4385071CC30E
:10260C0003C571AC9307F00F6304F5009165B9BD78
:10261C008280BD47638CF50663E9B702A5476387E3
:10262C00F50663EDB7009947638CF5049D47638FFE
:10263C00F5049547638CF50401458280B5476387A3
:10264C00F50463E1B704AD47F5B7DD47638EF502DA
:10265C0063EAB700C947638BF502D9476386F50275
:10266C00C547C9BFF5476383F50263E4B700ED477F
:10267C00D1B793072005638BF5009307200D5DBF41
:10268C00484582800841828008458280484182808A
:10269C00011126CA06CEB68422CCDD4663E1B6080B
:1026AC00D94663FDD50AA5466380D50A63EDB60409
:1026BC009546638BD50899466386D50A05444168CF
:1026CC007D18631506093AC6EF1080253306854040
:1026DC00324742064182420441803305C400420520
:1026EC00BA85418132C6C522AA8749C181C4324606
:1026FC002390C400B30580406244F240D2443E852E
:10270C0005616F10A01EC5466380D504C9460D44F3
:10271C00E396D5FAC167FD17E31FF6FA6DB7F546D8
:10272C006380D50463E4B600ED46D5B79306200567
:10273C006388D5029306200DE392D5F8C167FD1787
:10274C000D446319F60041B7094495BF9306200D5B
:10275C00E393D5F8310642064182B5BF15445DBFFF
:10276C000D444DBFC167FD171D447DB7F240624457
:10277C00D24405618280411106C6613D19C5B24043
:10278C004101172300206700A31FB2404101828042
:10279C0083D705006384A7000145828003C525000B
:1027AC0082809387C18A9C4399E301458280984734
:1027BC000357A700E319A7FE138547008280411138
:1027CC0006C6C53711C503452500B24041018280BC
:1027DC004145E5BF9387018B9C4303D707006300FA
:1027EC00A70283D66700138767006388A600138748
:1027FC00C70083D7C7006396A7003A8582803E87BF
:10280C00EDBF0147DDBF9387C18A984319E30146A9
:10281C0015A81C4703D8A700636B05018358470014
:10282C00B38608016355D50081466394160118439D
:10283C00F1BF3E86C10703D3A7FF6317A30099C15D
:10284C0023900501328582808506C206C182F1BFC4
:10285C00797122D426D24AD04ECE06D683C9618B4A
:10286C002A84AE843289EF00D07D637935052285C8
:10287C00953701C9034725009307E00F5D456308B1
:10288C00F700631D0900A6852285EF108018B25051
:10289C00225492540259F2494561828003D50400B6
:1028AC009305E10023170100B93F0355E100013FF7
:1028BC00AA8505462285D92279D5D1BF5945C1BFF4
:1028CC0003D5418B8280190595654205411193858D
:1028DC0035C0418106C697200020E780000111C554
:1028EC00B240E95541016F106000B2404101828055
:1028FC0003D7250071CB83D6418BED4763E7E60CFC
:10290C00011122CC2E8426CAAA844840914506CEB9
:10291C00EF00D07D83572400AA862300F50083574F
:10292C002400A183A300F500835704002301F500C4
:10293C0083570400A183A301F50003562400C1674B
:10294C00F9171106420641826394F4042AC43145F6
:10295C0032C6EFF03F8EAA85CD470DC5930700F91F
:10296C003246A2462300F500F9572311F50089479A
:10297C002302F5002313C50014C503C5818BEFF0AA
:10298C005F8F8147F2406244D2443E85056182806C
:10299C00814526858523AA8701E903C7618B7DD3F1
:1029AC007D17238BE18AF9BF09476302E5021D47B6
:1029BC006301E50249476300E5027D47E314E5FC4A
:1029CC0003C7618B8147E1BFED473E858280D147CC
:1029DC0055BF914745BF894775B783D705000D474C
:1029EC00F117C207C183636BF704DC41A1CB411122
:1029FC0022C42E84854526C206C6AA84C52829C1B0
:102A0C002685D128C167F917638FF40009ED835728
:102A1C00240091CB8356040019476399E60203D72F
:102A2C00418B63F5E70283C7618B594599CBA2852E
:102A3C002244B2402685924441015DBD0945828005
:102A4C005145B24022449244410182806D45D5BF2C
:102A5C009387C18B984303C6018C81476315F6009D
:102A6C00814636858280BA861307C703835567FC77
:102A7C00E389A5FE850793F7F70FCDB7011122CC9B
:102A8C002EC632C406CE2A84E1372246B24511E95D
:102A9C00C167F9176303F4005145F24062440561C4
:102AAC00828054558347450095C213F72701414551
:102ABC006314A700154575F2C18B3D45F9DF83C73B
:102ACC00A6010145E3FBB7FC3145C1BFC18B0145F4
:102ADC00E9F71545D9B7411106C69D3F11C50355F8
:102AEC004501B240410182800145E5BFC167F9173C
:102AFC006303F502411122C406C62E84913FAA87B6
:102B0C00014591C703C54700698C33358000B2403D
:102B1C002244410182800545828021C901114AC8A5
:102B2C00416922CC26CA4EC652C406CE0144AA84A0
:102B3C009389C18B130AC0037D1983C7018C634A27
:102B4C00F400F2406244D2444249B249224A05613F
:102B5C0082803305440383A709003E9583572500E3
:102B6C006383270182940504C9BF82808147C146D3
:102B7C003307F500B388F5000347070083C8080046
:102B8C003308F6008507334717012300E800E3916B
:102B9C00D7FE82800147BD471308F00F3306F500BE
:102BAC0083460600B388F500FD178606558F2380F3
:102BBC00E8000347060093F7F70F1D83E39007FF28
:102BCC0082808147930800F8414893F6F70F3387CA
:102BDC00F50063FCC600B306F50083C606002300AF
:102BEC00D7008507E39307FF82806395C600230017
:102BFC001701C5BF23000700EDB701114AC856C223
:102C0C002E89AA8A93053005414506CE22CC26CAC8
:102C1C004EC652C4328A97200020E78000CDAA8489
:102C2C0093053005414597200020E78000CC2A848D
:102C3C00CD49A9CC39C541468145EFF0CFFF268659
:102C4C00A2855685652BAA890DED8387040063DF69
:102C5C000704A28526853D3F4A869725000093856B
:102C6C0025AF228521378307090063D50704A28588
:102C7C004A850D37528697250000938565AD2285D0
:102C8C00F535268597200020E78080CF11C422855A
:102C9C0097200020E780C0CEF24062444E85D2449B
:102CAC004249B249224A924A05618280CA852685E8
:102CBC00D53555BFD2854A85F13DE1B739715AD02A
:102CCC005ECE2A8BAE8B41459305300506DE26DAA7
:102CDC0052D456D262CC66CA6AC8368C328DBA8C43
:102CEC0022DC4AD84ED697200020E78000C0AA8A62
:102CFC0093053005414597200020E78000BF2A8AC4
:102D0C00CD44638A0A0859C12A86D6855A85F53579
:102D1C00AA842DED93053005414597200020E780CE
:102D2C00C0BC2A8993053005414597200020E780D7
:102D3C00C0BBAA896302090E630E050C1304FD00C7
:102D4C0011841376FD0035CC7D14420441803DEA9C
:102D5C00131544004E86D6855E95093D4146814546
:102D6C004A85EFF04FED014D93170D01C18363F1CF
:102D7C008708B5C04A8597200020E78060C063872C
:102D8C0009004E8597200020E78080BF568597204C
:102D9C000020E780E0BE63070A00528597200020E0
:102DAC00E78000BEF250625426854259D254B25983
:102DBC00225A925A025BF24B624CD24C424D216128
:102DCC0082800144131544008A855E95DD3B4E8656
:102DDC00D2850A8559B793154D000A86DE954A852A
:102DEC0071334A868A855A851129AA84050DADBF8F
:102DFC00D1F00A86CE854A85953B4A868A855A85C6
:102E0C00F52EAA846686CA85628597100020E78015
:102E1C00203A8DB7CD44B9BFCD4495B75D714EDE28
:102E2C0086C6A2C4A6C2CAC052DC56DA5AD85ED62E
:102E3C0089494DC545C6138B4500420B135B0B01ED
:102E4C00AE8A2A8A930530055A85B28497200020D1
:102E5C00E780A0A92A84CD4951C1EFF00FF92A8946
:102E6C005686D285935A8900135A0901937BF90F20
:102E7C001305440093FAFA0F137AFA0F13598901C8
:102E8C00EFF08FDCA301740123015401A300440172
:102E9C0023002401EFF0EFF4AA8541460808EFF077
:102EAC00AFDA214734005A86A2850808013DAA8969
:102EBC000DE121462C0023807401A3805401238151
:102ECC004401A381240113854400EFF0EFD7EFF008
:102EDC006FF2228597200020E78080AAB640264416
:102EEC004E8596440649F259625AD25A425BB25BFD
:102EFC00616182806F00D01483C7B1A8638A071008
:102F0C00411126C206C6AA8422C44AC07D55DDC022
:102F1C009387C1B3B84759CF1389C1A4830549011D
:102F2C0003C591A605057D5485483708C0A8130E26
:102F3C00000C834677008327070863931609035315
:102F4C00E7068356C702637DD3060346D700631991
:102F5C0016070326070F2DE60326470935E203461D
:102F6C00F700631FC605705FB3866640791633069B
:102F7C00D60283264708B356D602B297AA96C20643
:102F8C00C182231AD70663D00504958F63F387009B
:102F9C003E84184359FF9387818A9C4382976368C8
:102FAC00A402B307A4409CC09C4035476361F7045E
:102FBC0023A00400B2402244924402494101828081
:102FCC0083564707C9B7E3F2D7FCC2977DBFB30757
:102FDC00854063DB070083074901E3C407FCB7079F
:102FEC00C0A8A297898FC1B723A0040075BFCD17C5
:102FFC009CC08307490163D50700130534FF5DBFEF
:10300C00B147E3EC87FE3705C0A84D1522955DB797
:10301C007D5582809387C1B3BC4799E33E858280FE
:10302C0003D74700E30CA7FE9C43C5BF9387C1B3EE
:10303C00BC4FC16683C5C1A50147FD1603D6E70089
:10304C00630BA6006309D60005071377F70FC107BA
:10305C00E3F6E5FE81473E8582809386418C9C4257
:10306C009843659B98C30347150003482500220726
:10307C00420842970348050042970348350062080E
:10308C00429798D70347550003486500220742082A
:10309C0042970348450042970348750062084297DF
:1030AC00D8D7034795000348A5002207420842974A
:1030BC000348850042970348B5006208429798DBA5
:1030CC000347D5000348E50022074208429703480E
:1030DC00C5000345F500429762052A97D8DB03C764
:1030EC00150003C52500220742052A9703C50500D4
:1030FC002A9703C5350062052A9798CF03C7550058
:10310C0003C56500220742052A9703C545002A9787
:10311C0003C5750062052A97D8CF03C7950003C570
:10312C00A500220742052A9703C585002A9703C5E7
:10313C00B50062052A9798D303C7D50003C5E500EF
:10314C00220742052A9703C5C50083C5F5002A97B7
:10315C00E2052E97D8D3D843759BD8C3D8431367B1
:10316C001700D8C398431367170098C398425C4361
:10317C00858BD9E31C4F01452300F6009C429C4FE4
:10318C00A183A300F6009C429C4FC1832301F6004F
:10319C009C429C4FE183A301F6009C42D84F230232
:1031AC00E600D84F2183A302E600D84F41832303C6
:1031BC00E600D84F6183A303E60098532304E6008E
:1031CC0098532183A304E600985341832305E6001A
:1031DC0098536183A305E600D8532306E600D85321
:1031EC002183A306E600D85341832307E600DC5372
:1031FC00E183A307F600828001008DBF411106C652
:10320C00A93DB2400145410182809386818C904258
:10321C0083C7E1A5139787000C4293F7F703A20726
:10322C004D8FB78500014D8F18C21842F1759385EB
:10323C00F50F6D8FD98F1CC237170040930770059F
:10324C002300F704930780FA2300F7040100010020
:10325C0003C6E1A5D14763FBC7048357270293E755
:10326C0007012311F7029C424567130787E7D8D75C
:10327C00984FA166558F98CF984FE1769386F607B5
:10328C00758F8D6693860650558F98CF1307201532
:10329C00D8DB9717002093872719B207370700143C
:1032AC00B183D98F37E700E07CD782808357270220
:1032BC00C207C183BD9BC207C18365B7138741AEEB
:1032CC009387C18C9C43544B184F096694CBD4CB39
:1032DC0098CFD8CF9447D18E94C7D847518FD8C7A1
:1032EC0094470566D18E94C7D847518FD8C7984359
:1032FC001367270098C398431367070298C382800B
:10330C0083C7F1AE99EF03C7B1AE9307B7FF93F73D
:10331C00F70F894663E7F6002387E1AE8547A3875D
:10332C00F1AE82809386818D9C4298430D8B05C3B0
:10333C00B84B619BB8CB98431367870098C39C43E9
:10334C008D83858B89C701000100010001009387E3
:10335C00818C9C4337080010D857719B136727004A
:10336C00D8D798433367070198C3984F370800F9AB
:10337C007D1833770701370800023367070198CFB0
:10338C00984F137737F81367870198CF1387C18D40
:10339C00032807000327C802759B2326E80213772E
:1033AC00F6079043137606F8598E90C388C7CCC3A2
:1033BC00238201AEA38401AE9842238401AEFD4763
:1033CC005CC39387418D9C4399CB904BCC4B14425F
:1033DC00CD8E14C290439C471442D58F1CC2856776
:1033EC009387870B23A8F1AE85471CC393079005E1
:1033FC003CCB82804111A38701AE22C406C626C2F3
:10340C0003C4E1AE9547631EF4049387C1B3985F80
:10341C003E8483467700A9C203465700B755550032
:10342C0037C5898E93855555130565EDE53D83C6E6
:10343C00B1AE9387A6FF93F7F70F05476366F700C6
:10344C002387D1AEA387E1AE9547A385F1AE1C5C73
:10345C00130710FA2383E700B2402244924441013F
:10346C00828099476319F4029384C1B3BC4003C7AB
:10347C0077007DD303C65700B755550037C5898EE5
:10348C0093855555130565ED713DA38581AEBC4003
:10349C00130710FBC1B79D47E310F4FC83C701B0C1
:1034AC00858B03C631B283C621B291CF938701B20B
:1034BC00C84311C9834515000905C52051DD854751
:1034CC00A387F1AE51BF81450145C5BF9387818D5F
:1034DC009C4313070005A946D8CBD4CFD8D31306E9
:1034EC004006D0D7D8DBD0DFF8C3F4C71307600F82
:1034FC00B8CF316713073730D8C797170020938799
:10350C002724370700F07D8FB7E600E0B207F8C23A
:10351C00B18337070015D98FBCD682809387818AF7
:10352C009C43411122C406C626C28297938701B2DE
:10353C008047630FA404BE849387C1A4838747018B
:10354C0063D00704018D1354550083C7A1B1636187
:10355C00F40497100020E780E032984483C7A1B1AF
:10356C009396570036971D8C23A4E1B2E373F4FEB7
:10357C002244B240924403C511B08145410165A279
:10358C00E37285FCB707C0A833848740229565BFDA
:10359C00B2402244924441018280011126CA938494
:1035AC00818D9C404EC652C4984356C25AC006CE1A
:1035BC0022CC4AC80D8B2A8AAE89328BB68A05C3B7
:1035CC00B84B619BB8CB98431367870098C39C4357
:1035DC008D83858B89C701000100010001001384D4
:1035EC0001B283474401138901B0918B99E783475A
:1035FC00090093F7070463910712814503C511B0C5
:10360C001D229387818C9C4303278900B7060010E9
:10361C0098C70327C900D8C3D857719B13672700D5
:10362C00D8D79843558F98C3834709009840858B0A
:10363C005CC3A38161B3238151B35C43858BA9CF58
:10364C005C4081EF03C5D1B1930590040905971037
:10365C000020E780802923A2A1B25C400545DDC390
:10366C0003C721B22380E7005C40630B0A0A63891D
:10367C00090AA380370148404E86D2850905971068
:10368C000020E780E0B29387C18C9C435840D8CB94
:10369C00930700042382F1AEA5318347640193E7BD
:1036AC004700238BF1B2A38201AEA38401AE238425
:1036BC0001AE9D47A385F1AE9387C1A49C5781CBE6
:1036CC0013060064C14503C581B3EFE07FE6938721
:1036DC00418D9C4399CB944BD04B9842518F98C2BF
:1036EC0094439C479842D98F9CC283C7C1B19D0714
:1036FC00920723A8F1AE9C400547014598C31307D8
:10370C009005B8CBF2406244D2444249B249224AB5
:10371C00924A024B05618280854503254900CDB54F
:10372C00A38007008DB79387818C9C43B70600F963
:10373C00FD16984F758FB7060004558F98CF984F8C
:10374C00137737F81367C70198CF1387C18D1443CC
:10375C00E9CD37B724001307F7E96360A706984350
:10376C00137707F81367570298C385476394F500DE
:10377C00130585C1DC56B70510FEFD1593E7270030
:10378C00DCD6C167938707A03357F502B377F502F0
:10379C001305A00F7D8B13164701F8426D8F518FC7
:1037AC00F8C2F8423706FCFF718FAA07B3D7A702FD
:1037BC00BA07B983D98FFCC282803707250013065C
:1037CC00F7486363A6023767DBFF130707932A9753
:1037DC001306007D3357C7027D1790431377F70705
:1037EC00137606F8518F49B7130707496318E5009C
:1037FC009843137707F813676702BDB737D72500CF
:10380C001307F777636DA7003767DBFF1307079381
:10381C002A971306007D3357C70279177DBF98434B
:10382C00137707F81367770281B7D8561375F50726
:10383C00759BD8D69843137707F8598D88C3828027
:10384C0021A003D581B98280011126CA4AC84EC66F
:10385C0006CE22CC2E89B289B684EFF0AFFB49C5D7
:10386C00639D090085472380F18E0145F240624437
:10387C00D2444249B2490561828003C7018E854713
:10388C002A846315F7002380018E094941651305CD
:10389C0045F5EFF0AFF90DCD8347E5002317F500A3
:1038AC008327040F95E32328A40E232AA40E930741
:1038BC0010F8F9142320050023163501A304F50094
:1038CC002304250144C155B78327440F88C3F1BF96
:1038DC009387C1A49C5B1D45D1DB956505459385FC
:1038EC00555582971D4559B7094549B79387C18EE0
:1038FC009386418E9C4390422A87B305B54063144E
:10390C00F6003A8529A8938687009C43E369D7FE85
:10391C00E377F7FE2E85E3E4D5FEE3F2F5FE828035
:10392C00C167F9176314F5006FE09FF9411106C6E2
:10393C00EFF06F9A11E15D45B2404101828039711F
:10394C004ED656D25AD006DE22DC26DA4AD852D4CB
:10395C00AA8A2E8BB28941EF36C6D9379145EFE052
:10396C009FF6AA844D492DC9B246054A23803401DD
:10397C000544630A0B00B68513851400029B0505EC
:10398C00131405014180E20993D9894163D30902DB
:10399C00C1455685EFF08F95654905E9338684005E
:1039AC00A2852685EFF08FC72A8905E131044204F0
:1039BC00418091472C085685231CF10026CE231DEF
:1039CC008100EFF08F812A8901C963070A002685DF
:1039DC0097100020E780C0FAF25062544A85D25406
:1039EC004259B259225A925A025B21618280BA849E
:1039FC00014AADBF83D705002300F50083D705002E
:103A0C00A183A300F50003D52500090542054181DA
:103A1C008280011122CC2A84C84106CEAE86014791
:103A2C0011C52EC68D45D935B2462A8722856244EA
:103A3C00F2406D4697050000938505FC056101B7C2
:103A4C00B3C7A5008D8B3307C50081E78D4763EEA7
:103A5C00C700AA876370E50A83C60500850785053C
:103A6C00A38FD7FEE3EAE7FE828093763500AA8720
:103A7C0091CA83C6050085078505A38FD7FE93F6EB
:103A8C003700FDB79376C7FF138606FE63F0C706B3
:103A9C0083A3050083A2450083AF850003AFC50057
:103AAC0083AE050103AE450103A3850183A8C501BF
:103ABC009385450223A0770003A8C5FF23A25700D6
:103ACC0023A4F70123A6E70123A8D70123AAC70142
:103ADC0023AC670023AE17019387470223AE07FF81
:103AEC0075B790419107910523AEC7FEE3EBD7FE66
:103AFC00E3E4E7F68280011126CA4AC806CE22CC3E
:103B0C004EC652C4AA842E8901C51C4D91E3CD2901
:103B1C009C4C804499E32685E521971700009387F8
:103B2C0027C6631CF402C0408357C400A18BB1C7E5
:103B3C001C48A1C7FD59294A1C4483450900FD179F
:103B4C00B1E91CC463DE07062286A94526857120CF
:103B5C00FD576308F502294535A097170000938798
:103B6C0027C46314F4008044C1B7971700009387EF
:103B7C0027BFE31BF4FAC04445BFA2852685312A32
:103B8C0055D97D55F2406244D2444249B249224A49
:103B9C00056182801CC4050963D70700184C63CBF0
:103BAC00E700638945011C401387170018C0238068
:103BBC00B70059B7228626850D20E31F35F7D1B7FC
:103BCC001C401387170018C029472380E70061B7F2
:103BDC009387C180AA85884339BF011122CC26CA9C
:103BEC004AC806CE4EC6AA842E89328401C51C4D05
:103BFC0091E3392197170000938787B86319F4066E
:103C0C00C0401C4C1CC48357C400A18BC9C31C48A6
:103C1C00BDCF1C4808409379F90F1379F90F1D8D0E
:103C2C005C486346F500A2852685652C2DE51C4471
:103C3C000505FD171CC41C401387170018C02380F2
:103C4C0037015C486389A7008357C400858B81CBFF
:103C5C00A9476316F900A285268561240DEDF24073
:103C6C0062444A85D2444249B24905618280971721
:103C7C0000009387E7B26314F400804459B7971798
:103C8C0000009387E7ADE31EF4F6C0449DBFA28508
:103C9C00268521203DDD7D59D9B741119387C180FF
:103CAC0026C2844322C44AC006C62A892E8489C4EB
:103CBC009C4C99E32685A92697170000938747AC5F
:103CCC00631CF402C0400317C40093170701C1839F
:103CDC0093F68700B5EE93F607019DEEA5472320DA
:103CEC00F900136707042316E4007D55B240224403
:103CFC00924402494101828097170000938747AA9A
:103D0C006314F4008044C1B797170000938747A54C
:103D1C00E31BF4FAC04445BF918B8DC74C5889C93D
:103D2C00930744046384F5004A858123232A040203
:103D3C008357C4002322040093F7B7FD2316F40025
:103D4C001C481CC08357C40093E787002316F4005B
:103D5C001C4881EF8357C4001307002093F70728F2
:103D6C006385E700A2854A859D218357C40013F71C
:103D7C00170005C75C4823240400B307F0401CCC93
:103D8C001C480145A5F78317C40013F7070839DF52
:103D9C0093E707042316F40089BF898B014791E34D
:103DAC00584818C4F1BF83D7C500011122CC26CACC
:103DBC0006CE4AC84EC613F78700AA842E8471EF2C
:103DCC00D841634DE000B841634AE0000145F24040
:103DDC006244D2444249B2490561828058547DD72D
:103DEC0003A904009396370123A0040063DD0606A3
:103DFC0070488357C400918B99C75C401D8E5C58EA
:103E0C0099C33C401D8E5C540C508146268582978C
:103E1C00FD570357C400631DF5009440F54763E854
:103E2C00D706B70740208507B3D7D700858BA5C326
:103E3C001C48232204001CC09317370163D80700C9
:103E4C00FD576314F5009C4091E368C84C5823A0BF
:103E5C002401ADDD930744046384F50026853121EC
:103E6C00232A0402A5B70C500146854626850297E5
:103E7C00FD572A86E31FF5F69C40A5DF7547638541
:103E8C00E70059476394E70423A0240181B7136723
:103E9C0007042316E4007D551DBF83A90501E387A4
:103EAC0009F203A905008D8B23A035013309394193
:103EBC00014791E3D84918C4E35A20F11C540C5023
:103ECC00CA864E86268582976349A0008357C40014
:103EDC0093E707042316F4007DBFAA993309A94080
:103EEC00E1BF9C49B9CF011122CC06CE2A8411C561
:103EFC001C4D81E72EC62922B245971700009387E7
:103F0C002788639BF5004C408397C50095C7228595
:103F1C006244F240056141BD9717000093874788C2
:103F2C006394F5000C44CDB7971700009387478333
:103F3C00E39CF5FC4C44C9BFF24062440145056169
:103F4C00828001458280411122C406C62A84231630
:103F5C00B5002317C50023200500232205002324C8
:103F6C0005002322050623280500232A0500232CFF
:103F7C000500214681451305C505EFD04FB49707C1
:103F8C000000938767485CD0970700009387C74A67
:103F9C001CD4970700009387074F5CD49707000049
:103FAC009387C75100D01CD8B24022444101828073
:103FBC0097050000938525F389AA411126C21306A3
:103FCC0080069384F5FFB384C4024AC02E8922C4B0
:103FDC0006C693854407252E2A8401CD232005008F
:103FEC0023222501310508C4138684068145EFD0B0
:103FFC000FAD2285B2402244924402494101828095
:10400C001C4DBDE3411106C622C4970700009387DF
:10401C0067FA1CD5970700009387077D9C432324E0
:10402C00050423260504232805046314F50085479D
:10403C001CCD2A841D2848C02285052808C4228549
:10404C002D2048C4484001469145F53D084405469D
:10405C00A545D53D48440946C945F53585471CCC91
:10406C00B2402244410182808280411197070000B6
:10407C009387877726C284434AC006C69C4C22C4C9
:10408C002A8999E32685AD3F938484048044DC40DF
:10409C00FD1763D607009C40B9CF8440C5BF0317FA
:1040AC00C40039E7C17785072322040623200400C6
:1040BC0023220400232404005CC423280400232AA4
:1040CC000400232C0400214681451305C405EFD0C0
:1040DC000F9F232A0402232C0402232404042326E6
:1040EC0004042285B2402244924402494101828058
:1040FC001304840671BF91454A85C13588C051FDB2
:10410C00B1472320F9000144E9BF797122D44AD088
:10411C0052CC56CA5AC85EC606D626D24ECE2A8A6B
:10412C00AE8A130485040149054BFD5B09ECB250C2
:10413C0022544A8592540259F249624AD24A424B5D
:10414C00B24B45618280044483294400FD1963D439
:10415C0009000040E1BF83D7C400637BFB00839759
:10416C00E40063877701A6855285829A3369A9009A
:10417C0093848406E1BF1971A6DAAE848395E500B9
:10418C00A2DC86DE328463DC050083D7C40023A066
:10419C00060093F707089DE39307004015A030082D
:1041AC0036C68D2EB246E34205FE7247BD67F98FC7
:1041BC007977BA9793B717009CC2F9BF930700049D
:1041CC001CC0F6506654D65401450961828083D7D1
:1041DC00C500011122CC06CE26CA4AC8898B2E8472
:1041EC0089CF930774041CC01CC885475CC8F24077
:1041FC006244D24442490561828074003000AA8432
:10420C009D3FA2452A892685192201ED8317C400FA
:10421C0013F7072069FFF19B93E727002316F4009F
:10422C00C9B7970700009387E7D89CD48357C4007D
:10423C0008C008C893E707082316F400A2475CC817
:10424C00B24789CF8315E4002685D52C01C9835745
:10425C00C400F19B93E717002316F4008357C400A6
:10426C003369F9002316240159B7CDC183A7C5FFC3
:10427C00411122C406C626C21384C5FF63D30700AE
:10428C003E94AA8439269387018F9C4399EB232271
:10429C00040023A8818E2244B24026859244410119
:1042AC00D5AC637EF40014403307D4006396E7006A
:1042BC009843DC43369718C05CC0E1BFBA87D8433B
:1042CC0019C3E37DE4FE94433386D700631F860055
:1042DC001040B29694C33386D700E31EC7FA10433E
:1042EC005843B29694C3D8C37DB76375C400B14725
:1042FC009CC055B71040B306C4006316D7001443D6
:10430C005843B29614C058C0C0C371B78280011113
:10431C0026CA93843500F19806CE22CC4AC84EC6E4
:10432C00A104B14763F1F404B14463E0B4042A89F5
:10433C008D249387018F98433A8431E09387418F82
:10434C009C4391E781454A85512823AAA18EA685D5
:10435C004A856920FD5963173507B1472320F900B9
:10436C004A850D2C29A0E3D204FCB1471CC10145A0
:10437C00F2406244D2444249B249056182801C40F9
:10438C00858F63CE0702AD4663F6F6001CC03E94E3
:10439C0004C031A05C406312870223A8F18E4A85C9
:1043AC00D52A1305B4009307440061993307F540EF
:1043BC0061D33A94898F1CC065BF5CC3CDB722878B
:1043CC004040A5BF130435007198E30385FCB30589
:1043DC00A4404A852120E31D35FB41B7411122C47D
:1043EC002A842E8523A401BE06C6112CFD57631703
:1043FC00F500938781BE9C4391C31CC0B2402244FC
:10440C0041018280411122C42E848395E50006C6A9
:10441C005922634905007C48AA977CC8B2402244C3
:10442C00410182808357C4007D777D17F98F231655
:10443C00F400EDB783D7C500011122CC26CA4AC8B7
:10444C004EC606CE93F70710AA842E843289B689FD
:10445C0091C78395E5008946014631228357C400F4
:10446C007D777D17F98F2316F4008315E4006244E1
:10447C00F240CE864A86B24942492685D24405612D
:10448C003DA8411122C42E848395E50006C6E1287F
:10449C00FD570357C400631BF500FD77FD17F98F1B
:1044AC002316F400B2402244410182808567D98FE3
:1044BC002316F40068C8FDB78395E50005A84111E3
:1044CC0022C42A842E85B285368623A401BE06C654
:1044DC00EFD0DFBFFD576317F500938781BE9C4378
:1044EC0091C31CC0B240224441018280411122C4BC
:1044FC002A842E8523A401BE06C6E120FD5763172E
:10450C00F500938781BE9C4391C31CC0B2402244EA
:10451C0041018280411122C42A842E85B28523A4B4
:10452C0001BE06C66D20FD576317F500938781BE4B
:10453C009C4391C31CC0B240224441018280411172
:10454C0022C42A842E8523A401BE06C67920FD57D9
:10455C006317F500938781BE9C4391C31CC0B24086
:10456C00224441018280411122C42A842E85B285C5
:10457C00368623A401BE06C6BD20FD576317F50081
:10458C00938781BE9C4391C31CC0B240224441011D
:10459C00828082808280411122C42A842E85B28539
:1045AC00368623A401BE06C6A920FD576317F50065
:1045BC00938781BE9C4391C31CC0B24022444101ED
:1045CC0082809307800523A4F1BE7D5582809307DA
:1045DC00800523A4F1BE7D5582809307800523A41A
:1045EC00F1BE014582809307800523A4F1BE7D5561
:1045FC0082809307800523A4F1BE7D55828093872A
:10460C00818F9C4391C73E9523ACA18E3E858280C1
:10461C009387C1BE3E9523ACA18E3E85828000005F
:10462C001ED2FFFFA4D1FFFFDAD0FFFFDAD0FFFFCD
:10463C00DAD0FFFF7AD1FFFF34D0FFFFDAD0FFFFD3
:10464C0084D1FFFF9AD1FFFF18D2FFFF05010902A9
:10465C00A1010901A1000509190129031500250172
:10466C0075019503810275059501810105010930DC
:10467C00093109381581257F750895038106C0C05D
:10468C0009023B00010100A03209040000010301F2
:10469C0002000921100100012234000705810304E6
:1046AC00000A000012011001000000403D410721EA
:1046BC0000000000000100001003570069006E00AC
:1046CC00790075006E0071002A03570069006E00B6
:1046DC00790075006E0071002000550053004200F7
:1046EC0032002E00300020004D006F00750073006A
:1046FC00650000004C69676874206F6E204E756D04
:10470C00204C6F636B204C45442100004C6967685A
:10471C0074206F6666204E756D204C6F636B204C59
:10472C004544210038D7FFFF60D7FFFF88D7FFFF34
:10473C00A0D7FFFFBAD7FFFFCAD7FFFFF2D7FFFF03
:10474C001AD8FFFF32D8FFFF4CD8FFFF0000000043
:10475C0000000000000000000000008700000000C6
:10476C00000000000000000000000000000000003D
:10477C00000000000000000000000000000000002D
:10478C00000000000000000000000000000000001D
:10479C00000000000000000000000000000000000D
:1047AC0000000000000000000000000000000000FD
:1047BC0000000000000000000000000004030904D9
:1047CC00192A00000F18000002000000D04700005A
:1047DC0040C00080032800000229000000280000CF
:0847EC0008290000784A0020B2
:1047F40002000000E847000001000000D447000068
:1048040002000000E047000001000000D84A002038
:1048140002000000CC47000001000000E04A002034
:1048240002000000E447000003000000144D0020D3
:1048340002000000EC47000001000000DC4A0020F8
:104844000000000088470000A847000068470000F7
:104854000000000000000000000000000000000054
:104864000000000000000000000000000000000044
:104874000000000000000000000000000000000034
:104884000000000000000000000000000000000024
:104894000000000000000000000000000000000014
:1048A4001200F00B0401A20764000000784A002003
:00000001FF
