:040000006F108045B8
:1000040000000000000000006F0080086F00204F17
:1000140000000000000000000000000000000000DC
:1000240000000000000000000000000000000000CC
:100034006F004006000000006F00E00500000000B3
:100044006F0080056F0080076F00000A6F002005B5
:100054006F0000056F00E0046F00C00400000000A2
:100064006F0060046F0040046F0020046F00000400
:100074006F00400A6F00C003000000006F006003BF
:100084006F0040036F0020036F0000036F00E00265
:1000940001A001A001A001A001A001A001A001A054
:1000A40001A001A001A001A001A001A001A001A044
:1000B40001A001A001A001A001A001A0B717004068
:1000C40083D7C70913972701635D07001387019539
:1000D4001C4385071CC3B71700407D57239EE708C0
:1000E400828013870194EDB7B717004083D7E709DF
:1000F40013970701635D0700138741941C43850729
:100104001CC3B71700407D57239FE70882801387DD
:10011400C194EDB7B7170040130700032388E70223
:10012400854723ACF1948280411181460146814583
:10013400114506C6ED29B727004011472383E78000
:10014400B7F700E0938707D0984B6D9B98CB984BFB
:100154005D9B98CB7300501001000100B240410137
:1001640082804111814601468145114506C6C1215F
:10017400B727004011472383E780B717004003C720
:10018400E70283C6E70483D78703116693F6F60F65
:10019400C207C1831377F70F93E6360063E5C70000
:1001A400719B13671700B7170040930570052380F0
:1001B400B704130680FA2380C70423820702238727
:1001C400E7022387D70403C7B7041377F70F13672E
:1001D4000702A385E70437F700E023800704130729
:1001E40007D0144B93E6460014CB144BDD9A14CB82
:1001F40073005010010001002380B7042380C7045A
:1002040003C7B7041377F70DA385E7042380070416
:10021400B24041018280411122C4814601462A84B0
:100224008145114506C62121B72700401147238384
:10023400E780B717004003C7E70283C6E70483D704
:100244008703116693F6F60FC207C1831377F70F7E
:1002540093E6360063E5C700719B13671700B71771
:100264000040930570052380B704130680FA2380A9
:10027400C704238207022387E7022387D70437F7BB
:1002840000E023800704130707D0144B657511059C
:1002940093E6460014CB2380B7042380C70483C6A7
:1002A400F700498C420493F6F60F93E60604A387FD
:1002B400D70083C6B704418093F6F60F93E606028F
:1002C400A385D70423908702144BDD9A14CB7300C3
:1002D4005010010001002380B7042380C70403C722
:1002E400B704130560041377F70DA385E70423808F
:1002F40007042244B240410191A4011126CA814657
:100304000146AA848145114506CE22CC4AC84EC670
:10031400392EB727004011472383E780B7160040E2
:1003240083C7E60203C7E60483D686031166137700
:10033400F70FC206C18293F7F70F1367370063E51F
:10034400C600F19B93E7170037140040930970052A
:1003540023003405130980FA230024052302040230
:100364002307F4022307E4042300040413055002C2
:10037400B920B7F700E0938707D0984B2565C98C5F
:100384001367470098CB2300340523002405034753
:10039400F4001377F70F13670704A307E40023108F
:1003A4009402984B5D9B98CB7300501001000100A0
:1003B400F2406244D2444249B24905618280B7178F
:1003C4000040930670052380D704130780FA238026
:1003D400E70403C6B7041376F60DA385C704238088
:1003E4000704137605023DC603C6A700118A1DE261
:1003F4002380D7042380E70403C7A7001377F70FEC
:10040400136747002385E7009307004B01000100B1
:10041400FD17EDFFB7170040930670052380D7043E
:10042400130780FA2380E7047D892394A700010041
:10043400010001000100238007042380D7042380E6
:10044400E7049306100537270040A303D7802380D1
:1004540007048280137605046DDE03C6A700418A73
:100464001DE22380D7042380E70403C7A700137782
:10047400F70F136707012385E7009307007D010049
:100484000100FD17EDFFB7170040930670052380A8
:10049400D704130780FA7D892380E70413650504D4
:1004A4002394A70001000100010001002380070438
:1004B4002380D7042380E7049306300537270040C0
:1004C40069B74111814601468145114506C6852219
:1004D400B7170040130770052380E704130780FA59
:1004E4002380E70403C767041377F70F1367170024
:1004F4002383E70423800704B24041018280411131
:10050400814601468145114506C61522B7170040AC
:10051400130770052380E704130780FA2380E70498
:100524007D572396E70203C767041377F70F136712
:1005340017002383E7042380070401A0BD47330584
:10054400F50201007D1575FD8280411122C426C289
:1005540006C6AA84014463179400B240224492441C
:100564004101828005041305803E4204C13F41805D
:10057400DDB72303048015472303E480010023022D
:10058400A480828083076480E3CE07FE2303048073
:10059400828083076480E3CE07FE03454480828023
:1005A40083076480E3CE07FE2302A4808280411186
:1005B40026C44AC24EC006C61377F50BAD47AA89B6
:1005C4002E8995446306F70019456537653F8D44C8
:1005D4004E854537FD59FD1463983401B240A24459
:1005E4001249824941018280135509011375F50F9F
:1005F400453F2209CDB7011126CC06CEB704080029
:1006040051371545BD37713769372AC6A53F32457D
:100614009377150089EB136515001375F50FF240F8
:10062400E24405618280FD14E9FC0145CDBF3971C6
:1006340026DC4ADA4ED852D656D45AD25ED006DEDA
:1006440062CE66CCB7E700E07D5783AA070022C6D6
:1006540003AA470023A0E71823A2E718B71700400E
:10066400130770052380E704130780FA2380E70447
:1006740083C74704930B75FFB684E20793FBFB0F14
:100684008546AA892E8B328937240040E187015799
:1006940063FA76016308D5008946130700026313E1
:1006A400D5000157D98F93F7F70FB71C0040238269
:1006B400FC0411472303E4801305F00F5D3D094C4E
:1006C400D13563697C11B70707003E9B3787070064
:1006D4007955637EEB02B3079B00636AF702A9476F
:1006E4006399F90689E48144713D26850DA0DA8574
:1006F4000945753D05090345F9FFFD14050B4D3505
:1007040081C49377FB0FFDF7FD3569FD7D55B71760
:100714000040130770052380E704130780FA238041
:10072400E70403C74704418B2382E704F250B7E789
:1007340000E023A0571123A24711E2543244525936
:10074400C259325AA25A125B825B724CE24C21614A
:100754008280A5476395F90685691309F00FB306EE
:100764009900B3742B01B6941349F9FFB37499003B
:10077400856B33796901416B9387F9FFB3F72701DF
:1007840099E363FC340193D94900C147E3E637FF99
:1007940099BF0569C1697D19D9B71305800D6388AF
:1007A4006901130500026384790113051008CA85E1
:1007B400FD3B913521DD4E99B3843441D9B7DA85B7
:1007C4002D45F533CA94E30099F20509D933A30FF3
:1007D400A9FED5BF9387F9FF93F7F70F636CFC0865
:1007E40003C75C04B70708001377070219E3B78748
:1007F40007007955E37DFBF033079B00E3E9E7F05D
:1008040089476390F9048980D549E38E04ECDA853D
:100814000945713B11090327C9FF91472320E4804F
:1008240003076480E34E07FE23033481FD17EDFBC9
:10083400FD14110B81C49377FB0FE9FF6D3B71F538
:10084400F1B58547E387F9F4DA852D458D3393892E
:10085400F4FFE38A04E8353B93F7390091EB8326F0
:1008640004800327090093074900E39FE6E63E89D5
:10087400CE84F1BFB5476396F9001305900BD539C3
:100884009DB5B1471305B00AE38BF9FE9947639E02
:10089400F902DA852D45213B81448D4BA149D53997
:1008A40063967401832704802320F9008504E39868
:1008B40034FF8327048013172B0163550700231289
:1008C400F90015B52322F90039BD9D476399F90252
:1008D40081451305B004E139BD44232009002322D6
:1008E4000900FD597D3193F77400CA9703C70700C7
:1008F400FD14398D2380A700E39634FFEDB3A1479F
:100904006392F904CD398144630D0B008D47930440
:10091400C0036308FB009304000563048B01930484
:1009240040041375C507E30095DC194599319939DD
:10093400054581312685AD3109459D316D39E31475
:1009440005DAE9B391476399F90013056006153197
:1009540015391305900925B7E38709D8F15469B30C
:1009640019CDB7170040130770052380E704130758
:1009740080FA2380E7042396A70223800704828059
:1009840019C1814799E982803387F50083460700BE
:100994003307F50085072300D700E397C7FEE5B7C3
:1009A40019C1FD5781E98280910503A7C5FF11058F
:1009B400232EE5FE7D16E319F6FEF5B7797122D4F0
:1009C40017340000130484BA1C4006D626D24AD039
:1009D4004ECE91C782979737000023A907B85C4091
:1009E40089CB03D5819AAD3F5C40829703D5A19A08
:1009F400853F1C40639C07189737000083C797CA3C
:100A0400858B95C797370000A38E07C8173700005A
:100A1400034777C9914763FCE700752B97370000BC
:100A240083C777C8F9178A07A2979C438297973799
:100A3400000083C7E7CB918B89C7970001E0E7806B
:100A4400C02B1C4491C382979387419A98431736CD
:100A540000000346B6AF3E8997340000938404AF88
:100A64009737000083C787AE93961700BA9683D64C
:100A74000600638306109737000083C727AD63FB26
:100A8400C70686073E97835507002310070003D542
:100A9400819A2EC6F1359387819B9C4317350000BC
:100AA4000345C5AA13172500BA979C43B2458297FC
:100AB400AA8903D5A19A6D359737000083C707A982
:100AC4001397170083270900BA9703D70700B3E9E0
:100AD400E9002390370183C70400850793F7F70FD4
:100AE400173700002304F7A617370000034717A69B
:100AF40063E6E70097370000238A07A41C40D9E780
:100B04009387019B98433E8451C39737000083C762
:100B1400D7B991CB9737000083C7F7B889E7970017
:100B240001E0E78060E21C4082972A8425C19C484A
:100B3400AA97173700002323F7A29387419B9C436E
:100B440081CF03D5819A293D228597F0FFDFE78085
:100B5400E04203D5A19A2935973700009387479B34
:100B6400DC538DC72254B25092540259F249456164
:100B740017F3FFDF67004319850793F7F70F9736DD
:100B840000002385F69CE3EDC7ECF5B5B250225482
:100B940092540259F249456182809167B7C6004078
:100BA4009387373023A6F6200F10000097370000F4
:100BB4009387C799884F938781A99C43316713070B
:100BC4003730F053B7071000FD17918F99833A051A
:100BD40023A6E6205D8D82804111B7170040985FFF
:100BE4003AC6945F3247E39CE6FE32454101828077
:100BF400411106C6D5379736000083C6A692858A6A
:100C0400B1C6930730333307F502B337F50239839E
:100C1400CA07D98F1737000013074793584B01456C
:100C24006303F7023385E740636BF70037653D08DC
:100C340089C637856F0813050590198D3E951737BA
:100C44000000232FF790B24041018280E54733072B
:100C5400F502B337F5022583DE0765BF0327C50F09
:100C64008346B50097370000938787A39C4F58436A
:100C74009386160295829043FD1693F6F60F10C3E1
:100C8400D04350C3904710C7D04750C7904B10CBA8
:100C9400D04B50CB904F10CFD04F50CF91C61307AD
:100CA400070293870702C1BF82808347E50193F758
:100CB400E70F91CB014582800145B2402244924422
:100CC4000249410182808347F501EDF7834605011E
:100CD4000347850089CA034665029737000083C726
:100CE40077846367F60093770701E9D7814789CA58
:100CF400834705158346F514418BA207D58F01CB95
:100D040003474515834635152207558FBA97DDD31A
:100D1400173700000347078141119316870106C660
:100D240022C426C24AC0E18663D506049387C7134A
:100D340013D4570097370000938707A2BC47972422
:100D4400000083C4C47E7D5903A707086373270189
:100D54003A899C43F5FB9387C19B9C438297E36D3F
:100D6400A9F43305A94026943334850013451400AF
:100D7400A9B7058B9387C71209CB8A071384F70396
:100D84009307D0073354F40275B786071384F70129
:100D94009307D003C5BF5D7122DE138481A83AD2C4
:100DA40018403ED04ACA1C5F86C696C499839AC22C
:100DB4009EC026DC2ADA2ED832D636D442CE46CC91
:100DC40072C876C67AC47EC2858B138941A8C1C312
:100DD4001C5F973400009384A48C93F7F7F91CDF0D
:100DE4009737000083C7C78B93F707048DC3938796
:100DF400C19B9C4382979737000023ABA78A83C784
:100E0400040093F7F70B17370000230BF788854787
:100E140017370000A308F78883C7440093F7070433
:100E240081EF938781A99C43D844B8D3930700FCEE
:100E3400173700002308F7868387640063D9070007
:100E4400832709009C4317370000230EF7841840BA
:100E54001C5F8583858BC9CBF5571CDF010001001E
:100E64000100010001000100010001000100010076
:100E74000100010001000100010001000100010066
:100E84000100010001000100010001000100010056
:100E94000100010001000100010001000100010046
:100EA4000100010001000100010001000100010036
:100EB4000100010001000100010001000100010026
:100EC4000100010001000100010001000100010016
:100ED400010001000100010001000100938781A9C4
:100EE4009C4313075004B8CB18401C5F9183858B37
:100EF40089CFBD571CDF938781A99C4323A807048E
:100F0400854717270000230FF77883270900D84364
:100F14000583058B19C7D843759BD8C3D843799BE0
:100F2400D8C37254B640A64216438643E25452557F
:100F3400C2553256A256125782577248E248524955
:100F4400424EB24E224F924F6161730020301727F8
:100F540000001307E77483474700858B89EF8347B5
:100F64002700858B89EB83473700858BEDD797273F
:100F74000000238907728280938741A99C4399CBFF
:100F8400944BD04B9842518F98C294439C479842BB
:100F9400D98F9CC2938781A99C4337C7004013060D
:100FA400C003A8CB93062003972500009385456FC3
:100FB40083278720C18393F7F7036369F6008327A8
:100FC4008720C18393F7F70363E6F60083C74500E0
:100FD400858BF9DF8280172700001307676C83472E
:100FE4004700858B89EB83470700858B91CB972737
:100FF40000002389076A97270000A385076A828077
:1010040083471700858BE1DFDDB7938741A99C43B4
:1010140099CB944BD04B9842518F98C294439C47A0
:101024009842D98F9CC2938781A99C4337C70040BB
:101034004146A8CBE546972500009385656683273E
:101044008720C18393F7F703637DF6008327872006
:10105400C18393F7F70363E6F60083C74500858BE6
:10106400F9DF8280138781A81843AA87185F158344
:10107400058B25EF0345150015051377C51F19C604
:10108400B386E70083C626002300D60095C59726BD
:10109400000083C6466193F606040945A1CAB386D7
:1010A400E70083C63600054693F5F6066390C5044B
:1010B400E206E18663CC06023385E7008347150028
:1010C40003470500A20793F70770D98F1397070109
:1010D40041839376074099C6136707802398E1A854
:1010E400014582802398F1A8E5BF0545828001115E
:1010F40036C8938681A92ECC8C423AC63EC4984504
:101104002ACE32CA9317070142C2C183137817202B
:1011140036853E8697260000938686586304080425
:101124001377072061CF03C726001367170017281A
:1011340000002308E85613070019B8D1130700F874
:10114400972500002380E556138781A80C433708B0
:101154000010D855719B13672700D8D59841336781
:10116400070198C11377261005C31376061045CAE4
:1011740003C7060013671700172600002302E65270
:10118400172700002312075283C6460093C7F7FFB0
:10119400C207E206E186C183184163D10602939631
:1011A400170163D7060830538D4663E9C6008546A8
:1011B400172600002308D64E3453FDFE9726000060
:1011C400938606358386460163DD06009396070100
:1011D400C18663D506067053894663E4C60074531A
:1011E400FDFE14477245E245F58F1CC75246C246C0
:1011F4003247A247124805617300203003C7160026
:101204001367170097250000A38CE54817270000F3
:10121400230A07481727000023180748A1B703C764
:1012240036001367170017260000A30CE64689BF93
:101234008546172600002307D64649B75447139618
:10124400060163510602B7061000FD1674D39726F3
:1012540000009386A62F944E8506172600002323AC
:10126400D63041B7A166D58FADBF1727000013074D
:10127400E7448346B7019727000083C77747B697AB
:1012840093F7F70FFD4663EAF6044C4B97260000EC
:10129400A386F6429727000083C7574205473317B2
:1012A400F70097260000A385F6446D8F1DEF97265F
:1012B400000083C63644B3F6D70213050002814703
:1012C40033D6F500058A13F8F70F09CE6399E600C3
:1012D40097270000A384073F828081177DB7050705
:1012E4001377F70F8507E39DA7FC8280938701AAF4
:1012F4009843B75702009387079F832607091396DD
:101304005600635806008326070913966600634453
:101314000600FD17FDF3828051C9AA870145C9C99A
:101324008D07C207C183F19BC207C1831307400322
:10133400636BF702138701B30843138781B2144325
:101344006396A602172700001307871C185B014544
:1013540025C34111C20706C60545DD8D0297B2407B
:101364000145410182801387C1B2F9B70357650073
:1013740005EF035745006369F702B306F7402146BA
:101384006370D6021041938687001D8FAA96611759
:1013940090C22392E6002393060014C12312F500A1
:1013A4002313B50021058280084159BF014582807D
:1013B400828001CD938701B303A80700938781B28C
:1013C4008C430147C28763E3B70082809443636F11
:1013D400F50663EDA60613868700E368C5FE03D50C
:1013E4006700216605066317C50003C6C1A4050688
:1013F4002386C1A423930700638407031386C1B221
:101404001042630FF6000356670019EA83D74700BA
:1014140014C383564700B697A1072312F700BA876F
:101424009843E304B7FA9386C1B29442E30FD7F822
:1014340083566700D9FA83D64700035647001843FA
:10144400A106B2962392D70098C382803E87B687BE
:041454009DBF000038
:10145800974100209381815017710020130101BA30
:10146800130540009725002093854539173600203D
:101478001306067E63FAC5008322050023A05500E3
:1014880011059105E3EAC5FE17B50100130585703E
:10149800973500209385C57B1386019263FAC500B2
:1014A8008322050023A0550011059105E3EAC5FE36
:1014B8001385019297650020938545B46377B5003D
:1014C800232005001105E36DB5FE9302800873A083
:1014D8000230972200209382623293E212007390C6
:1014E8005230971200009382428273901234730034
:1014F80020303D432A876373C3029377F700BDEF1B
:10150800ADE5937606FF3D8ABA960CC34CC30CC76B
:101518004CC74107E36BD7FE11E28280B306C34094
:101528008A069702000096966780A6002307B700F0
:10153800A306B7002306B700A305B7002305B70025
:10154800A304B7002304B700A303B7002303B7001D
:10155800A302B7002302B700A301B7002301B70015
:10156800A300B7002300B700828093F5F50F939688
:101578008500D58D93960501D58D61B79396270083
:101588009702000096968682E78086FA9680C117B1
:101598001D8F3E96E374C3F8A5B7411106C622C451
:1015A80003C48500418815E01DE3A14732852390D7
:1015B800F60021469385019297300020E78000BC11
:1015C800B24022852244410182802144D5BF2D4466
:1015D800C5BF41654111938541B57D1506C6EF70BC
:1015E800D06CB240973600209386866941468D4577
:1015F800173500201305C56541016F703060411132
:1016080022C413840192AA852146228506C623AEE8
:10161800019297300020E78060B683470400814537
:101628000145BD8B2300F400A92022862244B24044
:10163800A146814529454101172300206700E37E23
:10164800411106C622C403C485001374040205E0D0
:10165800A1476399F60003477600C54732856313AF
:10166800F700713FB2402285224441018280214423
:10167800D5BF138781938347070093F7F7072300A4
:10168800F70083C70192A18B3717004089CB8327C6
:10169800870A93E707202324F70A014582808327D6
:1016A800C70A93E707202326F70AC5BF411106C6D4
:1016B80083C78193B9CBE207E18763CA070037176D
:1016C80000408327870A93C707202324F70A138734
:1016D80041931C4389669386067185071CC31307CB
:1016E8005020B387E70203C731923307D7026373E9
:1016F800F7002D24130650208D4503C50193EF20D4
:10170800E014B24001454101828081450145953789
:1017180023AA0192FDB71387819383470700130615
:1017280050208D4593E707042300F70003C5019374
:1017380023AA01926F208011011106CE138781938D
:10174800834707002AC6170500001305C5F293E76B
:1017580007F82300F700EF2080453246F2408D4518
:1017680005616F20A00E411117150000130505B97A
:1017780006C6EF20C043238EA1940965130505D63C
:10178800653F8D4513050020EF10A07F37170040F7
:101798008327870A17050000130585F193E70720BB
:1017A8002324F70AEF20A040B2402388A1924101E8
:1017B80082800111A1461386019281452D4526CAD2
:1017C80023A4019406CE22CC4AC84EC652C49384A0
:1017D800019297200020E780406503C77400C54741
:1017E8006309F70203C70400A1462686419B2380AC
:1017F800E4001D47A380E40081450D472945238166
:10180800F400A381E400A383F40097200020E7807C
:10181800C061854537054000EF10E07F81451965B7
:1018280037140040EF10E07503574409196637EA8A
:1018380000E042074183518F42074183231AE4089D
:101848008326C40A1967A169D98E2326D40A832658
:10185800840A138509088145D98E2324D40A231EB6
:10186800E4088357040993890908C207C183D18F03
:10187800C207C1832318F408B70702002320FA100F
:10188800EF10607903576409E177938607084207E8
:101898004183558F42074183231BE4088327C40CE7
:1018A80091454145B3E737012326F40C8327840C7F
:1018B800B3E937012324340D231FD408835724099F
:1018C800C207C183D58FC207C1832319F408B7079C
:1018D80004002320FA1023A6019423A2019423A034
:1018E800019423A80194EF10C06983C70400918B69
:1018F80099CF8327C40A93E707012326F40A624491
:10190800F240D2444249B249224A0561A9BD83271F
:10191800840A93E707012324F40AD5B783C73192D1
:10192800BDCBB717004093870708D857411106C6A3
:1019380013670720D8D737E700E03443414630C360
:10194800B7050200130607180CC234C301000100D2
:10195800D8570546C14513670701D8D70545EF1085
:101968003001B71600403707400083A7460CF98FAF
:10197800EDDF370540008945EF102073B240B7E727
:1019880000E03707040023A0E710014541011723B1
:1019980000206700431682809386019283C7060061
:1019A800411122C406C626C2858B13848194A5CF13
:1019B800B717004083A7470C37074000F98F99E70E
:1019C8008347040093E727002300F400938491934E
:1019D8000347040083C704006314F7061C40370755
:1019E8000001130707F0F98FA1EF1387C1931C4378
:1019F80085071CC303C72600B307F70203C73600D1
:101A08008966938606713307D7026373F7003937FF
:101A180083470400B24022442380F40023A40194A5
:101A2800924441018280B717004083A7470C3707CB
:101A38004000F98FC1FF8347040093E7170069B797
:101A480093868194114685450145EF00F05A23AEEF
:101A580001927DBF828023AA01927D15954763EA92
:101A6800A70E17B701001307E79D0A053A951C4111
:101A7800011106CEBA9782872C0013054030EF700B
:101A8800A1292C000545EF40305D17B5010013056D
:101A9800A591EF90D100F2400561828017B5010051
:101AA80013058591EF90A17FF2400561ADB11387D1
:101AB8008193834707000D661306062093C7070422
:101AC8002300F70083D7A50003C561819145239AB8
:101AD800F180EF10B05781450145EF00F00117B5CF
:101AE80001001305658EF24005616F90417B17B5C3
:101AF80001001305258EC5BF83C72500114717B5FB
:101B080001001305A58E638EE70219476394E70267
:101B180083C5650017B501001305058FEF90E166D1
:101B2800854730008545130550302304F100EF70D8
:101B3800612C95B71547E395E7FE17B50100130526
:101B4800658EEF90C175E9BF17B501001305058FC4
:101B580059BF82803688BA863E876316080083C6D6
:101B680006006F10A00A85476314F8006F10800CF8
:101B78008947631FF80041111306401F894503C5B3
:101B8800618106C6EF10904CB24001454101828048
:101B98000145828041119397050122C406C6C18779
:101BA8002E8463DF070003C56181EF10E07919C156
:101BB800EF10E0722165218DB240224441018280FC
:101BC80093F7150013C51500E5FB93F7450099CF6A
:101BD80083C761811307401F81462146A14503D56C
:101BE8004181EF60B16D13454400F9B713F5250045
:101BF80061D55D3303C621921D06894503C5618100
:101C0800EF10D0441345240045BF0111170500000B
:101C1800130585F806CE22CC26CAEF105079938496
:101C2800618105442380A400700085451305503068
:101C380023068100EF70011C138641809D45130522
:101C48006030EF70211B1736002013062605F54576
:101C580013057030EF70011A17B6010013060680DD
:101C6800D5450145EF5000338D4770009145130568
:101C780070402305F10023048100A305810002C6FA
:101C8800A3040100EF50716830008545130500403A
:101C9800EF50B16713069100854513051040EF50CA
:101CA800D1661306A100854513052040EF50F16564
:101CB8001306B100854513055040EF501165930593
:101CC800C0120D45EF3000689305C0121145EF3082
:101CD800606799477000854505452306F1009523FF
:101CE800EF00F06897350020938545FA1385C18089
:101CF800EF00502F624403C50400F240D2448545EA
:101D080005616F10502441111305800406C6972001
:101D18000020E78080EA371700408327870A8D452F
:101D28001305002093E707202324F70AEF10602506
:101D3800EF10E055B52A7924EF708131EF00D022F9
:101D4800E9359305F00F0145EF10A03F0145EF106D
:101D5800800B853497200020E7800046E5BF4111BD
:101D680093962500AA852D4506C697200020E78072
:101D7800C00BB240014541018280411122C426C2F4
:101D88004AC02A842E89B284AA8593060020014677
:101D9800254506C697200020E780200993162900CC
:101DA8002686A285294597200020E7800008B240B2
:101DB800224492440249014541018280011122CC0A
:101DC80006CE3714004026CA4AC84EC652C48344B9
:101DD8007405034AB4058349840503499405EF0053
:101DE800107E8347A40593F4F40F137AFA0F93F740
:101DF800F70F93E71700230DF40493F9F90F1379FC
:101E0800F90FB717004003C7A705058B6DFF03D56A
:101E1800C705A38D4705238C3705A38C2705A38BFE
:101E28009704F24062444205D2444249B249224AE8
:101E380041810561828041119397050122C406C63C
:101E480026C2C1872E8463DE0700EF10E04F19C158
:101E5800EF10E0482165218DB240224492444101AF
:101E6800828093F7150013C51500FDF78964B3F751
:101E780095008DC3EF20E14E37F60200130606E009
:101E8800896503C54195EF10701C258C1315040155
:101E98004181D9B7916433F595005DDD17A501003F
:101EA8001305455DEF90A13F130600649165D1BF0E
:101EB8001D71494697A501009385055C17B501007A
:101EC8001305858886CEA2CCEF10100201E917A56C
:101ED80001001305A55BEF90813C01A037F700E0F6
:101EE800F9575CC7FD571CCBB7E700E0056493863C
:101EF800071080C29306701014C3B843C146B4C318
:101F08009386071880C2B8C3010001001306C003F6
:101F180081454808EF102077973700209387475A64
:101F28003ECA896793870780231CF100ED47A30108
:101F3800F1029307A0102312F102D1472303F10203
:101F4800A167938707E03ECE97070000938767E174
:101F5800BEC497070000938787E2BEC6B54723082B
:101F6800F102B7F50700971700009387272C3EDA90
:101F78008146970700009387A7E47000E10519459B
:101F88003EDE97200020E78040EA19466C001305E2
:101F9800A102EF90C111D24789C78357810163F32A
:101FA800870001A04808EF101044AA8501C917A5A9
:101FB80001001305E54EEF90411D01A0F64066446F
:101FC80025618280411117050000130505E706C643
:101FD80022C4EF10D03D138441952300A400292882
:101FE800034504002244B24037F60200130606E017
:101FF800896541016F109005411106C6B717004069
:10200800130770052380E704130780FA2380E70489
:1020180003C7F7021305407E81461377F70F13674E
:102028007700A387E7022380070401478147054615
:102038008545EF00F05FB240014541016F109062A5
:10204800011106CE22CC83A7419691C38297EF0057
:1020580090592A84EF0030592A94EF00D0582A94D6
:10206800EF0070582A94EF001058B3078500154503
:10207800B3C7A70203D781811305400663F4E702BB
:1020880083D6E181014563FFF6003385D740930786
:1020980040063305F502158F420741833355E502A3
:1020A8001375F50F83A7819681C72AC68297324593
:1020B800F24062440561828003A84500411122C4B0
:1020C80006C626C283471800834808000D68A20781
:1020D800B3E7170113082890294463960703854737
:1020E800B284EF50E0742A8419ED03A7019601CF5A
:1020F80083C7140003C50400A207C98F93B717004C
:10210800138517000297B240228522449244410168
:1021180082802D452DE7D841411122C426C206C62A
:1021280083471700B68483460700A2070D67D58F3B
:10213800930697A132846394D70219379387018253
:102148002380A70005472390E40083C707002300E6
:10215800F4000145B24022449244410182801307B1
:1021680087902945E398E7FECC4589472390F400FA
:102178000946228597200020E7804000D9BF828049
:1021880083474500858BADC7011122CC2A840355AE
:102198002500975500209385A5B206CEEF5000661E
:1021A800058939C103552400014781460546ED4597
:1021B800EF50C0222AC60DC99737002083D7A7B28F
:1021C8002314F10085472315F10083C701822300FA
:1021D800F5000355240001462C00EF60203D09C599
:1021E800ED452800EF504037F24062440561828097
:1021F800828041118145056506C6EF0090588945E2
:102208000145EF009039B7170040094741659755D8
:1022180000209385E5AA7D15238CE704EF70E0285C
:10222800B24097360020938666AE414695451735ED
:1022380000201305A5A841016F70401C23A0A1969A
:102248008280411122C406C6854709446311F502FC
:10225800834706000144A38EF19403C701826308F3
:10226800F700170500001305E5F1EF90C047B240ED
:10227800228522444101828089476305F50263E88B
:10228800A70019E983C701822380F50082808D4762
:102298006301F5020945828083C7D1952380F50043
:1022A800014582809737002083D7E7A12390F50066
:1022B800C5BF83D7C1812392F50097370020938744
:1022C800E79F03D7A70283D7A7032390E5002391AD
:1022D800F50085472383F500E1B7411106C68D3324
:1022E8002380A182170500001305C5E9EF90A03FE0
:1022F800B240014541018280411106C6F93F1706E7
:1023080000001306A6FF8D4503C5C195EF100054C4
:10231800B240014541018280C167F917630EF50299
:10232800411122C406C685472A84639CF50022858C
:102338002244B240975500209385859841016F70DB
:10234800C01689476396F5008545EF90403465D1FE
:10235800B24022444101828082803285D0414111BD
:1023680006C683451600034806000D66A205B3E5B8
:10237800050113980501135808419308A6A263C8DC
:102388000803130626A26358060375761306C65D6E
:10239800B295C205C18119466363B60217A8010048
:1023A800130808128A05C2959041429602861306C0
:1023B80006A5630DC81023900600A94525A01D4653
:1023C8009D456361E6022146198E63F3C7003E8688
:1023D8002390C6009385C196BA9597200020E78080
:1023E800E0D98145B2402E85410182802D469D4528
:1023F800E36AE6FE3146198E63F3C7003E862390F2
:10240800C60097A5010093852512F9B731469D4569
:10241800E36AE6FC3546198E63F3C7003E862390CF
:10242800C60097A50100938525117DB741469D45B6
:10243800E36AE6FA4546198E63F3C7003E862390A1
:10244800C60097A501009385650A79B741469D4561
:10245800E36AE6F84546198E63F3C7003E86239083
:10246800C60097A501009385A509BDB741469D45BE
:10247800E36AE6F64546198E63F3C7003E86239065
:10248800C60097A501009385250CB9B741469D451F
:10249800E36AE6F44546198E63F3C7003E86239047
:1024A800C60097A501009385E5063DB735469D45CD
:1024B800E36AE6F23946198E63F3C7003E86239035
:1024C800C60097A501009385650139B719469D4552
:1024D800E36AE6F03386E54063F3C7003E8623905F
:1024E800C60093858182CDBD973600209386C69518
:1024F8004146CD4517350020130505826F601070E1
:1025080082802A8783C7C19703A5819883C63184AF
:1025180099E301458280035605006316E6000346E9
:102528006500E309D6FEFD1793F7F70F2105CDB730
:102538001166130686A9894503C5D1976F10003126
:10254800B2862E86AA8517A50100130525016F807E
:10255800D1430111930500030D4506CEEF20905E8F
:10256800930500051145EF20F05D9305C00305456F
:10257800EF20505D85471306F1008545130550305F
:10258800A307F100EF601107F24005618280411155
:102598009397050122C406C6C1872E8463DF07000E
:1025A80003C5D197EF00505A19C1EF005053216568
:1025B800218DB24022444101828093F7150091CFCA
:1025C80017360020130606899385418303C5D197E2
:1025D800EF60615513451400E9BF13F5250071D963
:1025E80013C52500F9B785476398F50019E2238BD1
:1025F800B1962386C198828009476399E50019E658
:10260800238BF19603D541976F00406F82800111AB
:1026180022CC06CE83A701982E8499C79C4789C7E8
:102628006244F240056182876C0013057040EF50E8
:10263800E126324622858145EF50113FF24062443F
:1026480005618280797122D44AD052CC06D626D22E
:102658004ECE56CA91472A842E89138A81976314CD
:10266800F50483D7A5001306E1008545130550300E
:10267800239AF19623070100238B0196EF60817757
:1026880083A7019891C7DC4781C7CA8522858297AD
:1026980023208A00B250225492540259F249624AC5
:1026A800D24A4561828003270A00E31BF7FC938422
:1026B800419703D504008545853103D50400854538
:1026C800612D83DA0400C167F917639BFA02854418
:1026D8009305E10013055041238B0196A381918452
:1026E80023070100EF50811B8347E100A1E303C7E3
:1026F800C1989147E316F7F8A93D2386019849B791
:1027080083A9819883C4C197F9D003D5290011C939
:102718009305E100EF50007209C54C455685EF60FE
:10272800D058FD1493F4F40FA109F9BF83A7419879
:1027380083C74700898BC5DF9305000A0D45EF2045
:1027480070409305000A1145EF20D03F81450545AB
:10275800EF20503F1306E10085451305503023074D
:102768009100EF60216961B7011117050000130599
:1027780045E206CE22CCEF1080431384D19713068E
:10278800F100854785452300A40013054041A307B0
:10279800F100EF5081377D55EF40B00D7D55EF606A
:1027A800B04D9933EFE0FFE2EFF0BFA4292B1705F6
:1027B8000000130525D8EFF07FA8170500001305C2
:1027C80065D4152B034504008545EF00D0770345F4
:1027D80004006244F2401166130686A98945056122
:1027E8006F10C00623A0B19823A2A198828023A4C9
:1027F800B198238EA1968280797106D622D426D2EA
:102808004AD04ECE52CC56CA83A7819711476393BC
:10281800E70C83C76197414495CFB284B68903A476
:10282800819883C7C19703C7318485C7834644000D
:10283800639CA602834654006398B60283466400EC
:102848006394E6020355240093056100EF50805E0F
:102858000DE15544B2502285225492540259F2494E
:10286800624AD24A45618280FD1793F7F70F210427
:102878006DBF138941974C4503550900EF40107807
:10288800058961D903550900139A0401135A0A01ED
:10289800014781465286ED45835A0400EF401034C3
:1028A8002AC64D4445D92686CE85231451012315C1
:1028B800410197200020E780608C035509000146FC
:1028C8002C00EF50B04E2A8451D5ED452800EF403A
:1028D800B04849B709474144E38EE7F62C00130591
:1028E800504123040100EF40717B834781008DCB69
:1028F800930500020D45EF20F024930500031145D0
:10290800EF20502495450545EF20D023854730001A
:102918008545130550302304F100EF60A14D1DBF1C
:102928000D39414405BF41114AC03689D44126C2F8
:1029380006C622C403C41600B28403C606002204D5
:102948000D68518C01CF1308B8A42D4563080407FE
:10295800B240224492440249410182809306D8A49D
:102968006300D402930628A2630CD400F5789388F8
:10297800E85CA298C20893D80801854663EC160360
:1029880003D5A500BD3E1DC183A701982286224418
:1029980003A8070083455500B24003454500A687B4
:1029A8004A8792440249854641010288231009005A
:1029B800014579BF1306B8A46319C40203D861841A
:1029C8001D45E37707F93308E84063D307013E88DC
:1029D800CC4513160801231009014182BA952685B2
:1029E80097100020E7808079E1B79307A8A46318BF
:1029F800F40091472310F9001146CC45CDB7930751
:102A080088906317F40089472310F9000946F5B741
:102A18009307E8A4631AF400DC452310D90083C7A0
:102A280007002380F40069B713087890E31204F9CB
:102A3800D9BF011122CC06CE26CA4AC82317D10015
:102A48002D4429EBDC412E89B28403C4170083C6C8
:102A580007008D672204558C9386D7A46306D4009B
:102A6800938627A3631FD4020355A900EFF07FA91B
:102A780019E1014405A083A7019803A8070083452D
:102A88005500034545002286A6871307E1008146C5
:102A980002982A84F24022856244D2444249056160
:102AA80082809386C7A46313D4028357E100054745
:102AB8003544E391E7FE0345060013040008E3EB01
:102AC800A7FC83A70198DC43829765B79386279074
:102AD8006315D4068356E1008547EF4070552A8474
:102AE80055F98356A90003A7819883C7C197D1D305
:102AF80003562700631CD60283A7019803A8070082
:102B080083C71400034547008345570003C70400E3
:102B1800A2078946D98F0547639FE7000D66A687F8
:102B28001307E100130626900298ADB7FD1793F737
:102B3800F70F21076DBF8D46D5B79387E7A4E31A32
:102B4800F4F28357E10005473544E395E7F403457C
:102B5800060013040008E3EFA7F2DC452380A70072
:102B680083A701983335A000DC430905B1BF41654F
:102B78004111974500209385A5157D1506C622C4E9
:102B880026C24AC0972400209384842DEF60F01158
:102B9800972600209386C63E4146C9452685EF60A4
:102BA800F005CC4C2A890945EFF00FED17440020B9
:102BB8001304041383D701852312F40083D7A40CCC
:102BC80003D7C1842316E4002310F40083D7A40D8F
:102BD80003D7A41097450020938585112311F4008D
:102BE8000D4585472303F4002314E4002307F4006C
:102BF80023150400EFF04FE8A2850D45CD3EB24005
:102C0800224492444A850249410182808D67938714
:102C1800D7A40145631FF6008D472945639BF5003E
:102C2800854735456397F6008347070001452387A5
:102C3800F19882808D679387D7A4631EF6008D472D
:102C4800639BF50083C7E1982300F700854723902D
:102C5800F6000145828023900600E5BF0145828089
:102C680025E303A84500AE8883471800834E080073
:102C78000D68A207B3E7D701930EF8A4639AD703A8
:102C880091473548639FF60203A5C8003283411176
:102C980011469A8506C697100020E780204E054504
:102CA80083A7C1998297B240014842854101828039
:102CB8009308289029486396170185476F40503735
:102CC8002D484285828041654111974500209385B2
:102CD800A5027D1506C6EF60407DB240972600200C
:102CE8009386C63041469945172500201305052AC5
:102CF80041016F60A07023AEA198828001119745B1
:102D08000020938565FF22CC06CE2A84EF40102F41
:102D180005891DCD014781460546ED452285EF40D1
:102D2800E06B2AC615C59727002083D7C72B231425
:102D3800F10085472315F1002300050001462C000A
:102D48002285EF50B00609C5ED452800EF40D000B8
:102D5800F240624405618280C167F917630EF5028B
:102D6800411122C406C685472A84639CF500228542
:102D78002244B24097450020938505F841016F60D1
:102D8800C07289476396F5008545EF80501065D17C
:102D9800B2402244410182808280B717004003C7B5
:102DA80077051A0592054D8D1377E70F13653500E2
:102DB800A38BE7041375F50FA38CA7048280B717BC
:102DC800004003C777051377E70FA38BE7041307C2
:102DD80000F8A38DE7043D47238CE704130770032D
:102DE800A38CE70482800547B7170040238DE704CA
:102DF800371700408347A705858BEDFF0355C705A7
:102E0800520551818280B717004003C7E704930633
:102E180070052380D7041377C70F0D89930680FAAE
:102E28002380D704498F2387E704238007048280FF
:102E38004111130EF5FF0143930E407E130F001945
:102E4800930F400613081E0042081358080163E355
:102E58000E0D13080019130E4006337805039378F6
:102E68003500854E0D4FA14FFD4293B81800337EB3
:102E7800C50363EABE0C1308F6FF79461A984208A0
:102E8800135808013307C70213D61700BE07329735
:102E98006146B3F6C60213068070B386C60236973B
:102EA800A166F58F42075D8FB717004083C6F7020A
:102EB80093F60608A307D1000346F10083C6F7027C
:102EC8001376F60F93F60608E312D6FE8346F10052
:102ED80093F6F60FE1DE930670052380D704930678
:102EE80080FA2380D70423AA070383C6170393E62F
:102EF80006F893F6F60FA388D702D8DB03C71703A3
:102F08001377F70F13670704A388E70223800704E2
:102F180041018280B368EE031308E016638E08004F
:102F2800B368FE031308D0166388080093783E0040
:102F380013B818001308D8161A9813130801135356
:102F480003017D1E01B76393E50305456306080089
:102F5800014563030E00468571051A95FD15131387
:102F68000501C20513530301C18121B713F51500EB
:102F780063F4BF007905D5B73385A2404205418186
:102F8800E9BF914763EAB702179701001307476241
:102F98008A05BA959C41BA978287B71700409387EC
:102FA8000708D85B1345F5FF698FD8DB985B698FF5
:102FB80098DB9853798D88D38280B7170040938720
:102FC8000708D45B1347F5FFF98ED4DB945B558D66
:102FD80088DB9453758F98D38280B7170040938706
:102FE8000708D85B498FD8DB985B1345F5FFC1B755
:102FF800B717004093870708D45B1347F5FF758F11
:10300800D8DB9853598D45BFB717004093870708F9
:10301800D85B498FF5B7914763EAB7021797010064
:103028001307475A8A05BA959C41BA978287B717FA
:10303800004093870708F84B1345F5FF698FF8CBD5
:10304800B84B698FB8CBB843798DA8C38280B717BE
:10305800004093870708F44B1347F5FFF98EF4CB2C
:10306800B44B558DA8CBB443758FB8C38280B717BE
:10307800004093870708F84B498FF8CBB84B1345A6
:10308800F5FFC1B7B717004093870708F44B1347FC
:10309800F5FF758FF8CBB843598D45BFB71700407A
:1030A80093870708F84B498FF5B79357E50093F7CF
:1030B8000730C98FC2070947C1836384E506636483
:1030C800B70213C6F7FF9DEDB716004003D7660990
:1030D80042074183718F239BE60803A7C60C598DCD
:1030E80023A6A60C21A00D476385E504B71600406A
:1030F800239FF60803D7260942074183D98F2399CE
:10310800F6088280B716004003D766094207418354
:10311800718F239BE60803A7860C598D23A4A60C60
:10312800F1B7B716004003D76609420741835D8FA0
:103138005DB7B716004003D76609420741835D8F24
:10314800C9BFB7170040130770052380E7041307AA
:1031580080FA2380E704D84701E9D98DCCC7B7178F
:10316800004023800704828093C5F5FFF98DFDB7E1
:103178000DE9B7170040130770052380E70413070C
:1031880080FA2380E70403C7E70093C5F5FF1377A8
:10319800F70FF98D2387B700B7170040238007047E
:1031A80082808D479306000C63E7C700938781915F
:1031B8003E9683460600B717004013077005238024
:1031C800E704130780FA2380E70403C7E7001377AF
:1031D800F7032387E70003C7E7001377F70FD98DB5
:1031E800D58D4DBFB717004083D7870013950701CA
:1031F80093F70704418191EB9377F5013755E8017F
:10320800130505803345F50282809377050C130773
:1032180000046397E7009377F50137459C1CCDB709
:103228002165130505D08280B7F700E0C8439C47A5
:10323800828032858147B7360040214663C3A700A4
:10324800828003C7B6401377F70FE30CC7FE3387B6
:10325800F5000347070085072384E640C5B74111F9
:1032680022C406C62A84BD3F2947B307E502B240F7
:103278008D83B3D7870222449507B3D7E702373740
:103288000040C207C1832316F7404101828071655F
:1032980041111305052006C6D937B7370040130773
:1032A80070F82381E7400D47A381E7401307000426
:1032B800A380E74005472387E740B2404101828069
:1032C80023AC05FE1C4191E7010001000CC182807E
:1032D800BA8703A787FF6DFF23ACB7FE82801DC1A5
:1032E8008346E5FF1307F00F9147639EE6004111FF
:1032F80006C697200020E780808BB24081473E8534
:103308004101828095473E85828001E9014582809E
:103318000145B240224441018280411122C42A84DD
:10332800210542059305D004418106C69710002067
:10333800E780407E71DDFD572320050023128500BC
:103348002303F5002105F1B71387019A1C434111A6
:1033580022C426C24AC006C601440149BA8489E784
:10336800A165912D0DC401A803C7E7FF6318A70243
:103378001DC8A165C92E9840832784FF6317E402FE
:1033880023A0F19AFD57232C04FE230FF4FE228577
:10339800B2402244924402494101828011E03E89B0
:1033A80083A787FF6DBF3E84E5BF232CF9FED9BFF5
:1033B800A9C9411122C406C62A849747002083C799
:1033C80077982E856368F400193F0D45B240224472
:1033D8004101828083A785FF99E703C7E5FF93072B
:1033E800F00F6305F700E53D1545CDB7238F85FE42
:1033F8001385019AF13522852244B240A165410125
:1034080099A61545828023A0019A82809387419BC3
:103418009C4399E33E85828003D727006316B70053
:1034280003C70700E308A7FEDC47E5B741119397F8
:1034380005014AC006C622C426C2C1872E8963DE9A
:103448000700193711C1613D21653345A900B24014
:1034580022449244024941018280AA860145E5D965
:1034680001443D47B3578940858B95CB9387C19AD3
:103478008443BD4791E28147A2978E070545BE94D4
:1034880033158500131405019C40C840418082977C
:1034980023A0040023A20400334524014DBF0504E2
:1034A800E312E4FC0144CDBF974700209387C7850A
:1034B8009C53411122C406C61384418595C782973F
:1034C80023AAA1840840B74703009387D73F330551
:1034D800F502B7A72600938737ECB24022443E9501
:1034E80023AAA1844101828097470020938787857A
:1034F80018409C4BBA9723AAF184E9B79387419A5D
:1035080090439746002083C6F683814713F7F70F49
:103518006361D70A1747002003477798914763E10B
:10352800E70A9747002083C7279C918BD1EB0111AD
:10353800680006CE22CC26CAEFB0D0577D57630864
:10354800E50EB247173400200344347D6374F40C4D
:10355800973700209387077FC4479737002083C792
:10356800E77B6386E406858BA9CFD147B384F40251
:103578006372940A97100020E780C0E5B24763F3AE
:10358800F400A6871734002003443479818F3384EC
:10359800A70097370020938727778387470163CE53
:1035A8000702B707C0A8636AF402B70740573E94FA
:1035B8002DA085071397170032970357E7FF39D7D0
:1035C800828093079002B384F402858055B7E2079E
:1035D800E18763D607043304854003D5A19A971081
:1035E8000020E780A0B719E03704C0A8973700206B
:1035F80093878771DC532285829709ED97470020CE
:10360800938787899C4F99C7EF00D110EF003169E4
:10361800EF00B104F2406244D24405618280E37C49
:1036280085FAB707C0A8338487402A947DB79737AF
:10363800002093872771DC47E38EA7FC173700200B
:103648001307876C83464701BA84858A9DC651440F
:10365800338487029737002083C7376CE3FC87FAE7
:1036680097100020E78000D79737002083C7F76AB4
:103678001D8C2A94838744011DB713049002338458
:1036880087020580C1BF2A9609E582800505A30F38
:10369800B5FEE31DC5FED5BF81473307F500030717
:1036A800070019E33E8582808507C5BF01112E8674
:1036B80026CAAA84131506019305F004418122CC79
:1036C80006CE32C697100020E780C0442A8419C568
:1036D8003246A68597100020E78040AA2285F2404E
:1036E8006244D2440561828081476314F60005452F
:1036F80082803307F5008507B386F5000347070086
:1037080083C6F6FFE383E6FE014582809307F6FF52
:10371800BE952A966313C5008280FD1583C71500E0
:103728000505A30FF5FEFDB7814711E90145828024
:103738003307F50003470700E31AB7FE8507E319C7
:10374800F6FE054582809737002083C7B75F637F01
:10375800F5001387419A9317150008433E95835740
:103768000500DD8D2310B500014582800D4582805E
:10377800FD57011117370020232CF75C9387419BD5
:1037880022CC804326CA4AC84EC652C406CE56C268
:103798002A8981449739002093890957173A0020CC
:1037A800130A4A5A184481476374E900B30727414A
:1037B80003A749021CC409CB0327CA0063F6E70024
:1037C800173700202326F758A1E3835524009DE5E9
:1037D8005C44A1E423AAF19A832AC40022859710A5
:1037E8000020E780C03C568455FCF2406244D24435
:1037F8004249B249224A924A05618280034504003F
:1038080099375C4081CB1CC483572400F1D3A28430
:103818004044D9BF1C44CDDFC5BFDCC475BF973752
:10382800002083C737526371F5021387419A9317B3
:103838001500084393C5F5FF3E9583570500FD8D98
:103848002310B500014582800D45828097370020FE
:1038580083C7574F6364F50001458280411122C434
:1038680026C24AC006C62A842E89B284453601C5B6
:1038780004C505452DA0936504F0C205C1814145E5
:1038880097100020E78000290DE1973700209387E3
:10389800A7479C5B81C7A285114582970145B24025
:1038A800224492440249410182809387419B9C4370
:1038B8008DE323AAA19A85472326050004C5231171
:1038C800250123008500A300F5002322050055B734
:1038D800BA87D84775FFC8C7F9BF45C539715AD0E7
:1038E800138BC19A22DC26DA4AD84ED652D45ECE41
:1038F80066CA6AC86EC606DE56D262CC3689328A75
:10390800AE89AA8401445A8DB94D854BF94C0327D9
:103918000B00131C3400937AF40F62971C43A9EF31
:1039280013B5FA0013451500B3978B0063F65D01D4
:10393800930714FFB397FB0093950701C181528643
:1039480031371DC983270D000145E29784C323A29F
:1039580037016304090023005901F2506254D2541C
:103968004259B259225A925A025BF24B624CD24CDB
:10397800424DB24D216182800504E31A94F9214534
:10398800E9BF09458280411122C426C24AC006C641
:10399800AA842E8932845D3DCA852685EFF01FA74B
:1039A80009C940C10145B24022449244024941013B
:1039B80082802145CDBF411122C426C24AC006C615
:1039C800AA842E89EFF09FA42A8419C12311050027
:1039D800CA852685A935014511E01945B24022441A
:1039E80092440249410182807547636BA70413879B
:1039F800C19A1443411126C293143500A6969442E5
:103A080022C406C6AA873A84094595C613B5F700A5
:103A18003947134515006373F700C5178545B395F6
:103A2800F500C205C181413F1C400145A69723A06E
:103A3800070023A20700B240224492444101828039
:103A480009458280411106C6EFF05F9C09C508450B
:103A5800B240410182800145E5BFF54763EDA70407
:103A68009387C19A9C4313173500BA97984389479F
:103A780021C7011126CA06CE9334F50022CCB947D6
:103A880093C4140063F3A700451505443314A40038
:103A9800420441802EC62685A2856D378947324665
:103AA80009C5A28526855D338147F2406244D24428
:103AB8003E850561828089473E858280411106C620
:103AC80023A8A19A0295B2409737002023A6A728D9
:103AD800014541018280994763E9B7008A05973714
:103AE800002093872728BE9588C18280411106C689
:103AF80022C426C2EF50C15C7146814517350020AB
:103B080013054526EFF03FB817340020130484232B
:103B18001306000222858145EFF0FFB623AA019A19
:103B280023A8019A9737002083C7C71F13D52700FA
:103B38008D8B3E958D473305F502994793051010F7
:103B48009384819B35051375F50F2301A400330574
:103B5800F5021305050F97100020E780A0FB23A6A8
:103B6800A19A834724001305050F88C08A073E954C
:103B780023A2A19AEFF03F89A12683471400984019
:103B8800170600001306C68A93962700BA9690C2B5
:103B980093862700850793F7F70FA300D400B24058
:103BA80022448A07BA9790C392444101828097378A
:103BB800002083C73719173700200347C71863F158
:103BC800E7021387819B1843938617001736002056
:103BD800A30AD61693962700369708C33E85828097
:103BE8009307F00FE5BF1C416387071441777D8F6A
:103BF800B706002089476311D71403574500630DA2
:103C08000712411122C419462A849305F00F590559
:103C180006C6EFF07FB105478D476309E510130627
:103C2800C0038145173500201305050EEFF0BFA529
:103C38001306C003A285173500201305E50C97006D
:103C48000020E780A053173700200357A70C9737A9
:103C580000209387670B19E7130700209736002089
:103C6800239AE60A173700200347E70A11E70547B2
:103C7800973600202381E60A173700200347B70943
:103C880011E76D4797360020A387E608173700200D
:103C98000347870811E7154797360020238EE60665
:103CA800173700200347570711E7054797360020C5
:103CB800A384E606173700200347570619E703C70A
:103CC800070197360020A38BE60417370020034727
:103CD800C70411E75147973600202380E6041737B9
:103CE80000200347470419E713078002973600208E
:103CF800238BE602173700200347370219E713071B
:103D0800D00297360020A38AE6000347D40111E7C2
:103D1800094797360020A387E6009C5791C78297EA
:103D2800973700202393A702D1338147B24022441A
:103D38003E854101828089473E858280011122CCDF
:103D480006CE2A842EC6EFF02FF6B245F240818DBA
:103D580033A5A502229562441375F50F056182808B
:103D6800011122CC06CE2A842EC6EFF0EFF3B2451D
:103D7800F240818D33A5A502229562444205418116
:103D880005618280011122CC06CE2A842EC6EFF06E
:103D9800AFF1B245F240818D33B5A5022295624458
:103DA8000561828097370020938707F6985725C3C7
:103DB800411122C426C206C6BE84029717370020C6
:103DC8000357A7F82A8441C7BA876373A700AA874D
:103DD800C207C183BA866373E400A286C206C182A1
:103DE800958F51476355F706DC5491C382978547F1
:103DF800173700202306F70AEF00A156973700204F
:103E0800239587F4B2402244924441018280973737
:103E1800002083C7E7089DE7973700209387C707E7
:103E280083C79700850793F7F70F17370020A30973
:103E3800F706A18B9DC78547173700202312F70681
:103E48006F00E15797370020A38C0704D5BF973739
:103E5800002083C7E704DDD72244B24092444101E1
:103E6800C5B7828097370020938707EAD857011192
:103E780022CC06CE3E8401C72AC60297324509CD18
:103E880023AEA19A17050020130545560539F240BF
:103E980062440145056182808307440163DD0700B0
:103EA8009737002023AC07EA970700209387A74E8F
:103EB80023AEF19AC1BF970700209387A751CDBFC2
:103EC800011122CC17340020130404E4084406CE60
:103ED80026CA19E50545F2406244D244056182804C
:103EE8005C58EDDB185C7DD77000854582971844D7
:103EF800B247E301F7FE8357C40017350020034596
:103F080085E19305E0043305F50297340020938496
:103F180064E34205418197100020E780A0BF17376E
:103F28000020232FA7E25DD59737002083D787DEAF
:103F380017360020034626DE3306F6029305F00FF7
:103F4800EFF06FF4D04C08449737002083D787DC14
:103F580008C29735002083C505DCB385F5021C5CD3
:103F680089818297C84C97100020E78040C401459A
:103F78009737002023A607DEB9BF411122C41734A2
:103F88000020130464D81C4426C206C697340020B7
:103F9800938444DBADCB1C5CBDC7DC4C8DE78357F9
:103FA800C40017350020034505D79305E004330501
:103FB800F5024205418197100020E780A0B59737A8
:103FC800002023AFA7D8C84C1DCD9737002083D732
:103FD80067D417360020034606D43306F602930545
:103FE800F00FEFF04FEAD04C08449737002083D702
:103FF80067D208C29735002083C5E5D1B385F5029D
:104008001C5C89818297C84C09C997100020E780F9
:1040180000BA9737002023A507D4B240224492441F
:10402800014541018280011126CA973400209384FA
:1040380064D122CCC04C4EC652C456C206CE4AC821
:10404800AA8AAE89328A31EC173900201309C9CB04
:104058008327890099E3A94471A08357C9001735BC
:104068000020034545CB9305E0043305F5024205DE
:10407800418197100020E780E0A92A8441C5832761
:104088004903C9C39735002083C5E5C81737002001
:10409800035747C8B385E5022A8603258900898125
:1040A800829791451307A005898193972500A297C8
:1040B80083C607006395E60483C61700639E56030C
:1040C80085058A054E86A295528597000020E780CF
:1040D800E00ADC4C81446387870022859710002022
:1040E800E780E0ACF240624426854249D244B249B6
:1040F800224A924A0561828083D5270075B7DC4C35
:10410800E38B87F4228597100020E78040AAA1B7A7
:1041180097370020938747BF984729CB9C5FB9C73B
:1041280085466315D504411122C4173400201304B1
:1041380064C1504C06C61DC69736002083D686BD7E
:104148009735002083C525BDB385D5023A85898179
:104158008297484C97100020E78060A59737002089
:1041680023A007C0B2402244410182808280973751
:104178000020938727BDD84F011122CC26CA4AC8F0
:1041880052C406CE4EC62A89AE8432843E8A35E7AA
:1041980097390020938949B783D7C900173500207C
:1041A800034565B79305E0043305F50242054181EF
:1041B80097100020E78000969737002023A2A7BA1F
:1041C8002A8611E92945F2406244D2444249B2495B
:1041D800224A0561828003A5890005C183A7490396
:1041E80089CF9735002083C505B3173700200357BB
:1041F80067B2B385E502898182970325CA01914692
:104208001308A005FD5593D72600C207C18313974D
:1042180027002A9703460700631B060383481700F5
:104228000356270063932803B306D64063CD960050
:1042380085078A073E952686A28597000020E78095
:10424800E0F3014549B7A300B700B2866DBF173642
:104258000020035626AC9735002083C5C5ABB3852F
:10426800C502338696001106E3EEC5F413863400C2
:10427800719A1106B29623000701A30027012311A2
:10428800D7007DB7973700209387C7ABD44F8DCE23
:1042980091471306A0059305F00F89838A07B697FF
:1042A80003D7270003C5070009830A073697631D4C
:1042B800C500034517006316B5000357270023916F
:1042C800E70083D72700D1BF01458280011106CEC0
:1042D8002EC6EF70002B01C9B245F24003552500E8
:1042E80005616FA0C04BF240494505618280A384F7
:1042F800019E2384019E23A8019C23AA019C23AC30
:10430800019C23AE019C23A6019C23A4019C973702
:1043180000209387E7A63707B40098C33747A00063
:10432800D8C3370710009306070A94C7B70650008A
:10433800C106D4C7930607054107D8CB3707D0076E
:10434800410798CF37070F0098D337C707001307DF
:1043580007B8D8D3416794CB93060701130717F81A
:10436800D8D7417723AE070094D798DB8280011114
:1043780026CAAA84214522CC06CE2E8432C636C44B
:104388003AC2EFE09FF81DC9A2461247324693078A
:1043980000FD2300F5009947A30095002301F500CF
:1043A8002303D500A303E5002312C500AA852285AF
:1043B8006244F240D24405616FE09FFFF2406244DC
:1043C800D2440561828023A8A19C828023AAA19C53
:1043D800828023ACA19C828023AEA19C82800111A3
:1043E80022CC4AC806CE26CA2A890144B3048900C9
:1043F8006368B400F2406244D24442490561828055
:104408002EC6EFF06F8A93170501C183A183B245C9
:104418002380F4009307140093F7F70F850463F9DA
:10442800B700CA9709042380A7001374F40F7DBF4F
:104438003E847DBFC1671735002003550598FD17D9
:104448006302F502411103C641A79385019E06C682
:10445800EF60F07CB240FD5717370020231FF79418
:1044680041018280828009C925151375F50F13351E
:10447800850E134515008280014582802380050042
:10448800F94763E2C708797122D426D24ECE56CABC
:104498005AC806D64AD052CC5EC63684B289AE8A8D
:1044A8002A8B814463FF3405B307940003CA0700CD
:1044B800138914001379F90F63050A04B3072A0155
:1044C80063C1F904B307240183CB07005E85613F0C
:1044D8000DC99307FAFF2380FA0063906B03130555
:1044E80019002295B250225492540259F249624A54
:1044F800D24A424BB24B45618280D29493F4F40F76
:1045080055B70145C5B701458280411126C2AE8421
:1045180022C49737002023A9C78A9737002023A3EE
:10452800B78A9737002023ADA7882A844146930588
:10453800F00F26854AC006C60549EFF0EF9E631EB8
:104548002503973700209387E786884BC145413D6F
:1045580041469305F00F2285EFF00F9D85446316C1
:1045680095022244973700209387C784B24092442B
:104578000249C847C14541019DB541468145268547
:10458800EFF08F9AE31625FD6DBF414681452285E0
:10459800EFF08F99E30795FCB24022449244024918
:1045A80041018280411122C426C22E84AA841306A6
:1045B80000028145172500201305C57F06C6EFF0C8
:1045C8008F8C97270020A388977EA38B81A6EFA0C6
:1045D800801E854719C181474945B24022441727A3
:1045E80000202309F77C924441018280814781CDD4
:1045F80019C98547631BF50083C7550093E707FC76
:10460800A382F50085473E85828089476317F500B8
:1046180083C7550093F7F703E5B70D478547E314BC
:10462800E5FE03C755001377F70313670704A38252
:10463800E500D1BF81478DC105C103C75500930669
:10464800000C85471377070C6308D700930600040E
:104658008D476303D70089473E858280411122C474
:10466800005D06C626C21DC8AA84085009C5970061
:104678000020E780C053485009C597000020E78014
:104688000053085409C597000020E780405222854E
:1046980097000020E780A05123AC0402B2402244D6
:1046A80092444101828009ED9727002083C7A770B3
:1046B800172500201305857181CB1385019C828005
:1046C80017250020130585708280172500200345D3
:1046D800856E8280972700209387C76DC8478280A0
:1046E800972700209387076D884B828097270020A3
:1046F8009387476CDC4B88438280972700209387F9
:10470800676BD84B1C4385071CC31725002003453E
:10471800956A9307F00F6305F50091656FF0AF8216
:104728008280011122CC06CE2E8432C6EF60B0748E
:104738009147B245631FF5009387C19D9C438DC384
:1047480003A30700630E030022856244F24005615B
:1047580002839387419D9C4381C703A34700DDB72C
:10476800F2406244054505618280011122CC2A8409
:104778000355450006CE26CA4AC84EC6EF60F05714
:1047880035C52A89834405008349C500C13D4A854A
:10479800EF70F04703554400EF60706983C7819E4E
:1047A800B1CB6399970483C5919E2685EFF01FB21C
:1047B80019E12384019E03554400EF60D06B9147B3
:1047C800631FF500035744009727002083D7E75E4F
:1047D8006317F700FD57172700202310F75EF240F4
:1047E8006244D2444249B2490561828081499304B6
:1047F800F00F6DB79307F00FE38FF4FA8346640068
:1048080003564400034524004E87A685EFF03FB6C3
:104818005DB779715EC6AA8B2E8552CC56CA5AC826
:1048280006D622D426D24AD04ECEAE8A328B368ACB
:10483800EF60B04C6DC1045D2A89F1CC9C50614594
:1048480099C3130540039C5481C751054205418112
:1048580063050A00710542054181DC5081C759058D
:1048680042054181EFE07FAA2A8455C5614681450A
:10487800EFE07FE19729002083C9895363940900F9
:1048880083490900930700FD2300F400A947A3000A
:1048980074012301F400230364018C502312540192
:1048A8001305840191C908C47146930A440397000B
:1048B8000020E780A08C56858C5491C948C4514685
:1048C800930A450197000020E780408B5685630CCA
:1048D8000A0008C87146D285930AC50197000020CE
:1048E800E780C0895685CC5099C548C85946970075
:1048F8000020E780A088A2854E85EFE07FAB225498
:10490800B2509254F249624AD24A424BB24B4A855B
:1049180002594561A1B3B250225492540259F24946
:10492800624AD24A424BB24B4561828001114EC65F
:10493800AA892E854AC806CE22CC26CA2E89EF60BF
:10494800D03B31C59724002083C4844699E0834432
:1049580005001945EFE07F9B2A8415C98145194652
:10496800EFE07FD2930700FD2300F400B947A300CE
:1049780034012301F40023122401A2856244F24089
:104988004249B2492685D24405616FE07FA2F240D0
:104998006244D2444249B2490561828039715ECE8F
:1049A800AA8B2E8526DA4ED652D456D25AD006DE97
:1049B80022DC4AD8AE84328BB68A3A8ABE8942C68D
:1049C800EF60B03331C92A894145EFE01F942A844A
:1049D80021C541468145EFE01FCB1725002003453F
:1049E800253D19E103450900930700FD2300F40064
:1049F800BD472301F400B247A300740123129400B9
:104A080023046401A304540123054401A3053401CC
:104A18005CC4A285EFE0DF99F2506254D254425947
:104A2800B259225A925A025BF24B21618280797103
:104A380026D2AA8439454AD04ECE06D622D42EC6CE
:104A4800B2893689EFE07F8C21C1B2459307000D0A
:104A58002310F500B1472A842312B5002301F5007D
:104A6800CE851905194697F0FF1FE78020712306A8
:104A78002401A2852254B2500259F24913F5F40FC9
:104A8800925445616FE0DF92B25022549254025919
:104A9800F24945618280172700200347D7319307E1
:104AA800F00F630DF706411126C2AA84394522C4C6
:104AB80006C64AC0EFE07F852A8439C9930700FDFE
:104AC8002300F500A3009500230105009725002089
:104AD8009385C52F0D05194697F0FF1FE780006ADB
:104AE800172900201309092D83578900A285172546
:104AF80000200345552C2315F4008347190023068D
:104B0800F4002244B2409244024941016FE05F8AB6
:104B1800B2402244924402494101828082800111BC
:104B280056C2AA8A314526CA4AC84EC652C406CEBB
:104B380022CCAE84328AB6893A89EFE00FFD29C9C2
:104B48002A842685EF60701B1DCD03450500930759
:104B580000FD2300F4009D47A30054012301F40045
:104B68002312940023134401231434012315240130
:104B7800A2856244F240D2444249B249224A924A4A
:104B880005616FE0FF82172500200345D522C1B7D4
:104B9800F2406244D2444249B249224A924A0561EB
:104BA8008280397162CC2A8C594526DA4AD84ED689
:104BB80052D456D25AD05ECE06DE22DCAE8432C63D
:104BC80036C4BA8B3E8BC28A468A8359010403498C
:104BD8004104EFE08FF335C53246930700FDA24646
:104BE8002300F5009547A301C500A3008501230113
:104BF800F5002A8419461105A9C2B68597F0FF1F4A
:104C0800E780C05723066401230A24012315740191
:104C1800231754012318440123193401A28562542F
:104C2800F2504259B259225A925A025BF24B624CE4
:104C38002685D25421616FE0AFF78145EFE0BFA42C
:104C4800D1B7F2506254D2544259B259225A925AA8
:104C5800025BF24B624C216182809727002083C758
:104C680087158DCB4111AA8519461385019C06C667
:104C780097F0FF1FE78080509385019C172500203F
:104C880003456513EFF09F96B2401385019C4101DF
:104C98006F90F03201458280411106C622C426C2B7
:104CA80017270020034737119307F00F6308F7040D
:104CB800AA842945EFE06FE52A8429C1930700FDFE
:104CC8002300F500A1472301F500A30095009727CD
:104CD80000209387270E83C727009385019C110521
:104CE800A30FF5FE194697F0FF1FE7802049A2851C
:104CF800172500200345350CEFE08FEB1727002020
:104D08000347870B85476315F7029387819D9C436B
:104D180081C79C4791C382972244B24092445D6602
:104D280003C541A713060670914541016FE0BFC551
:104D3800B2402244924441018280797122D406D63D
:104D480026D24AD04ECE52CC094445C92A890355A9
:104D580005002E8A5144EF60407AAA8459CD83C752
:104D680071A7FD1793F7F70F054749446377F708CD
:104D78000347C500A1476314F70063100A089C5C49
:104D88004544A5EF9165938545711305C0029700C9
:104D98000020E78020D888DCAA894D4439CD130645
:104DA800C0028145EFE03F8E835709009386490092
:104DB80036852391F90071469305490036C697F068
:104DC800FF1FE780A03B89472380F90003C5C40083
:104DD800B24603560900611583C541A7133515006E
:104DE800EF80707D2A8463060A00D2852685EF70DD
:104DF800300D01C42685EFF07F862285B2502254FB
:104E080092540259F249624A4561828083C771A768
:104E1800FD1793F7F70F05476378F708894751C6D9
:104E2800011122CC26CA4AC84EC652C406CEAA8947
:104E3800368AB2842E89EF60406C2A84D14729C90A
:104E4800485509C597000020E78060D6F1452685BA
:104E5800EFE0DF8548D4CD4705CD8346C400214720
:104E68008147639FE600630D0A000347A5010356C7
:104E7800050193062501AA854E85EF60507CAA8717
:104E880003474400630F0900136767002302E40027
:104E9800F2406244D2444249B249224A3E85056101
:104EA800828013674700DDB7C9473E858280E147A6
:104EB80063EBA70097270020938787EC06053E95AC
:104EC80003550500828041657D158280011122CC41
:104ED8002A842E8526CA06CEAE84EF6000620DCDE8
:104EE800B7470F009387F723094563E28702814597
:104EF8000A854146EFE02FF9A685231081000A852F
:104F0800418023018100A3010100EF80304DF24070
:104F18006244D244056182804945D5BFA38AA1A6CF
:104F280082806F801062797152CC2A8A328522D4AD
:104F380026D24AD04ECE56CA5AC85EC606D662C4D3
:104F4800AE8BB28A368BBA843E89C2894684EF60BA
:104F5800C05A15C92A8C63140A0213774B00834779
:104F6800450015CF93E727012302FC008DEC631C55
:104F78000902639A090205E8ED9B2302FC00832BD2
:104F88008C03639F0B06B250225492540259F24983
:104F9800624AD24A424BB24B224C45618280F59B11
:104FA80093E70701D1B793E747002302FC0001CC40
:104FB8001C484146A2852324FC0213058C0197F066
:104FC800FF1FE780A01B63910B02D5D80325CC02F5
:104FD80009C597000020E78080BDF1452685EFE0F0
:104FE800EFEC2326AC0261BFE30B09F80325CC02E2
:104FF80009C597000020E78080BBF1454A85C5B701
:105008009DC483A70B0299EB916593853571714512
:1050180097000020E78000B023A0AB0203A50B0295
:1050280019C57146A68597F0FF1FE780201563888C
:10503800090283A74B0299EB916593852571594520
:1050480097000020E78000AD23A2AB0203A54B0226
:1050580019C55946CE8597F0FF1FE78020121DC459
:1050680083A78B0299EB916593851571514597003C
:105078000020E78020AA23A4AB0203A58B0219C550
:105088005146A28597F0FF1FE780400F2254B25087
:105098009254F249B24B224CCA865A860259424B64
:1050A800D6855285D24A624A45616FF08FF6011162
:1050B80026CA52C406CE22CC4AC84EC62A8AAE8414
:1050C800EF60A04325C5AA893945EFE00FA42A84DB
:1050D80031CD172900200349A9CD6314090003C95C
:1050E80009009307000D2310F400AD472301F400D5
:1050F8009385690013053400194697F0FF1FE78070
:10510800E00793F71400858085882306F400A3063A
:10511800940023154401A2856244F240D244B24966
:10512800224A4A85424905616FE08FA8F2406244ED
:10513800D2444249B249224A056182809387819CC0
:10514800884301CD411106C697000020E78020A6BC
:10515800B24023A4019C410182808280011106CEC5
:1051680022CC26CA4AC82EC6EF60203939CDB245AE
:10517800172900200349C9C3AA840CD56314090060
:10518800034905004145EFE04F982A841DCD930758
:10519800000D2310F500A5472301F50083C754002F
:1051A800938564001105A30FF5FE194697F0FF1FBC
:1051B800E780C0FC9C54A285F2405CC46244D2449F
:1051C8004A85424905616FE0AF9EF2406244D2448D
:1051D800424905618280797122D406D62A842EC676
:1051E800EF60A0310DCD8346C5001147AA87494518
:1051F8006393E6029C5FB24599C383C567010808BB
:10520800EF70005597860000938686DA1008894566
:105218002285EF609047B250225445618280514503
:10522800DDBF83C771A7FD1793F7F70F0547637AAB
:10523800F704894721CA411122C426C24AC006C6BA
:10524800B2842E89EF60602B2A84D14705C5630894
:1052580009008347450093E727002302F5004146EC
:10526800A6851305840197F0FF1FE78020F19C486D
:105278001CD48147B2402244924402493E854101F0
:105288008280C9473E858280797122D406D62A84D5
:105298002EC6EF60802601CDB2452285230EB100CF
:1052A8006C08EF70603EB2502254456182805145CF
:1052B800DDBF6F600032C1671387E7FF6394E502C3
:1052C8009387419D9C4391EB494582804945B24073
:1052D8002244924402494101828003A30700E30566
:1052E80003FE0283411122C426C24AC006C6FD1726
:1052F8002A892E84B2846395F5029387419D9C4345
:1053080091CB9C4381CB829711E52384219FA38471
:10531800919E75BFA6854A85EFE05FFB4DF9F5B70D
:105328002E85EF60801D5DD1834705000D45E39014
:1053380027FB22852244B2400249A68592444101B6
:105348006F90E045E14763E8A70441677D17894707
:105358006384E504411122C426C206C6C547AE844B
:105368002A84631AF5001305C0033385A502420594
:105378004181EF90404A13151400172400201304AC
:1053880024A02295B24022442310950081479244DC
:105398003E854101828089473E858280011106CE83
:1053A8002AC6EFE0DFF4EF00107FEF00A072EF30C5
:1053B800B10B3245972700209387C79F130700F04A
:1053C8002391E700238207007D57938741A7A38095
:1053D800E7002380A700F240954505616F4030340F
:1053E8005D7193970501CAC086C6A2C4A6C24EDEE7
:1053F80052DC56DA5AD85ED662D466D26AD0C187F1
:105408002E8963D0074C03C541A7EFD0FFF3896409
:10541800416A856A797B2A84938BD4007D1AA50A10
:10542800691B15E021653345A900B640264496441A
:105438000649F259625AD25A425BB25B225C925CCC
:10544800025D61618280834704001307200A639D1F
:10545800E70003552400172C0020034CDC95228616
:10546800D285EFF00FAC3DAA1307100903CC51A762
:105478006397E716834714001547639EE700228564
:10548800EFF0AFAE2285EFD09FE503C541A7EFD07F
:10549800BFEB2A8479B739476399E7160355440067
:1054A800631B55050C4483C90500639D09008505E8
:1054B80091C91946172500201305459197F0FF1F3C
:1054C800E780C0CB172700200347C78E854763189E
:1054D800F710638A090097270020238D078C4E85D3
:1054E800EFF06FDB45B78947172700202304F78CB7
:1054F800EF90A02C41BF93872400631AF5068329F7
:105508008400638E090C83C709008DE383C72900D3
:1055180003C71900A207D98F172700202310F78A7D
:1055280083C7390017270020A306F788172700200C
:105538000347478889476314F70A83C7090081CB63
:10554800972700202388078603C5090051BF8D4788
:105558009725002083C51586172500200355058645
:10556800172700202308F784EF40701EF1BF9387A8
:1055780054006318F5001C4403C50700EFF0CFF191
:1055880011B7B3076501C207C1831147636FF700FD
:105598009387819D9C43E38707EE9C43E38407EE52
:1055A80022858297E31005EE1DA89387B400631F38
:1055B800F5009387019D9C43E38607EC9C43E383B6
:1055C80007ECA2851385B4008297E9BF9387C400CE
:1055D8006310F5021C4483C70700E38507EA9307B5
:1055E800F00FE301FCEAA2856285EFD07FDC71BD94
:1055F8009387E400E315F5FE9387419D9C43E3837D
:1056080007E8DC43A285E9F3B5BD3D476397E704A6
:1056180003554400E30275FF93879401E30EF5FCFC
:1056280093873401E31DF5FA9717002083D7E778AD
:10563800639E47019387419D9C43E38507E4DC43D0
:10564800E38207E4A28513853401BDBF9387C19D1A
:105658009C43E38907E29C43E5B71307E003E39023
:10566800E7F88347240005476396E70E83476400FD
:10567800138D819CF1E383270D00D5CB03CC070064
:10568800A14903457400930C8400E685EFE09FFA76
:1056980083474401A303A400835804010358E4008A
:1056A800035744002A86034534003EC28357240129
:1056B800E686E2853EC0CE87EFF0AFCE8347340062
:1056C80095E7DD47835804010358E40083467400D6
:1056D800835544003EC2835724013EC06687CE8767
:1056E80005466285EF60A00EA301A40083270D0084
:1056F80081C71145EFF09FA403C5819EE30405D837
:1057080083C5919EEFE09FBCE30E05D68346340027
:1057180093071003638AF600035644004E8783C537
:10572800819E3685EFE0BFC42384019EA1BB171C70
:105738000020034C5C68A9B79387819D9C43171C84
:105748000020034C5C6791498DDFDC439DDB0145FC
:10575800829705BF2947639DE70883476400138D37
:10576800819CADEB83270D00ADC303CC0700A14995
:1057780003457400930C4401E685EFE0BFEB8347D3
:105788000402A303A4008358C4010358A4010357C7
:1057980044002A86034534003EC28357E401E68666
:1057A800E2853EC0CE87EFF0CFBF834734009DFF30
:1057B800DD478358C4010358A40183467400835508
:1057C80044003EC28357E40109BF171C0020034C64
:1057D8009C5E71BF9387819D9C43171C0020034CDE
:1057E8009C5D9149D1D7DC43C1D70145829749B720
:1057F8000947639DE7009387019D9C43E38407C89D
:10580800DC43E38107C822858297ADB92D476399A8
:10581800E7009387019D9C43E38607C69C47D5B75D
:105828000D476397E70022868D450355440015B957
:1058380019476395E7069305610113051031EF30A9
:10584800A14D2C0813052031EF30014D035664009B
:10585800835781010355440063E8C70083568400D9
:105868000357610163F7E60093050002EF80B07902
:1058780011B96374E6002313E40063F4D70023141A
:10588800F4000357C4008356A400035684008355CC
:10589800640001488147EF80D076EDB61D47E3905C
:1058A800E7D403574400E3ECE7D297170020938727
:1058B800A75A06073E9783576400F1172310F7008D
:1058C80039BB93F7150081CF9387019D9C4389C706
:1058D800DC4399C30145829713451900B9B693F77C
:1058E800250081CF9387819D9C4389C7DC4399C359
:1058F80005458297134529000DBE93F745000145DC
:10590800E38507B29717002083C7174BA5C7FD1774
:1059180093F7F70F17170020A300F74AA1EF938713
:10592800C19C9C4391CF8547171700202306F74851
:105938009387819D9C4389C7DC4399C3054582971A
:105948009717002093870747C8472C08EF80201235
:105958002808EFF08FB0971700209387674283D706
:105968002702914503C541A717170020A306F7444E
:10597800EFE06F84134549004DBC411122C42A84CD
:10598800554506C6EFF0AFD2B335A00022852244B4
:10599800B24041016F80F063797122D406D68D47F9
:1059A8002E84631FF50003D7A50083D6850003D690
:1059B80065000345340083D54500EFF04F9609A8EC
:1059C80089671387D7006310E50403C5250019E527
:1059D8008547B25022543E85456182809387819CD9
:1059E8009443FDD603C6360083C50600814802C22B
:1059F80002C00148814701479106EFF08F9A05459B
:105A0800EFF0CFF3F1B71387E700E303E5FC138763
:105A18003701631AE50003C525005DD901478146B2
:105A28000146814559BFE507E304F5FA41677D174B
:105A38008147E310E5FA03C75500C947E31AF7F8A9
:105A480083D6E50003D6C5000355840083D5A50099
:105A5800EF80F05C21C15D45EFF06FC53335A000E4
:105A6800231EA10083454400035524007008EF500D
:105A7800701C8357C101A9FF0357E4008356C40073
:105A88000356A40083558400035524000148EF8081
:105A980050553DBF8547231EF100E9B7C1671387FD
:105AA800E7FF639DE5009387819C9C4395C383C76B
:105AB80007000D47639CA7006F80F051FD17494709
:105AC8006396F5009387819C9C43FDF73A85828015
